:060000000A128A11122809
:10000800FE00030E83120313E4000408E5000A0847
:10001800E6007F08E7000A128A15162A0A128A11D2
:100028001528E801E901EA01EB01EC01ED01831370
:10003800C5308400D8300A168A114E220A128A1155
:10004800831790308400C0300A168A114E220A1293
:100058008A111030840070300A168A114E220A1252
:100068008A11831603130A128A1503200A128A11A9
:10007800D8000A128A150420D90083010A168A11A9
:10008800572D03132308D5002408D6002508D700C8
:100098000A128A15CE240A128A11831203135208EF
:1000A80083160313BB008312031353088316031329
:1000B800BC0083120313540883160313BD000030D9
:1000C800C2000030C3000030C400B201B3013308DD
:1000D800803AFF0080307F02031D742810303202FE
:1000E80003184329033083120313E2006208F00067
:1000F8008316031332080A168A1179220A128A1102
:10010800903E840083160313420883120313C00031
:1001180083160313430883120313C10083160313C2
:10012800440883120313C2000030C3000030C40027
:100138004030C5000030C600A030C7004030C800BD
:100148000030C900A030CA004030CB000030CC00DD
:100158002030CD004130CE000A128A15AA260A1294
:100168008A1183120313400883178000840A410808
:100178008000840A420880000330E2006208F00030
:100188008316031332080A168A1179220A128A1171
:10019800903E840083170008F400840A0008F500E4
:1001A800840A0008F600831603133B08F7003C088E
:1001B800F8003D08F9000A168A118E240A128A11DD
:1001C800031C0129033083120313E2006208F000C4
:1001D8008316031332080A168A1179220A128A1121
:1001E800903E8400831603133B0883178000840A1B
:1001F8003C088000840A3D08800000308312031305
:10020800A3008030A4003F30A500831603134208E2
:1002180083120313A60083160313430883120313E0
:10022800A70083160313440883120313A8000A12B5
:100238008A15A1250A128A1183120313230883162B
:100248000313C20083120313240883160313C30085
:1002580083120313250883160313C4000130B20761
:100268000318B30A0030B3073308803AFF00803020
:100278007F02031D412910303202031C76288316A1
:1002880003135108803AFF0080307F02031D4E2976
:1002980064305002031CD72A831603135108803A8E
:1002A800FF0083307F02031D5B29EA3050020318E8
:1002B800D72A831603132C08803AFF0080307F0268
:1002C800031D6829C9302B02031CD72A203083124A
:1002D8000313CC00FA30CD004430CE000030C90002
:1002E800FA30CA004430CB000030C600FA30C700EC
:1002F8004330C8000030C3004830C4004330C50054
:10030800831603132C08F901F9072B08F801F807DD
:100318000A168A112D230A128A11780883120313E8
:10032800C0007908C1007A08C2000A128A15AA26F4
:100338000A128A11831203134008D2004108D3001D
:100348004208D400C030CC00C130CD004430CE00CB
:100358000030C9004830CA004430CB000030C60025
:100368004830C7004430C8000030C3004830C400DB
:100378004230C500831603135108F901F9075008E4
:10038800F801F8070A168A112D230A128A1178082B
:1003980083120313C0007908C1007A08C2000A1248
:1003A8008A15AA260A128A11831203134008D50057
:1003B8004108D6004208D7000A128A15CE240A122C
:1003C8008A1183120313520883160313BB00831286
:1003D8000313530883160313BC0083120313540832
:1003E80083160313BD000030C2000030C300003084
:1003F800C400B401B5013508803AFF0080307F029F
:10040800031D082A103034020318D72A0330831238
:100418000313E2006208F0008316031334080A1677
:100428008A1179220A128A11403E84008316031326
:10043800420883120313C000831603134308831270
:100448000313C10083160313440883120313C20065
:100458000030C3000030C4004030C5000030C60082
:10046800A030C7004030C8000030C900A030CA0022
:100478004030CB000030CC002030CD004130CE00E1
:100488000A128A15AA260A128A118312031340082F
:1004980083178000840A41088000840A420880008B
:1004A8000330E2006208F0008316031334080A16CA
:1004B8008A1179220A128A11403E840083170008A3
:1004C800F400840A0008F500840A0008F600831680
:1004D80003133B08F7003C08F8003D08F9000A162A
:1004E8008A118E240A128A11031C952A033083125A
:1004F8000313E2006208F0008316031334080A1697
:100508008A1179220A128A11403E84008316031345
:100518003B0883178000840A3C088000840A3D0851
:100528008000003083120313A3008030A4003F3002
:10053800A50083160313420883120313A60083162B
:100548000313430883120313A700831603134408F5
:1005580083120313A8000A128A15A1250A128A1108
:1005680083120313230883160313C2008312031391
:10057800240883160313C300831203132508831664
:100588000313C4000130B4070318B50A0030B507D7
:100598003508803AFF0080307F02031DD52A1030CD
:1005A8003402031C0A2A831603135108803AFF00F9
:1005B80083307F02031DE22AE9305002031C082C15
:1005C800831603135108F901F9075008F801F807D1
:1005D8000A168A112D230A128A1178088312031326
:1005E800C0007908C1007A08C2004030C3007A30E0
:1005F800C4004430C5008030C600BB30C70044305A
:10060800C8000030C900FA30CA004430CB0020309E
:10061800CC00FA30CD004430CE000A128A15AA2642
:100628000A128A1183120313400883160313BB00AE
:1006380083120313410883160313BC0083120313A8
:10064800420883160313BD000030C2000030C30007
:100658000030C400B601B7013708803AFF00803087
:100668007F02031D392B103036020318082C033083
:1006780083120313E2006208F0008316031336089E
:100688000A168A1179220A128A11103E84008316EA
:100698000313420883120313C0008316031343088D
:1006A80083120313C1008316031344088312031330
:1006B800C2000030C300A030C4004030C500003084
:1006C800C6002030C7004130C8000030C900703073
:1006D800CA004130CB000030CC008030CD00413022
:1006E800CE000A128A15AA260A128A118312031347
:1006F800400883178000840A41088000840A420861
:1007080080000330E2006208F00083160313360805
:100718000A168A1179220A128A11103E8400831758
:100728000008F400840A0008F500840A0008F600AE
:10073800831603133B08F7003C08F8003D08F9004E
:100748000A168A118E240A128A11031CC62B03303A
:1007580083120313E2006208F000831603133608BD
:100768000A168A1179220A128A11103E8400831609
:1007780003133B0883178000840A3C088000840A1E
:100788003D088000003083120313A3008030A400CA
:100798003F30A50083160313420883120313A600F3
:1007A80083160313430883120313A7008316031346
:1007B800440883120313A8000A128A15A1250A12F5
:1007C8008A1183120313230883160313C2008312AA
:1007D8000313240883160313C30083120313250885
:1007E80083160313C4000130B6070318B70A003094
:1007F800B7073708803AFF0080307F02031D062CB8
:1008080010303602031C3B2B003083160313C20042
:100818000030C3000030C4000030B8000030B90018
:100828000030BA000030AD000030AE000030AF003C
:10083800BE01BF013F08803AFF0080307F02031DE0
:10084800272C10303E020318A32E83160313BF1B58
:10085800DF2C3F08803AFF0080307F02031D362CD2
:1008680006303E020318DF2C033083120313E20024
:100878006208F000831603133E080A168A117922CB
:100888000A128A11903E840083170008831203130A
:10089800A300840A0008A400840A0008A50083169F
:1008A8000313380883120313A600831603133908A9
:1008B80083120313A700831603133A088312031342
:1008C800A8000A128A15A1250A128A118312031395
:1008D800230883160313B80083120313240883160E
:1008E8000313B90083120313250883160313BA00F0
:1008F800033083120313E2006208F0008316031327
:100908003E080A168A1179220A128A11903E84003A
:100918008317000883120313D500840A0008D60041
:10092800840A0008D70083160313420883120313AE
:10093800D20083160313430883120313D3008316CC
:100948000313440883120313D4000A128A15CE2411
:100958000A128A11831203135208A3005308A40031
:100968005408A500831603132D0883120313A60049
:10097800831603132E0883120313A7008316031389
:100988002F0883120313A8000A128A15A1250A1238
:100998008A1183120313230883160313AD008312ED
:1009A8000313240883160313AE00831203132508C8
:1009B80083160313AF00831603133F08803AFF0022
:1009C80080307F02031DEA2C05303E02031CA02D57
:1009D800831603133F08803AFF0080307F02031D0F
:1009E800F72C0B303E020318A02D0330831203139B
:1009F800E2006208F000831603133E080A168A1103
:100A080079220A128A11403E840083170008831253
:100A18000313A300840A0008A400840A0008A500A0
:100A280083160313380883120313A60083160313CF
:100A3800390883120313A700831603133A08831295
:100A48000313A8000A128A15A1250A128A11831213
:100A58000313230883160313B8008312031324080F
:100A680083160313B900831203132508831603138F
:100A7800BA00033083120313E2006208F000831601
:100A880003133E080A168A1179220A128A11403E77
:100A980084008317000883120313D500840A000812
:100AA800D600840A0008D70083160313420883126D
:100AB8000313D20083160313430883120313D300CE
:100AC80083160313440883120313D4000A128A15E9
:100AD800CE240A128A11831203135208A300530862
:100AE800A4005408A500831603132D0883120313CA
:100AF800A600831603132E0883120313A700831678
:100B080003132F0883120313A8000A128A15A125BC
:100B18000A128A1183120313230883160313AD00E4
:100B280083120313240883160313AE0083120313DE
:100B3800250883160313AF00831603133F08803A72
:100B4800FF0080307F02031DAB2D0A303E02031CDC
:100B5800612E831603133F08803AFF0080307F021E
:100B6800031DB82D10303E020318612E0330831286
:100B78000313E2006208F000831603133E080A1606
:100B88008A1179220A128A11103E840083170008FC
:100B980083120313A300840A0008A400840A00082F
:100BA800A50083160313380883120313A6008316BF
:100BB8000313390883120313A700831603133A0893
:100BC80083120313A8000A128A15A1250A128A1192
:100BD80083120313230883160313B8008312031325
:100BE800240883160313B9008312031325088316F8
:100BF8000313BA00033083120313E2006208F00003
:100C0800831603133E080A168A1179220A128A11DA
:100C1800103E84008317000883120313D500840A4A
:100C28000008D600840A0008D70083160313420878
:100C380083120313D200831603134308831203138A
:100C4800D30083160313440883120313D4000A1233
:100C58008A15CE240A128A11831203135208A3009C
:100C68005308A4005408A500831603132D08831203
:100C78000313A600831603132E0883120313A70079
:100C8800831603132F0883120313A8000A128A1568
:100C9800A1250A128A11831203132308831603134A
:100CA800AD0083120313240883160313AE008312C6
:100CB8000313250883160313AF00003083120313B0
:100CC800A3008030A4003F30A50083160313420818
:100CD80083120313A6008316031343088312031316
:100CE800A70083160313440883120313A8000A12EB
:100CF8008A15A1250A128A11831203132308831661
:100D08000313C20083120313240883160313C300BA
:100D180083120313250883160313C4000130BE078A
:100D28000318BF0A0030BF073F08803AFF00803031
:100D38007F02031DA12E10303E02031C292C003017
:100D480083160313A6000030A7000030A8003A0855
:100D5800390438040319E92E380883120313B00044
:100D680083160313390883120313B1008316031380
:100D78003A0883120313B200831603132D08831253
:100D88000313B300831603132E0883120313B4004E
:100D9800831603132F0883120313B5000A128A154A
:100DA80016240A128A1183120313300883160313B8
:100DB800A60083120313310883160313A7008312B6
:100DC8000313320883160313A80059085702031D9A
:100DD800EF2E58085602031CF52EFF30A900FF30ED
:100DE800F82E0130A9000030AA002A088312031344
:100DF800C301C30783160313290883120313C2010F
:100E0800C207831603135108F901F9075008F801BE
:100E1800F8070A168A112D230A128A1178088312F4
:100E28000313A9007908AA007A08AB0083160313F4
:100E3800260883120313A6008316031327088312B8
:100E48000313A70083160313280883120313A800AB
:100E58000A168A110F230A128A118312031326080D
:100E6800B2002708B3002808B4000A128A156020C7
:100E78000A128A11831203133308C101C107320809
:100E8800C001C0070A168A1193230A128A11831611
:100E980003135408831203134007C6008316031371
:100EA80055080318550A831203134107C7000A1689
:100EB8008A11A2220A128A11831203134608831682
:100EC8000313A30083120313470883160313A40014
:100ED80083120313480883160313A50000308312F6
:100EE8000313AF000030B0000030B100C030A900DB
:100EF8007F30AA004430AB00831603132308831203
:100F08000313A60083160313240883120313A700F0
:100F180083160313250883120313A8000A168A11DF
:100F28000F230A128A11831203132608AC0027081C
:100F3800AD002808AE000A168A11F1220A128A1199
:100F4800831203132C08B2002D08B3002E08B40036
:100F58000A128A1560200A128A11831203133308B1
:100F680083160313D501D50783120313320883169A
:100F78000313D401D4075508F101F1075408F0010F
:100F8800F0070A168A11BA220A128A118312031369
:100F980006130B110C180C106708FF0066088A006E
:100FA80065088400640E8300FE0E7E0E09000A1296
:100FB8008A15A329831603174108C3004008C200F5
:100FC800430DC30CC20C430DC30CC20C4208831260
:100FD80003139B00831603174008C2000330031055
:100FE800C20DFF3E031DF32F0310420D0C38831270
:060FF80003139D00080038
:1010060088341334F601F11F0F28F009F109F00AAC
:101016000319F10AF601F60AF31F1A28F209F30971
:10102600F20A0319F30A0130F4007408F606F70110
:10103600F8017108700403195128F501F50AF11B2E
:10104600302801300310F00DF10DFF3E031D252859
:101056000130F4007408F507222801300310F70D5B
:10106600F80DFF3E031D312871087302031D3D284C
:1010760070087202031C46287008F2027108031CED
:10108600F303F302771401300310F10CF00CFF3E6A
:10109600031D47280130F502031D30287608031981
:1010A6005928F709F809F70A0319F80A7808F10127
:1010B600F1077708F001F0070800831203133208DE
:1010C600B6003308B7003408B8000310370D380DE2
:1010D600B9003908BF00BF08031D7A280030B500E3
:1010E6000030B4000030B3000030B200080032080F
:1010F600B6003308B7003408B80017300310B80C30
:10110600B70CB60CFF3E031D81283608B900390816
:10111600BA00B317FF30B205FF30B3050030B4058F
:101126003208BB003308BC003408BD00BE018E3057
:10113600BF02BF1FBC283F08803A8F3E0318AC2869
:101146000030B5000030B4000030B3000030B2000B
:10115600080001300310BE0CBD0CBC0CBB0CFF3EDE
:10116600031DAD280130B6003608BF070319D7287E
:10117600AC2818303F02031CD4280030B5000030DC
:10118600B4000030B3000030B20008000130B600F1
:101196000310BB0DBC0DBD0DBE0DB60BCB2801302B
:1011A600BF02BF08031DC9283A080319E528BB0971
:1011B600BC09BD09BE09BB0A0319BC0A0319BD0A4D
:1011C6000319BE0A3E08B5003D08B4003C08B3004A
:1011D6003B08B200080083160317CA01C31F002983
:1011E600C009C109C209C309C00A0319C10A031902
:1011F600C20A0319C30ACA01CA0AC71F1129C409A8
:10120600C509C609C709C40A0319C50A0319C60AC6
:101216000319C70A0130C8004808CA060030CE00C4
:101226000030CD000030CC000030CB004308420433
:101236004104400403196629C901C90AC31B31299F
:101246000130C8000310C00DC10DC20DC30DC80B7F
:1012560025290130C8004808C90721290130C800DE
:101266000310CB0DCC0DCD0DCE0DC80B3329430885
:101276004702031D482942084602031D4829410822
:101286004502031D482940084402031C5929400809
:10129600C4024108031C410FC5024208031C420F49
:1012A600C6024308031C430FC7024B140130031048
:1012B600C30CC20CC10CC00CFF3E031D5A290130E1
:1012C600C902031D31294A0803197429CB09CC091F
:1012D600CD09CE09CB0A0319CC0A0319CD0A031985
:1012E600CE0A4E08C3004D08C2004C08C1004B0888
:1012F600C00008000313400883160313BB008312C3
:101306000313410883160313BC0083120313420818
:1013160083160313BD000030C2000030C300003046
:10132600C400B001B1013108803AFF0080307F026D
:10133600031D9F29103030020A128A150318C02B8C
:10134600033083120313E2006208F00083160313CE
:1013560030080A168A1179220A128A15903E8400EC
:1013660083160313420883120313C0008316031364
:10137600430883120313C100831603134408831220
:101386000313C2000030C3008030C400BF30C50064
:101396000030C6000030C7000030C8000030C90069
:1013A6000030CA000030CB000030CC00A030CD00A9
:1013B6004030CE000A128A15AA260A128A1583120E
:1013C6000313400883178000840A41088000840ABA
:1013D600420880000330E2006208F000831603131F
:1013E60030080A168A1179220A128A15903E84005C
:1013F60083170008F400840A0008F500840A000830
:10140600F600831603133B08F7003C08F8003D0876
:10141600F9000A168A118E240A128A15031C132A49
:101426000A128A15622B8C1E3F2A0A168A118A22F4
:101436000A128A15D03E83120313C000FF30031828
:101446000030C100E830C2000330C3000A168A111A
:1014560093230A128A158312031341088316031372
:10146600D901D90783120313400883160313D80141
:10147600D807831203138C120A128A110B1DCE2F62
:10148600EE300A168A1138220A128A15013083169E
:1014960003134D02F33003194C0203185E2A013080
:1014A600CC070318CD0A0030CD07831203130617A5
:1014B6000A128A11CD2F83160313CC01CD01831294
:1014C60003130F0883160313D301D30783120313E1
:1014D6000E0883160313D201D2070730F00000303E
:1014E600F1005308F301F3075208F201F2070A1656
:1014F6008A11B8230A128A15710883120313C101CF
:10150600C1077008C001C0077830C2000030C300B0
:101516000A168A1193230A128A15831203134108A5
:1015260083160313D701D7078312031340088316C4
:101536000313D601D607831203138E018F01831678
:1015460003135708C101C1075608C001C0070A3076
:10155600F0000030F1004108F301F3074008F20102
:10156600F2070A168A11412470080A168A11722F88
:10157600303E0A168A113E220A128A150A300A16C7
:101586008A113E220A128A15831603135108CF01C7
:10159600CF075008CE01CE07003083120313A900EF
:1015A600FA30AA004430AB0083160313560983129F
:1015B6000313E20083160313570983120313E30090
:1015C600E20A0319E30A8316031358088312031366
:1015D6006207F0008316031359080318590A831289
:1015E60003136307F1000A168A116B220A128A1581
:1015F6007108F901F9077008F801F8070A168A1147
:101606002D230A128A15780883120313A600790877
:10161600A7007A08A8000A168A110F230A128A154B
:10162600831203132608B2002708B3002808B40063
:101636000A128A1560200A128A15831203133308C8
:1016460083160313D101D1078312031332088316BD
:101656000313D001D007003083120313AF0080308C
:10166600B0003F30B1000030A9007A30AA00443003
:10167600AB00831603134E0983120313E20083168D
:1016860003134F0983120313E300E20A0319E30A63
:10169600831603135008831203136207F0008316A0
:1016A600031351080318510A831203136307F10049
:1016B6000A168A116B2271080A168A11582E7E2B79
:1016C600033083120313E2006208F000831603134B
:1016D60030080A168A1179220A128A15903E840069
:1016E600831603133B0883178000840A3C08800096
:1016F600840A3D088000003083120313A300803063
:10170600A4003F30A5008316031342088312031377
:10171600A60083160313430883120313A700831638
:101726000313440883120313A8000A128A15A1257D
:101736000A128A1583120313230883160313C200A1
:1017460083120313240883160313C300831203139F
:10175600250883160313C4000130B0070318B10A25
:101766000030B1073108803AFF0080307F02031D48
:10177600BE2B10303002031C102C831603135108A5
:10178600803AFF0080307F02031DCB2B643050026D
:10179600031C132C831603135108803AFF00833071
:1017A6007F02031DD82BEA3050020318132C831630
:1017B60003132C08803AFF0080307F02031DE52BBF
:1017C600C9302B020318132C003083120313CC00EC
:1017D6004830CD004330CE000030C9008030CA000A
:1017E6003F30CB000030C6000030C7000030C800D4
:1017F6000030C3008030C400BF30C5008316031319
:101806002C08F901F9072B08F801F8070A168A11BE
:101816002D2378080A168A11D22D0A128A11DB2F77
:101826000A128A114329831203133308B6003408B7
:10183600B7003508B8000310370D380DB900390860
:10184600BE00BE08031D2E2C0030B0000030B100D3
:101856000030B20008003008B6003108B700320880
:10186600B8000310370D380DB9003908BF00BF089E
:10187600031D442C0030B0000030B1000030B2002F
:1018860008000030BB000030BC000030BD008930CD
:101896003F07B6003608BE023308B6003408B70064
:1018A6003508B80010300310B80CB70CB60CFF3E64
:1018B600031D562C3608B9003908BF003008B6009B
:1018C6003108B7003208B80010300310B80CB70C56
:1018D600B60CFF3E031D682C3608B9003908BF0652
:1018E6008030B6003608BF05B417FF30B305FF30A9
:1018F600B4050030B505B117FF30B005FF30B105AE
:101906000030B2051830B6003608BA0001300310B0
:10191600BB0DBC0DBD0DFF3E031D8A2C32083502E2
:10192600031D9B2C31083402031D9B2C3008330207
:10193600031CA82C3008B3023108031C310FB40273
:101946003208031C320AB5023B1401300310B30DF2
:10195600B40DB50DFF3E031DA92C0130BA02031DBF
:10196600892C3B08F0003C08F1003D08F2003E08D7
:10197600B6003608F3003F08B7003708F4000A1629
:101986008A11EF24700883120313B0007108B100A6
:101996007208B2000800831203135208D8005308D5
:1019A600D9005408DA000310590D5A0DDB005B0804
:1019B600DC00DC08031DE62C0030D2000030D3002A
:1019C6000030D40008005508D8005608D90057083A
:1019D600DA000310590D5A0DDB005B08E100E1083F
:1019E600031DFC2C0030D2000030D3000030D400A0
:1019F600080061087B3ED8005808DC075208D8006A
:101A06005308D9005408DA0010300310DA0CD90C48
:101A1600D80CFF3E031D082D5808DB005B08E100CB
:101A26005508D8005608D9005708DA0010300310B8
:101A3600DA0CD90CD80CFF3E031D1A2D5808DB0012
:101A46005B08E1068030D8005808E105D317D617A1
:101A5600FF30D505FF30D6050030D7050030DD0054
:101A66000030DE000030DF000730D8005808E00004
:101A7600521C4B2D5508DD07560803110318560A4C
:101A8600031DDE07570803110318570A031DDF0756
:101A960001300310D40CD30CD20CFF3E031D4C2D89
:101AA60001300310D50DD60DD70DFF3E031D542D65
:101AB6000130E002031D3B2D0930D8005808E00034
:101AC600521C732D5508DD07560803110318560AD4
:101AD600031DDE07570803110318570A031DDF0706
:101AE60001300310D40CD30CD20CFF3E031D742D11
:101AF60001300310DF0CDE0CDD0CFF3E031D7C2DD8
:101B06000130E002031D632D5D08F0005E08F10060
:101B16005F08F2005C08D8005808F3006108D90095
:101B26005908F4000A168A11EF2470088312031369
:101B3600D2007108D3007208D40008008312031380
:101B46002308A9002408AA002508AB0003102A0DC3
:101B56002B0DAC002C08AF002608A9002708AA0008
:101B66002808AB0003102A0D2B0DAC002C08AE0084
:101B76002F080319CA2D2E082F020318D12D2F0363
:101B8600FF3A2E07A90019302902031CD12D260879
:101B9600A3002708A4002808A50008002E0803199A
:101BA60008002F082E020318E02D2E03FF3A2F07F8
:101BB600A90019302902031808000630A9002908CF
:101BC600AD00A51BAD17A81B2D17A417FF30A30545
:101BD600FF30A4050030A505A717FF30A605FF3086
:101BE600A7050030A8052E082F020318202E013065
:101BF6000310A60DA70DA80DFF3E031DFB2D0130FA
:101C0600AE022E082F0603191B2E0130AD022D0839
:101C1600073903191B2EFA2D01300310A50CA40C4D
:101C2600A30CFF3E031D102E0130A9002908AF07A3
:101C36002F082E060319492E0F2E2F082E020318E1
:101C4600492E01300310A30DA40DA50DFF3E031D63
:101C5600252E0130AF022E082F060319452E01301E
:101C6600AD022D0807390319452E242E0130031025
:101C7600A80CA70CA60CFF3E031D3A2E0130A900A6
:101C86002908AE072F082E06031D392EAD1F5B2E21
:101C9600FF30A306FF30A406FF30A5060130A307D8
:101CA600003003180130A407003003180130A507DF
:101CB6002D1F6D2EFF30A606FF30A706FF30A806A3
:101CC6000130A607003003180130A70700300318BB
:101CD6000130A807AD012308A6072408031103183D
:101CE600240A031DA707250803110318250A031D47
:101CF600A807A81F902EFF30A606FF30A706FF30C4
:101D0600A8060130A607003003180130A7070030E7
:101D160003180130A807AD01AD0A2608F000270810
:101D2600F1002808F2002F08A9002908F3002D0861
:101D3600AA002A08F4000A168A11EF2470088312F2
:101D46000313A3007108A4007208A5000800003060
:101D560083120313CF000030D0000030D1004308B7
:101D6600F4004408F5004508F6004008F70041086D
:101D7600F8004208F9000A168A118E240A128A15FA
:101D86000318EF2F831203134308F4004408F500E9
:101D96004508F6004008F7004108F8004208F90037
:101DA6000A168A118E240A128A150318232F831203
:101DB60003134608F4004708F5004808F6004008F3
:101DC600F7004108F8004208F9000A168A118E2425
:101DD6000A128A15031C232F831203134608A30035
:101DE6004708A4004808A5004308A0004408A1002D
:101DF6004508A2000A168A1156220A128A1583126B
:101E060003132008A6002108A7002208A8000A122A
:101E16008A15A1250A128A15831203132308B00016
:101E26002408B1002508B2004008A3004108A40018
:101E36004208A5004308A0004408A1004508B22FA7
:101E4600831203134008F4004108F5004208F60027
:101E56004608F7004708F8004808F9000A168A11EC
:101E66008E240A128A15031C552F83120313490860
:101E7600F4004A08F5004B08F6004008F700410850
:101E8600F8004208F9000A168A118E240A128A15E9
:101E9600031C552F003083120313CF008030D0006F
:101EA6003F30F62F831203134908F4004A08F50061
:101EB6004B08F6004008F7004108F8004208F90010
:101EC6000A168A118E240A128A150318DA2F83122B
:101ED60003134C08F4004D08F5004E08F6004008C0
:101EE600F7004108F8004208F9000A168A118E2404
:101EF6000A128A15031CDA2F831203134C08A30057
:101F06004D08A4004E08A5004908A0004A08A100F3
:101F16004B08A2000A168A1156220A128A15831243
:101F260003132008A6002108A7002208A8000A1209
:101F36008A15A1250A128A15831203132308B000F5
:101F46002408B1002508B2004C08A3004D08A400DF
:101F56004E08A5004008A0004108A1004208A200C2
:101F66000A168A1156220A128A15831203132008AA
:101F7600A6002108A7002208A8000A128A15A12592
:101F86000A128A15831203132308B3002408B40027
:101F96002508B5000A128A1516240A128A15831214
:101FA60003133008CF003108D0003208F62F831211
:101FB60003134C08F4004D08F5004E08F6004008DF
:101FC600F7004108F8004208F9000A168A118E2423
:101FD6000A128A150318F72F003083120313CF0055
:101FE6000030D0000030D100831203134F08C00028
:101FF6005008C1005108C200080010308A000408C9
:10200600840A820700340A340D3420342D342D34EA
:102016002D342D342D342D342D3420344534533481
:1020260054344F34553452344F34203444344534C8
:102036002034503449344C344834413420342D341F
:102046002D342D342D342D342D342D3420340A34B2
:062056000D3420340034BB
:10247000F00070088312031381000800F00083123B
:1024800003130C1E3F2A70089900080083160317D7
:10249000C00040088312031381000800640080011B
:1024A000840A04060319003404064F2A8312031316
:1024B000220821042004031908008030A206080025
:1024C0008316031381120112811101158114011465
:1024D0000B118B160800F11F08007009F20071093A
:1024E000F300F20A0319F30A7208F0007308F1000E
:1024F0000800F300F201731C812A7008F1007108D2
:10250000F2070310F00D0310F30CF308031D7B2AF0
:1025100072080800831203139818932A1A08F3000C
:102520007308F4009F2A01300A168A11D5228312FB
:10253000031318121A08F3007308F40018168C120B
:1025400074080800831203134608F0004708F100DE
:10255000F2018E30C9004908F300F4010A168A110D
:10256000EF24700883120313C6007108C7007208B5
:10257000C80008007108F3007008F200730DF30C36
:10258000F20C730DF30CF20C7208831203139B0010
:102590007008F20003300310F20DFF3E031DCB2A3A
:1025A0000310720D0C389D000800F20072088400C0
:1025B0000A168A1100200A168A1100380319080029
:1025C000720884000A168A1100200A168A110A1657
:1025D0008A113E220A168A110130F1007108F207B1
:1025E000D62A831203132F08F4003008F5003108AF
:1025F000F6002C08F7002D08F8002E08F9000A163E
:102600008A118E240A168A11031C080083120313F0
:102610002F08AC003008AD003108AE00080083126E
:1026200003132608F4002708F5002808F6002908F7
:10263000F7002A08F8002B08F9000A168A118E24E0
:102640000A168A11031C0800831203132908A60026
:102650002A08A7002B08A8000800FD01F91F372B46
:10266000F809F909F80A0319F90AFD01FD0A7808C1
:10267000F0007908F100F2018E30FB007B08F300D6
:102680007D08FC007C08F4000A168A11EF2470080B
:10269000F8007108F9007208FA00080083160317A1
:1026A0004108C3004008C200430DC30CC20C430DD7
:1026B000C30CC20C42088312031395008316031740
:1026C0004008C20003300310C20DFF3E031D632B00
:1026D0000310420D0C388312031397000800831275
:1026E0000313921412101213921212129211121555
:1026F000FF308316031392008312031397151715E7
:1027000097141714831603130C15831203130C115B
:102710009D151D159D141D14831603130D1483128E
:1027200003130D10080083120313C401C501401CDC
:102730009F2B4208C4070318C50A4308C507013088
:102740000310C20DC30DFF3E031DA02B013003106B
:10275000C10CC00CFF3E031DA72B41084004031D04
:10276000972B4508C101C1074408C001C0070800F4
:10277000F501F601710870040319EF2BF701F70A50
:10278000F11BCE2B01300310F00DF10DFF3E031DA8
:10279000C32B0130F4007408F707C02B013003107D
:1027A000F50DF60DFF3E031DCF2B71087302031DBF
:1027B000DB2B70087202031CE42B7008F202710814
:1027C000031CF303F302751401300310F10CF00C39
:1027D000FF3E031DE52B0130F702031DCE2B7608CB
:1027E000F101F1077508F001F007080083160317DF
:1027F0004F08D3005008D4005108D5005208D60025
:1028000004300310D30DD40DD50DD60DFF3E031D9E
:10281000012C5608C3005508C2005408C1005308D3
:10282000C0000130C7001930C6004030C50000307C
:10283000C4000A128A15EE20831603174008FF3ED3
:102840008316031399009813181398161812181565
:102850009814181083120313981718139812181647
:102860009811181198101810831603130C12831264
:1028700003130C12831603138C16831203138C128A
:102880000800F601F31F4B2CF209F309F20A0319B1
:10289000F30AF601F60AF11F522CF009F109F00AC9
:1028A0000319F10A7108700403197F2CF501F50A68
:1028B000F11B662C01300310F00DF10DFF3E031DDE
:1028C0005B2C0130F4007408F507582C7108730272
:1028D000031D6C2C70087202031C742C7008F20229
:1028E0007108031CF303F30201300310F10CF00C28
:1028F000FF3E031D752C0130F502031D662C760882
:102900000319872CF209F309F20A0319F30A730871
:10291000F101F1077208F001F0070800F61FB72C6B
:10292000003083120313A0000030A1008030A20009
:102930007409A3007509A4007609A500A30A031968
:10294000A40A0319A50A2308A00724080318240FC2
:10295000AA2CAB2CA10725080318250FB02CB12CED
:10296000A2072008F4002108F5002208F600F91F4C
:10297000E02C003083120313A0000030A10080304F
:10298000A2007709A3007809A4007909A500A30A89
:102990000319A40A0319A50A2308A0072408031889
:1029A000240FD32CD42CA10725080318250FD92CCC
:1029B000DA2CA2072008F7002108F8002208F90005
:1029C0008030F6068030F90679087602031D08008B
:1029D00078087502031D0800770874020800730860
:1029E0000319F72C720871047004031D0A2D0030BE
:1029F000F0000030F1000030F20008000130F50076
:102A00007508F30701300310F20CF10CF00CFF3ED7
:102A1000031D032DFE3072050319252DFE2C0130F8
:102A2000F5007508F3070130F00700300318013096
:102A3000F107003003180130F20701300310F20CE7
:102A4000F10CF00CFF3E031D1E2DFF307205031923
:102A5000342D0F2D0130F30201300310F00DF10D74
:102A6000F20DFF3E031D2D2DF11F2A2D73183E2D53
:102A7000FF30F0057F30F105FF30F2050310F30C55
:102A80007308F500F601F70110300310F50DF60D8F
:102A9000F70DFF3E031D452D7508F0047608F1047F
:102AA0007708F204740803190800F21708000130CF
:102AB00083160313850001308312031385008316E8
:102AC00003138601831203138601813083160313D7
:102AD0008700C03083120313870083160313880115
:102AE00083120313880183160313890183120313CE
:102AF0008901033090008E018F0100308316031787
:102B0000D2000130D100C230D0000030CF000A1610
:102B10008A11F6230A168A110A168A1160220A16E9
:102B20008A110A168A116F230A168A110B178B173E
:102B3000003083160317C0000030C1000A168A1146
:102B40004E230A168A11003083160317C000003086
:102B5000C1000A128A11DE270A168A11EE300A16FF
:102B60008A1146220A168A11183083160317D900D3
:102B70006130D8006E30D700D70BBC2DD80BBC2DE0
:102B8000D90BBC2D0000053083160317D900AD30DA
:102B9000D800E030D700D70BCB2DD80BCB2DD90BDD
:102BA000CB2DC32D83120313C0007908C1007A080E
:102BB000C2000A128A15AA260A168A118312031362
:102BC000400883160313A0008312031341088316E1
:102BD0000313A10083120313420883160313A200F8
:102BE000C03083120313CC00C130CD004430CE007E
:102BF0000030C9004830CA004430CB000030C60065
:102C00004830C7004430C8000030C3004830C4001A
:102C10004230C500831603135108F901F907500823
:102C2000F801F8070A168A112D230A168A11780866
:102C300083120313C0007908C1007A08C2000A1287
:102C40008A15AA260A168A11831203134008D20095
:102C50004108D3004208D4000030A3008030A40013
:102C60003F30A50083160313200883120313A0002E
:102C700083160313210883120313A1008316031381
:102C8000220883120313A2000A168A1156220A167A
:102C90008A11831203132008A6002108A700220826
:102CA000A8000A128A15A12583120A128A11452842
:102CB000F901F9077008F801F8070A168A112D239F
:102CC0000A168A11780883120313A6007908A70050
:102CD0007A08A8000A168A110F230A168A1183128D
:102CE00003132608AC002708AD002808AE000A161A
:102CF0008A11F1220A168A11831203132C08B200DA
:102D00002D08B3002E08B4000A128A1560200A1696
:102D10008A1183120313330883160313AC01AC0723
:102D200083120313320883160313AB01AB07003081
:102D3000C2000030C3000030C4000030BB000030CF
:102D4000BC000030BD005108803AFF0080307F0297
:102D5000031DAC2E653050020A128A150318C02BD1
:102D6000831603135108F901F9075008F801F80711
:102D70000A168A112D230A168A1178088312031362
:102D8000C0007908C1007A08C2000030C30080305A
:102D9000C400BF30C5000030C6000030C70000309E
:102DA000C8000030C9008030CA003F30CB0000307E
:102DB000CC00C830CD004230CE000A128A15AA26B7
:102DC00083120A128A157D29303E0A168A113E2284
:102DD0000A168A110A30F0000030F100831603133E
:102DE0004108F301F3074008F201F2070A128A15BD
:102DF00005200A168A11710883160313C101C10741
:102E00007008C001C0070A30F0000030F10041082E
:102E1000F301F3074008F201F2070A168A11412470
:102E20000A168A117008303E0A168A113E220A16C6
:102E30008A110A30F0000030F100831603134108B4
:102E4000F301F3074008F201F2070A128A15052080
:102E50000A168A11710883160313C101C10770088D
:102E6000C001C0070A30F0000030F1004108F30152
:102E7000F3074008F201F2070A168A1141240A16E4
:102E80008A117008303E0A168A113E220A168A11EB
:102E90000A30F0000030F100831603134108F301FB
:102EA000F3074008F201F2070A128A1505200A16F4
:102EB0008A11710883160313C101C1077008C0018C
:102EC000C0070A30F0000030F1004108F301F307B9
:102ED0004008F201F2070A168A11412470080A120A
:102EE0008A15BB2A303E0A168A113E220A168A111A
:102EF0000A30F0000030F100831603134108F3019B
:102F0000F3074008F201F2070A128A1505200A1693
:102F10008A11710883160313C101C1077008C0012B
:102F2000C0070A30F0000030F1004108F301F30758
:102F30004008F201F2070A168A1141240A168A1182
:102F40007008303E0A168A113E220A168A110A308B
:102F5000F0000030F100831603134108F301F3077A
:102F60004008F201F2070A128A1505200A168A1192
:102F7000710883160313C101C1077008C001C0079F
:102F80000A30F0000030F1004108F301F307400877
:102F9000F201F2070A168A1141240A168A117008F2
:102FA000303E0A168A113E220A168A110A30F000B3
:102FB0000030F100831603134108F301F3074008C2
:102FC000F201F2070A128A1505200A168A11710801
:102FD00083160313C101C1077008C001C0070A307E
:102FE000F0000030F1004108F301F3074008F2015E
:102FF000F2070A168A11412470080A168A11E42E73
:02400E0032FF7F
:00000001FF
