:060000000A128A11122809
:10000800FE00030E83120313E4000408E5000A0847
:10001800E6007F08E7000A128A151C290A128A11CD
:100028001528E801E901EA01EB01EC01ED01831370
:10003800C8308400E5300A128A1500200A128A1195
:10004800831790308400C0300A128A1500200A12E3
:100058008A111030840070300A128A1500200A12A2
:100068008A11831603130A168A1140200A128A116C
:10007800E5000A168A1141200A128A11E600831245
:1000880003130A128A11FD270A128A11EE000A12B6
:100098008A11FE27EF0083010A128A15AA2C03137E
:1000A8002308D5002408D6002508D7000A128A1587
:1000B800D7230A128A1183120313520883160313D3
:1000C800C00083120313530883160313C10083125D
:1000D8000313540883160313C2000030C500003010
:1000E800C6000030C700B701B8013808803AFF00E1
:1000F80080307F02031D82281030370203185129EF
:10010800033083120313E2006208F000831603131E
:1001180037080A128A11EC270A128A11903E8400C5
:1001280083160313450883120313C00083160313B1
:10013800460883120313C10083160313470883126A
:100148000313C2000030C3000030C4004030C500B3
:100158000030C600A030C7004030C8000030C900D9
:10016800A030CA004030CB000030CC002030CD0099
:100178004130CE000A128A15AA260A128A11831261
:100188000313400883178000840A41088000840A0A
:10019800420880000330E2006208F000831603136F
:1001A80037080A128A11EC270A128A11903E840035
:1001B80083170008F400840A0008F500840A000880
:1001C800F600831603134008F7004108F8004208B8
:1001D800F9000A168A11F0230A128A11031C0F2942
:1001E800033083120313E2006208F000831603133E
:1001F80037080A128A11EC270A128A11903E8400E5
:1002080083160313400883178000840A410880007E
:10021800840A42088000003083120313A300803050
:10022800A4003F30A5008316031345088312031367
:10023800A60083160313460883120313A700831628
:100248000313470883120313A8000A128A15A1256D
:100258000A128A1183120313230883160313C50095
:1002680083120313240883160313C600831203138F
:10027800250883160313C7000130B7070318B80A07
:100288000030B8073808803AFF0080307F02031D2D
:100298004F2910303702031C8428831603135B0888
:1002A800803AFF0080307F02031D5C2964305A02C7
:1002B800031CE52A831603135B08803AFF0083308A
:1002C8007F02031D6929EA305A020318E52A8316BA
:1002D80003133108803AFF0080307F02031D76291E
:1002E800C9303002031CE52A203083120313CC00E6
:1002F800FA30CD004430CE000030C900FA30CA00D0
:100308004430CB000030C600FA30C7004330C80084
:100318000030C3004830C4004330C50083160313BF
:100328003108F901F9073008F801F8070A168A11A7
:1003380090210A128A11780883120313C0007908E1
:10034800C1007A08C2000A128A15AA260A128A115E
:10035800831203134008D2004108D3004208D40096
:10036800C030CC00C130CD004430CE000030C900D0
:100378004830CA004430CB000030C6004830C700BF
:100388004430C8000030C3004830C4004230C500C3
:10039800831603135B08F901F9075A08F801F807EF
:1003A8000A168A1190210A128A11780883120313F7
:1003B800C0007908C1007A08C2000A128A15AA2664
:1003C8000A128A11831203134008D5004108D60087
:1003D8004208D7000A128A15D7230A128A118312F3
:1003E8000313520883160313C00083120313530820
:1003F80083160313C10083120313540883160313CF
:10040800C2000030C5000030C6000030C700B90186
:10041800BA013A08803AFF0080307F02031D162A8D
:10042800103039020318E52A033083120313E2005F
:100438006208F0008316031339080A128A11EC27A0
:100448000A128A11403E840083160313450883125A
:100458000313C00083160313460883120313C10055
:1004680083160313470883120313C2000030C30026
:100478000030C4004030C5000030C600A030C700BE
:100488004030C8000030C900A030CA004030CB005E
:100498000030CC002030CD004130CE000A128A1541
:1004A800AA260A128A1183120313400883178000B0
:1004B800840A41088000840A420880000330E20070
:1004C8006208F0008316031339080A128A11EC2710
:1004D8000A128A11403E840083170008F400840A37
:1004E8000008F500840A0008F60083160313400884
:1004F800F7004108F8004208F9000A168A11F023AB
:100508000A128A11031CA32A033083120313E20080
:100518006208F0008316031339080A128A11EC27BF
:100528000A128A11403E8400831603134008831779
:100538008000840A41088000840A42088000003054
:1005480083120313A3008030A4003F30A500831654
:100558000313450883120313A600831603134608E2
:1005680083120313A7008316031347088312031388
:10057800A8000A128A15A1250A128A1183120313E8
:10058800230883160313C500831203132408831654
:100598000313C60083120313250883160313C70029
:1005A8000130B9070318BA0A0030BA073A08803A86
:1005B800FF0080307F02031DE32A10303902031C3C
:1005C800182A831603135B08803AFF0083307F02E2
:1005D800031DF02AE9305A02031C162C8316031354
:1005E8005B08F901F9075A08F801F8070A168A1191
:1005F80090210A128A11780883120313C00079081F
:10060800C1007A08C2004030C3007A30C4004430C8
:10061800C5008030C600BB30C7004430C800003079
:10062800C900FA30CA004430CB002030CC00FA3080
:10063800CD004430CE000A128A15AA260A128A1161
:1006480083120313400883160313C0008312031395
:10065800410883160313C10083120313420883164B
:100668000313C2000030C5000030C6000030C700C8
:10067800BB01BC013C08803AFF0080307F02031DAB
:10068800472B10303B020318162C03308312031338
:10069800E2006208F000831603133B080A128A116D
:1006A800EC270A128A11103E8400831603134508AA
:1006B80083120313C000831603134608831203131F
:1006C800C10083160313470883120313C2000030C6
:1006D800C300A030C4004030C5000030C600203040
:1006E800C7004130C8000030C9007030CA0041302E
:1006F800CB000030CC008030CD004130CE000A1253
:100708008A15AA260A128A1183120313400883172E
:100718008000840A41088000840A4208800003306F
:10072800E2006208F000831603133B080A128A11DC
:10073800EC270A128A11103E840083170008F4007F
:10074800840A0008F500840A0008F60083160313DB
:100758004008F7004108F8004208F9000A168A1113
:10076800F0230A128A11031CD42B033083120313BB
:10077800E2006208F000831603133B080A128A118C
:10078800EC270A128A11103E8400831603134008CE
:1007980083178000840A41088000840A4208800088
:1007A800003083120313A3008030A4003F30A5005B
:1007B80083160313450883120313A6008316031335
:1007C800460883120313A7008316031347088312EE
:1007D8000313A8000A128A15A1250A128A11831286
:1007E8000313230883160313C50083120313240875
:1007F80083160313C60083120313250883160313F5
:10080800C7000130BB070318BC0A0030BC073C080E
:10081800803AFF0080307F02031D142C10303B0209
:10082800031C492B003083160313C5000030C60093
:100838000030C7000030BD000030BE000030BF00EF
:100848000030B2000030B3000030B400C301C4016E
:100858004408803AFF0080307F02031D352C103099
:1008680043020318B12E83160313C41BED2C44084E
:10087800803AFF0080307F02031D442C063043027B
:100888000318ED2C033083120313E2006208F00012
:100898008316031343080A128A11EC270A128A11D5
:1008A800903E84008317000883120313A300840A70
:1008B8000008A400840A0008A500831603133D0855
:1008C80083120313A600831603133E08831203132F
:1008D800A700831603133F0883120313A8000A1204
:1008E8008A15A1250A128A11831203132308831675
:1008F8000313BD0083120313240883160313BE00D9
:1009080083120313250883160313BF0003308312D1
:100918000313E2006208F0008316031343080A1267
:100928008A11EC270A128A11903E84008317000866
:1009380083120313D500840A0008D600840A00082D
:10094800D70083160313450883120313D2008316B6
:100958000313460883120313D300831603134708AF
:1009680083120313D4000A128A15D7230A128A1194
:10097800831203135208A3005308A4005408A500C7
:1009880083160313320883120313A6008316031376
:10099800330883120313A700831603133408831242
:1009A8000313A8000A128A15A1250A128A118312B4
:1009B8000313230883160313B200831203132408B6
:1009C80083160313B3008312031325088316031336
:1009D800B400831603134408803AFF0080307F0276
:1009E800031DF82C05304302031CAE2D8316031398
:1009F8004408803AFF0080307F02031D052D0B302C
:100A080043020318AE2D033083120313E200620879
:100A1800F0008316031343080A128A11EC270A12FE
:100A28008A11403E84008317000883120313A30031
:100A3800840A0008A400840A0008A500831603138A
:100A48003D0883120313A600831603133E0883127E
:100A58000313A700831603133F0883120313A80088
:100A68000A128A15A1250A128A1183120313230870
:100A780083160313BD00831203132408831603137C
:100A8800BE0083120313250883160313BF00033027
:100A980083120313E2006208F0008316031343086D
:100AA8000A128A11EC270A128A11403E8400831721
:100AB800000883120313D500840A0008D600840AAC
:100AC8000008D70083160313450883120313D200C6
:100AD80083160313460883120313D30083160313E4
:100AE800470883120313D4000A128A15D7230A125F
:100AF8008A11831203135208A3005308A400540850
:100B0800A50083160313320883120313A600831665
:100B18000313330883120313A7008316031334083F
:100B280083120313A8000A128A15A1250A128A1132
:100B380083120313230883160313B20083120313CB
:100B4800240883160313B30083120313250883169E
:100B58000313B400831603134408803AFF0080305F
:100B68007F02031DB92D0A304302031C6F2E831622
:100B780003134408803AFF0080307F02031DC62D0E
:100B88001030430203186F2E033083120313E20060
:100B98006208F0008316031343080A128A11EC272F
:100BA8000A128A11103E8400831700088312031367
:100BB800A300840A0008A400840A0008A50083167C
:100BC80003133D0883120313A600831603133E087C
:100BD80083120313A700831603133F08831203131A
:100BE800A8000A128A15A1250A128A118312031372
:100BF800230883160313BD008312031324088316E6
:100C08000313BE0083120313250883160313BF00C2
:100C1800033083120313E2006208F0008316031303
:100C280043080A128A11EC270A128A11103E84001E
:100C38008317000883120313D500840A0008D6001E
:100C4800840A0008D7008316031345088312031388
:100C5800D20083160313460883120313D3008316A6
:100C68000313470883120313D4000A128A15D723E3
:100C78000A128A11831203135208A3005308A4000E
:100C88005408A50083160313320883120313A60021
:100C980083160313330883120313A7008316031361
:100CA800340883120313A8000A128A15A1250A1210
:100CB8008A1183120313230883160313B2008312C5
:100CC8000313240883160313B300831203132508A0
:100CD80083160313B400003083120313A30080307B
:100CE800A4003F30A500831603134508831203139D
:100CF800A60083160313460883120313A70083165E
:100D08000313470883120313A8000A128A15A125A2
:100D18000A128A1183120313230883160313C500CA
:100D280083120313240883160313C60083120313C4
:100D3800250883160313C7000130C3070318C40A24
:100D48000030C4074408803AFF0080307F02031D4A
:100D5800AF2E10304302031C372C003083160313C8
:100D6800A8000030A9000030AA003F083E043D0456
:100D78000319F72E3D0883120313B00083160313DB
:100D88003E0883120313B100831603133F0883122E
:100D98000313B20083160313320883120313B3003C
:100DA80083160313330883120313B4008316031343
:100DB800340883120313B5000A128A151F230A1276
:100DC8008A1183120313300883160313A8008312B1
:100DD8000313310883160313A9008312031332087F
:100DE80083160313AA0066086302031DFD2E650817
:100DF8006202031C032FFF30AB00FF30062F0130C7
:100E0800AB000030AC002C0883120313C301C307E6
:100E1800831603132B0883120313C201C207831618
:100E280003135B08F901F9075A08F801F8070A16CD
:100E38008A1190210A128A11780883120313A900D3
:100E48007908AA007A08AB008316031328088312CE
:100E58000313A60083160313290883120313A7009C
:100E6800831603132A0883120313A8000A168A118B
:100E780032210A128A11831203132608B2002708A6
:100E8800B3002808B4000A168A1152260A128A11D9
:100E9800831203133308C101C1073208C001C00718
:100EA8000A168A1117220A128A11831603135E087A
:100EB800831203134007C600831603135F08031841
:100EC8005F0A831203134107C7000A168A11C52057
:100ED8000A128A1183120313460883160313A50006
:100EE80083120313470883160313A6008312031300
:100EF800480883160313A700003083120313AF00BA
:100F08000030B0000030B100C030A9007F30AA0026
:100F18004430AB0083160313250883120313A6007D
:100F280083160313260883120313A70083160313DB
:100F3800270883120313A8000A168A1132210A12FD
:100F48008A11831203132608AC002708AD0028086D
:100F5800AE000A168A1114210A128A118312031389
:100F68002C08B2002D08B3002E08B4000A168A1106
:100F780052260A128A1183120313330883160313A5
:100F8800DF01DF0783120313320883160313DE0120
:100F9800DE075F08F101F1075E08F001F0070A16A5
:100FA8008A11DD200A128A118312031306130B110A
:100FB8000C180C106708FF0066088A006508840092
:100FC800640E8300FE0E7E0E09000A128A15A928F7
:100FD800F300F201731CF42F7008F1007108F20796
:100FE8000310F00D0310F30CF308031DEE2F720825
:060FF800080058341B3410
:1010000064008001840A04060319003404060128E0
:10101000F11F08007009F2007109F300F20A0319C8
:10102000F30A7208F0007308F10008008316031336
:101030009F111F159F101F105A3083160317C300EE
:10104000C330C200C20B2228C30B222830300A163C
:101050008A117F200A128A15183083160317C300DD
:10106000EF30C200C20B3228C30B322830300A16D0
:101070008A117F200A128A15993083160317C2003D
:10108000C20B402830300A168A117F200A128A15B6
:101090003D3083160317C200C20B4C2838300A16A5
:1010A0008A117F200A128A153D3083160317C20069
:1010B000C20B582801300A168A117F200A128A159D
:1010C0000C3083160317C300F730C200C20B66282A
:1010D000C30B66280C300A168A117F200A128A1563
:1010E0003D3083160317C200C20B742806300A165F
:1010F0008A117F200A128A153D3083160317C20019
:10110000C20B802808000313400883160313C00095
:1011100083120313410883160313C10083120313C0
:10112000420883160313C2000030C5000030C60019
:101130000030C700B501B6013608803AFF008030A4
:101140007F02031DA528103035020A128A150318E4
:10115000C92A033083120313E2006208F0008316E9
:10116000031335080A128A11EC270A128A15903ED9
:10117000840083160313450883120313C0008316EB
:101180000313460883120313C10083160313470891
:1011900083120313C2000030C3008030C400BF308C
:1011A000C5000030C6000030C7000030C800003065
:1011B000C9000030CA000030CB000030CC00A030A5
:1011C000CD004030CE000A128A15AA260A128A15CE
:1011D00083120313400883178000840A41088000AB
:1011E000840A420880000330E2006208F00083169F
:1011F000031335080A128A11EC270A128A15903E49
:10120000840083170008F400840A0008F500840AAB
:101210000008F600831603134008F7004108F800A1
:101220004208F9000A168A11F0230A128A15031CD3
:1012300019290A128A156B2A0A168A118C1EAD2FDB
:101240000A168A11AD200A128A1583120313E200CE
:10125000620883160313AE002E08233A031D3329B8
:10126000E001E10139290130E0070318E10A00300B
:10127000E1072E0883120313E200831603136008AC
:10128000D13E84008312031362088313800006306A
:101290008316031360066104031D6129E001E10167
:1012A0005208413A031D64295308413A031D642939
:1012B0005408413A031D64290A168A113F250A126F
:1012C0008A150A168A11AA2F831603135108233A86
:1012D000031D61295208243A031D612953083A3A33
:1012E000031D6129AD01AF0106302F0203189029BB
:1012F0002F08D13E84008313000883120313E200F9
:10130000620883160313AD06013083120313E20053
:10131000620883160313AF0706302F02031C7829D7
:1013200057082D06031D612954084D3A0A168A11E3
:10133000031D7C2F550883120313E200E3016208AA
:10134000E300E201831603135608831203136207B6
:10135000C0000030031801306307C1002930C2000B
:101360000030C3000A168A11172283120A168A1146
:101370006F2F0313410883160313E301E30783125E
:101380000313400883160313E201E20783120313D9
:101390008E018F01831603136308A101A107620860
:1013A000A001A0075B08D901D9075A08D801D807BE
:1013B000003083120313A900FA30AA004430AB00B6
:1013C00083160313620983120313E20083160313C7
:1013D000630983120313E300E20A0319E30A831685
:1013E00003136508831203136207F00083160313C7
:1013F00066080318660A831203136307F1000A12D2
:101400008A1508200A128A157108F901F90770086F
:10141000F801F8070A168A1190210A128A1578082D
:1014200083120313A6007908A7007A08A8000A16F9
:101430008A1132210A128A15831203132608B20078
:101440002708B3002808B4000A168A1152260A1287
:101450008A1583120313330883160313DB01DB079A
:1014600083120313320883160313DA01DA070030FC
:1014700083120313AF008030B0003F30B100003062
:10148000A9007A30AA004430AB0083160313580930
:1014900083120313E2008316031359098312031303
:1014A000E300E20A0319E30A831603135A088312BE
:1014B00003136207F000831603135B0803185B0A2B
:1014C000831203136307F1000A128A1508207108BA
:1014D0000A168A11C62D872A033083120313E200ED
:1014E0006208F0008316031335080A128A11EC27EC
:1014F0000A128A15903E840083160313400883174E
:101500008000840A41088000840A4208800000307C
:1015100083120313A3008030A4003F30A50083167C
:101520000313450883120313A6008316031346080A
:1015300083120313A70083160313470883120313B0
:10154000A8000A128A15A1250A128A15831203130C
:10155000230883160313C50083120313240883167C
:101560000313C60083120313250883160313C70051
:101570000130B5070318B60A0030B6073608803ABE
:10158000FF0080307F02031DC72A10303502031C84
:10159000192B831603135B08803AFF0080307F020B
:1015A000031DD42A64305A02031C1C2B8316031318
:1015B0005B08803AFF0083307F02031DE12AEA3096
:1015C0005A0203181C2B831603133108803AFF00BC
:1015D00080307F02031DEE2AC930300203181C2B15
:1015E000003083120313CC004830CD004330CE00CE
:1015F0000030C9008030CA003F30CB000030C60048
:101600000030C7000030C8000030C3008030C40084
:10161000BF30C500831603133108F901F9073008FC
:10162000F801F8070A168A11902178080A168A111B
:10163000B92C0A128A11E92F0A128A115129831230
:1016400003133308B6003408B7003508B800031098
:10165000370D380DB9003908BE00BE08031D372B01
:101660000030B0000030B1000030B2000800300897
:10167000B6003108B7003208B8000310370D380D36
:10168000B9003908BF00BF08031D4D2B0030B00062
:101690000030B1000030B20008000030BB00003064
:1016A000BC000030BD0089303F07B6003608BE02DE
:1016B0003308B6003408B7003508B80010300310FE
:1016C000B80CB70CB60CFF3E031D5F2B3608B900F3
:1016D0003908BF003008B6003108B7003208B8003A
:1016E00010300310B80CB70CB60CFF3E031D712B65
:1016F0003608B9003908BF068030B6003608BF0585
:10170000B417FF30B305FF30B4050030B505B1178D
:10171000FF30B005FF30B1050030B2051830B6001B
:101720003608BA0001300310BB0DBC0DBD0DFF3EE5
:10173000031D932B32083502031DA42B31083402FC
:10174000031DA42B30083302031CB12B3008B30255
:101750003108031C310FB4023208031C320AB502EF
:101760003B1401300310B30DB40DB50DFF3E031D46
:10177000B22B0130BA02031D922B3B08F0003C084B
:10178000F1003D08F2003E08B6003608F3003F08BD
:10179000B7003708F4000A168A1151247008831222
:1017A0000313B0007108B1007208B2000800831280
:1017B00003135208D8005308D9005408DA00031064
:1017C000590D5A0DDB005B08DC00DC08031DEF2B14
:1017D0000030D2000030D3000030D400080055089B
:1017E000D8005608D9005708DA000310590D5A0DD1
:1017F000DB005B08E100E108031D052C0030D2008E
:101800000030D3000030D400080061087B3ED800CF
:101810005808DC075208D8005308D9005408DA00E9
:1018200010300310DA0CD90CD80CFF3E031D112C1C
:101830005808DB005B08E1005508D8005608D900BD
:101840005708DA0010300310DA0CD90CD80CFF3E20
:10185000031D232C5808DB005B08E1068030D8000C
:101860005808E105D317D617FF30D505FF30D60548
:101870000030D7050030DD000030DE000030DF0032
:101880000730D8005808E000521C542C5508DD07DA
:10189000560803110318560A031DDE0757080311E3
:1018A0000318570A031DDF0701300310D40CD30CB3
:1018B000D20CFF3E031D552C01300310D50DD60D63
:1018C000D70DFF3E031D5D2C0130E002031D442CAB
:1018D0000930D8005808E000521C7C2C5508DD0760
:1018E000560803110318560A031DDE075708031193
:1018F0000318570A031DDF0701300310D40CD30C63
:10190000D20CFF3E031D7D2C01300310DF0CDE0CDA
:10191000DD0CFF3E031D852C0130E002031D6C2C05
:101920005D08F0005E08F1005F08F2005C08D80076
:101930005808F3006108D9005908F4000A168A1102
:101940005124700883120313D2007108D300720867
:10195000D400080001308316031385000130831280
:10196000031385000F3083160313860083120313BD
:1019700086018130831603138700C030831203135E
:1019800087008316031388018312031388018316CB
:1019900003138901831203138901033090008E0120
:1019A0008F01003083160317D2000130D100C230FE
:1019B000D0000030CF000A168A11A5230A128A151A
:1019C0000A168A1174200A128A150A168A11F3213E
:1019D0000A128A150A128A1516200A128A150B177E
:1019E0008B17003083160317C0000030C1000A16A1
:1019F0008A11B1210A128A15643083160317C000B8
:101A00000030C1000A168A11D2210A128A15EE305E
:101A10000A168A1150200A128A15183083160317E5
:101A2000D9006130D8006E30D700D70B152DD80BF8
:101A3000152DD90B152D0000831203130618272D21
:101A4000061C202D0A168A1161200A128A1583129B
:101A500003138618402D861C2B2D78308316031710
:101A6000D800AF30D700D70B332DD80B332D8312CE
:101A70000313861C372D0A168A11DD220A128A15D5
:101A8000831203130619592D061D442D7830831631
:101A90000317D800AF30D700D70B4C2DD80B4C2DE7
:101AA00083120313061D502D0A168A115E230A1293
:101AB0008A15831203138619742D861D5D2D7830C7
:101AC00083160317D800AF30D700D70B652DD80B7E
:101AD000652D831603136408FD3983160317D70099
:101AE000570883160313E4000A168A113C220A12CF
:101AF0008A1583160317C00100300A168A11502177
:101B00000A128A1583160313641C8C2DE41C8A2D7B
:101B100033308D2D2E308D2D29300A168A117021EB
:101B20000A128A15053083160317D900AD30D80084
:101B3000E030D700D70B9A2DD80B9A2DD90B9A2DC0
:101B40001C2D831203132308A9002408AA002508CA
:101B5000AB0003102A0D2B0DAC002C08AF0026089B
:101B6000A9002708AA002808AB0003102A0D2B0D96
:101B7000AC002C08AE002F080319CA2D2E082F0226
:101B80000318D12D2F03FF3A2E07A900193029027F
:101B9000031CD12D2608A3002708A4002808A500AF
:101BA00008002E08031908002F082E020318E02D44
:101BB0002E03FF3A2F07A900193029020318080045
:101BC0000630A9002908AD00A51BAD17A81B2D17CD
:101BD000A417FF30A305FF30A4050030A505A71703
:101BE000FF30A605FF30A7050030A8052E082F02FC
:101BF0000318202E01300310A60DA70DA80DFF3EDF
:101C0000031DFB2D0130AE022E082F0603191B2EDB
:101C10000130AD022D08073903191B2EFA2D0130B2
:101C20000310A50CA40CA30CFF3E031D102E0130C5
:101C3000A9002908AF072F082E060319492E0F2ED9
:101C40002F082E020318492E01300310A30DA40DF6
:101C5000A50DFF3E031D252E0130AF022E082F06D5
:101C60000319452E0130AD022D0807390319452E01
:101C7000242E01300310A80CA70CA60CFF3E031D58
:101C80003A2E0130A9002908AE072F082E06031DA1
:101C9000392EAD1F5B2EFF30A306FF30A406FF30A8
:101CA000A5060130A307003003180130A407003057
:101CB00003180130A5072D1F6D2EFF30A606FF303B
:101CC000A706FF30A8060130A60700300318013030
:101CD000A707003003180130A807AD012308A607A5
:101CE000240803110318240A031DA707250803115C
:101CF0000318250A031DA807A81F902EFF30A6066B
:101D0000FF30A706FF30A8060130A60700300318F1
:101D10000130A707003003180130A807AD01AD0A54
:101D20002608F0002708F1002808F2002F08A90073
:101D30002908F3002D08AA002A08F4000A168A11BF
:101D40005124700883120313A3007108A4007208C1
:101D5000A5000800003083120313CF000030D0002C
:101D60000030D1004308F4004408F5004508F600AF
:101D70004008F7004108F8004208F9000A168A11E5
:101D8000F0230A128A150318EF2F83120313430856
:101D9000F4004408F5004508F6004008F700410843
:101DA000F8004208F9000A168A11F0230A128A156F
:101DB0000318232F831203134608F4004708F50085
:101DC0004808F6004008F7004108F8004208F9000A
:101DD0000A168A11F0230A128A15031C232F831274
:101DE00003134608A3004708A4004808A5004308B9
:101DF000A0004408A1004508A2000A168A116A2022
:101E00000A128A15831203132008A6002108A700CE
:101E10002208A8000A128A15A1250A128A1583121F
:101E200003132308B0002408B1002508B2004008BD
:101E3000A3004108A4004208A5004308A0004408EC
:101E4000A1004508B22F831203134008F400410893
:101E5000F5004208F6004608F7004708F800480871
:101E6000F9000A168A11F0230A128A15031C552F4D
:101E7000831203134908F4004A08F5004B08F600E2
:101E80004008F7004108F8004208F9000A168A11D4
:101E9000F0230A128A15031C552F003083120313F6
:101EA000CF008030D0003F30F62F83120313490853
:101EB000F4004A08F5004B08F6004008F700410816
:101EC000F8004208F9000A168A11F0230A128A154E
:101ED0000318DA2F831203134C08F4004D08F500A1
:101EE0004E08F6004008F7004108F8004208F900E3
:101EF0000A168A11F0230A128A15031CDA2F83129C
:101F000003134C08A3004D08A4004E08A50049087F
:101F1000A0004A08A1004B08A2000A168A116A20F4
:101F20000A128A15831203132008A6002108A700AD
:101F30002208A8000A128A15A1250A128A158312FE
:101F400003132308B0002408B1002508B2004C0890
:101F5000A3004D08A4004E08A5004008A0004108B9
:101F6000A1004208A2000A168A116A200A128A15E4
:101F7000831203132008A6002108A7002208A80046
:101F80000A128A15A1250A128A158312031323083F
:101F9000B3002408B4002508B5000A128A151F23CF
:101FA0000A128A15831203133008CF003108D000BB
:101FB0003208F62F831203134C08F4004D08F50085
:101FC0004E08F6004008F7004108F8004208F90002
:101FD0000A168A11F0230A128A150318F72F003007
:101FE00083120313CF000030D0000030D1008312E1
:101FF00003134F08C0005008C1005108C200080078
:1020000010308A000408840A820700340A340D3430
:1020100020342D342D342D342D342D342D342D34C5
:1020200020344534533454344F34553452344F34BF
:102030002034443445342034503449344C3448340A
:10204000413420342D342D342D342D342D342D3481
:102050002D3420340A340D342034003449346934AA
:102060006E3464340034443469347334703400346E
:0620700041347434003419
:1020800058341B34F00070088312031381000800D9
:10209000F000831203130C1E4928700899000800F1
:1020A00083160317C0004008831203138100080041
:1020B00083160313641C5E28E4010800E401E40AAB
:1020C000080083160313641C6728E4010800E40178
:1020D000E40A0800831203132208210420040319D0
:1020E00008008030A2060800831603138112011233
:1020F00081110115811401140B118B160800831630
:102100000317C10083120313091083160317410834
:1021100083120313880089143D3083160317C0000F
:10212000C00B90288312031389100800831603172D
:10213000C100831203130914831603174108831285
:102140000313880089143D3083160317C000C00BA9
:10215000A728831203138910080083120313981809
:10216000B6281A08F3007308F400C22801300A16D2
:102170008A11F8208312031318121A08F300730847
:10218000F40018168C127408080083120313460812
:10219000F0004708F100F2018E30C9004908F30051
:1021A000F4010A168A115124700883120313C60021
:1021B0007108C7007208C80008007108F3007008B1
:1021C000F200730DF30CF20C730DF30CF20C7208A9
:1021D000831203139B007008F20003300310F20D0A
:1021E000FF3E031DEE280310720D0C389D00080001
:1021F000F200720884000A168A1100200A168A1159
:10220000003803190800720884000A168A11002099
:102210000A168A110A168A1148200A168A110130F4
:10222000F1007108F207F928831203132F08F40054
:102230003008F5003108F6002C08F7002D08F800EA
:102240002E08F9000A168A11F0230A168A11031CB7
:102250000800831203132F08AC003008AD003108CA
:10226000AE000800831203132608F4002708F500C7
:102270002808F6002908F7002A08F8002B08F900BA
:102280000A168A11F0230A168A11031C0800831209
:1022900003132908A6002A08A7002B08A800080095
:1022A00083160317C2008312031309108316031742
:1022B000C208031D5E294008803E62298316031769
:1022C0004008C03E83120313880089143D308316F2
:1022D0000317C100C10B6A29831203138910080078
:1022E00083160317C300430884000A168A110020CE
:1022F0000A168A11003803190800430884000A16D8
:102300008A1100200A168A110A168A1196200A16C6
:102310008A11013083160317C2004208C3077329CC
:10232000FD01F91F9A29F809F909F80A0319F90AB0
:10233000FD01FD0A7808F0007908F100F2018E3005
:10234000FB007B08F3007D08FC007C08F4000A1603
:102350008A1151247008F8007108F9007208FA0017
:102360000800831603174108C3004008C200430D4C
:10237000C30CC20C430DC30CC20C420883120313DE
:102380009500831603174008C20003300310C20DE6
:10239000FF3E031DC6290310420D0C3883120313A0
:1023A00097000800831603174108C3004008C200C5
:1023B000430DC30CC20C430DC30CC20C4208831264
:1023C00003139B00831603174008C2000330031059
:1023D000C20DFF3E031DE7290310420D0C38831286
:1023E00003139D000800831203139214121012139A
:1023F0009212121292111215FF30831603139200DB
:1024000083120313971517159714171483160313C4
:102410000C15831203130C119D151D159D141D140D
:10242000831603130D14831203130D100800831277
:102430000313C401C501401C232A4208C407031822
:10244000C50A4308C50701300310C20DC30DFF3E86
:10245000031D242A01300310C10CC00CFF3E031DD4
:102460002B2A41084004031D1B2A4508C101C1074E
:102470004408C001C007080001300A168A117F20F5
:102480000A168A110C3083160317C300F730C200F6
:10249000C20B482AC30B482A0C300A168A117F2027
:1024A0000A168A113D3083160317C200C20B562A42
:1024B00006300A168A117F200A168A113D308316CB
:1024C0000317C200C20B622A0800831603136408B4
:1024D000033A031D862A2330660228300319650259
:1024E0000318862A6508293EE50066080318013EA0
:1024F000003EE600660883120313EF01EF07831620
:102500000313650883120313EE01EE07831603130A
:102510006408013A031D08000330F0007008E4006D
:10252000831203136F0883160313E601E607831271
:1025300003136E0883160313E501E5070800F50190
:10254000F601710870040319D62AF701F70AF11B86
:10255000B52A01300310F00DF10DFF3E031DAA2A2C
:102560000130F4007408F707A72A01300310F50DB5
:10257000F60DFF3E031DB62A71087302031DC22A21
:1025800070087202031CCB2A7008F2027108031C47
:10259000F303F302751401300310F10CF00CFF3E4D
:1025A000031DCC2A0130F702031DB52A7608F1017C
:1025B000F1077508F001F00708008316031364089B
:1025C000033A031DFE2A23306602283003196502F0
:1025D0000318FE2A6508293EE50066080318013E37
:1025E000003EE600660883120313EF01EF0783162F
:1025F0000313650883120313EE01EE07831603131A
:102600006408013A031D0800033083160317C00055
:10261000400883160313E400831203136F08831624
:102620000313E601E607831203136E0883160313F0
:10263000E501E50708000030831203136B0229301F
:1026400003196A02031C0800831603136408033A83
:10265000031D452B06306602693003196502031C11
:10266000452B6508D73EE50066080318013EFF3E8E
:10267000E600660883120313EF01EF0783160313C6
:10268000650883120313EE01EE0783160313640833
:10269000013A031D08000330F0007008E4008312C3
:1026A00003136F0883160313E601E607831203136F
:1026B0006E0883160313E501E50708000030831256
:1026C00003136B02293003196A02031C08008316E6
:1026D00003136408033A031D882B06306602693031
:1026E00003196502031C882B6508D73EE5006608C0
:1026F0000318013EFF3EE600660883120313EF0154
:10270000EF0783160313650883120313EE01EE0728
:10271000831603136408013A031D0800033083166F
:102720000317C000400883160313E4008312031349
:102730006F0883160313E601E607831203136E087E
:1027400083160313E501E5070800831603174F08F6
:10275000D3005008D4005108D5005208D6000430E8
:102760000310D30DD40DD50DD60DFF3E031DB02B98
:102770005608C3005508C2005408C1005308C000E1
:102780000130C7001930C6004030C5000030C40019
:102790000A168A11E026831603174008FF3E8316A7
:1027A00003139900981318139816181218159814F3
:1027B00018108312031398171813981218169811EB
:1027C000181198101810831603130C128312031398
:1027D0000C12831603138C16831203138C12080039
:1027E000F61F192C003083120313A0000030A10043
:1027F0008030A2007409A3007509A4007609A50021
:10280000A30A0319A40A0319A50A2308A007240888
:102810000318240F0C2C0D2CA10725080318250FD5
:10282000122C132CA2072008F4002108F50022081E
:10283000F600F91F422C003083120313A000003071
:10284000A1008030A2007709A3007809A4007909CB
:10285000A500A30A0319A40A0319A50A2308A007BF
:1028600024080318240F352C362CA107250803183B
:10287000250F3B2C3C2CA2072008F7002108F8006C
:102880002208F9008030F6068030F90679087602D1
:10289000031D080078087502031D080077087402FC
:1028A000080073080319592C720871047004031D81
:1028B0006C2C0030F0000030F1000030F200080015
:1028C0000130F5007508F30701300310F20CF10C2C
:1028D000F00CFF3E031D652CFE3072050319872C9A
:1028E000602C0130F5007508F3070130F007003067
:1028F00003180130F107003003180130F2070130EE
:102900000310F20CF10CF00CFF3E031D802CFF3085
:1029100072050319962C712C0130F302013003105B
:10292000F00DF10DF20DFF3E031D8F2CF11F8C2CCD
:102930007318A02CFF30F0057F30F105FF30F20551
:102940000310F30C7308F500F601F70110300310C3
:10295000F50DF60DF70DFF3E031DA72C7508F004CD
:102960007608F1047708F204740803190800F217D6
:10297000080083120313C0007908C1007A08C2005E
:102980000A128A15AA260A168A118312031340080E
:1029900083160313A2008312031341088316031343
:1029A000A30083120313420883160313A400C0304C
:1029B00083120313CC00C130CD004430CE00003070
:1029C000C9004830CA004430CB000030C60048304F
:1029D000C7004430C8000030C3004830C400423053
:1029E000C500831603135B08F901F9075A08F801BB
:1029F000F8070A168A1190210A168A11780883129C
:102A00000313C0007908C1007A08C2000A128A15AF
:102A1000AA260A168A11831203134008D20041081D
:102A2000D3004208D4000030A3008030A4003F301F
:102A3000A50083160313220883120313A000831634
:102A40000313230883120313A1008316031324081E
:102A500083120313A2000A168A116A200A168A1129
:102A6000831203132008A6002108A7002208A8004B
:102A70000A128A15A12583120A128A1153282330BB
:102A8000F800780883160313C8002430F80078088B
:102A9000C9003A30F8007808CA002930F000003048
:102AA000F1006308F301F3076208F201F2070A1666
:102AB0008A119F220A168A11710883120313EB01EF
:102AC000EB077008EA01EA076B08F800780883163C
:102AD0000313CB00831203136A08F80078088316E7
:102AE0000313CC002930F0000030F1006608F30138
:102AF000F3076508F201F2070A168A119F220A16E7
:102B00008A11710883120313EB01EB077008EA01C5
:102B1000EA076B08F800780883160313CD008312C8
:102B200003136A08F800780883160313CE006408BC
:102B3000F8007808CF00F901FA0108307A0203188A
:102B4000BB2D7A08C83E8400831300080A168A1138
:102B500048200A168A117A08C83E840083130008A8
:102B6000F8007808F9060130F8007808FA0708300C
:102B70007A02031CA12D7908F80078088316031344
:102B8000D00050080A168A1148200800F901F907F8
:102B90007008F801F8070A168A1190210A168A119E
:102BA000780883120313A6007908A7007A08A80002
:102BB0000A168A1132210A168A1183120313260873
:102BC000AC002708AD002808AE000A168A111421AF
:102BD0000A168A11831203132C08B2002D08B300C1
:102BE0002E08B4000A168A1152260A168A11831278
:102BF0000313330883160313B101B10783120313C0
:102C0000320883160313B001B0070030C50000304E
:102C1000C6000030C7000030C0000030C1000030E6
:102C2000C2005B08803AFF0080307F02031D1A2E2D
:102C300065305A020A128A150318C92A831603132B
:102C40005B08F901F9075A08F801F8070A168A1112
:102C500090210A168A11780883120313C00079089C
:102C6000C1007A08C2000030C3008030C400BF3009
:102C7000C5000030C6000030C7000030C80000307A
:102C8000C9008030CA003F30CB000030CC00C830D3
:102C9000CD004230CE000A128A15AA2683120A12EB
:102CA0008A158328831203133208B6003308B7004D
:102CB0003408B8000310370D380DB9003908BF00CB
:102CC000BF08031D6C2E0030B5000030B40000308A
:102CD000B3000030B20008003208B6003308B70075
:102CE0003408B80017300310B80CB70CB60CFF3E10
:102CF000031D732E3608B9003908BA00B317FF3028
:102D0000B205FF30B3050030B4053208BB0033080C
:102D1000BC003408BD00BE018E30BF02BF1FAE2E06
:102D20003F08803A8F3E03189E2E0030B5000030D9
:102D3000B4000030B3000030B200080001300310CE
:102D4000BE0CBD0CBC0CBB0CFF3E031D9F2E013006
:102D5000B6003608BF070319C92E9E2E18303F0251
:102D6000031CC62E0030B5000030B4000030B300A4
:102D70000030B20008000130B6000310BB0DBC0DDE
:102D8000BD0DBE0DB60BBD2E0130BF02BF08031D29
:102D9000BB2E3A080319D72EBB09BC09BD09BE09D1
:102DA000BB0A0319BC0A0319BD0A0319BE0A3E086F
:102DB000B5003D08B4003C08B3003B08B200080071
:102DC00083160317CA01C31FF22EC009C109C20925
:102DD000C309C00A0319C10A0319C20A0319C30AA5
:102DE000CA01CA0AC71F032FC409C509C609C709F2
:102DF000C40A0319C50A0319C60A0319C70A013010
:102E0000C8004808CA060030CE000030CD000030AF
:102E1000CC000030CB0043084204410440040319B5
:102E2000582FC901C90AC31B232F0130C800031042
:102E3000C00DC10DC20DC30DC80B172F0130C80046
:102E40004808C907132F0130C8000310CB0DCC0D63
:102E5000CD0DCE0DC80B252F43084702031D3A2F79
:102E600042084602031D3A2F41084502031D3A2F2E
:102E700040084402031C4B2F4008C4024108031CB5
:102E8000410FC5024208031C420FC6024308031C3F
:102E9000430FC7024B1401300310C30CC20CC10C0A
:102EA000C00CFF3E031D4C2F0130C902031D232F10
:102EB0004A080319662FCB09CC09CD09CE09CB0AE4
:102EC0000319CC0A0319CD0A0319CE0A4E08C30010
:102ED0004D08C2004C08C1004B08C0000800031395
:102EE000410883160313E601E60783120313400823
:102EF00083160313E501E5075408493A031D852F9E
:102F00000A168A1158200A168A11831603135408C8
:102F1000533A031D902F0A168A111B230A168A1191
:102F2000831603135408523A031D9B2F0A168A1165
:102F300065220A168A11831603135408463A031DA4
:102F4000AA2F6408FD3983120313E2006208831676
:102F50000313E400831203138C120A128A110B1D4F
:102F6000DC2FEE300A168A1142200A168A1101302F
:102F7000831603135702F330031956020318CC2F9C
:102F80000130D6070318D70A0030D707831203137E
:102F900006170A128A11DB2F83160313D601D701F5
:102FA000831203130F0883160313DD01DD07831259
:102FB00003130E0883160313DC01DC070730F0004F
:102FC0000030F1005D08F301F3075C08F201F2073D
:102FD0000A168A119F220A168A1171088312031396
:102FE000C101C1077008C001C0077830C2000030BD
:102FF000C3000A168A11172283120A128A15B929E8
:02400E0032FF7F
:00000001FF
