:060000000A128A11122809
:10000800FE00030E83120313DD000408DE000A0855
:10001800DF007F08E0000A128A1155280A128A11A7
:10002800152883136130840070300A168A11E52080
:100038000A128A11C9308400ED300A168A11E520A7
:100048000A128A11831790308400C7300A168A1161
:10005800E5200A128A111030840070300A168A11BD
:10006800E5200A128A11831603170A168A11C52079
:100078000A128A11E1000A168A11C6200A128A1188
:10008800E200831603130A128A11FE270A128A1144
:10009800ED000A128A11FF27EE0083010A168A1161
:1000A800862B8C1EF2280A168A112F210A128A1111
:1000B80083120313DB005B0883160313BD003D089E
:1000C800233A031D6A28E901EA0170280130E9078B
:1000D8000318EA0A0030EA073D0883120313DB001D
:1000E800831603136908613E8400831203135B08B7
:1000F80083138000831603136A08803AFF00803058
:100108007F02031D892806306902031CEF28831625
:100118000313E901EA01831203136208413A031940
:100128009D286308413A03199D286408413A031D34
:10013800A3280A168A112A220A128A11EF28831282
:1001480003136108233A031DEF286208243A031DAC
:10015800EF2863083A3A031DEF2883160313BC01FE
:10016800BE0106303E020318D1283E08613E8400D5
:100178008313000883120313DB005B088316031341
:10018800BC06013083120313DB005B0883160313DC
:10019800BE0706303E02031CB92883120313670802
:1001A800831603133C06031DEF2883120313640808
:1001B800DB00DC015B08DC00DB0165085B078316FC
:1001C8000313ED00003003180130831203135C079A
:1001D80083160313EE00831203138C120C1B0C13EB
:1001E8000A128A150B1D382CEE300A168A11C72000
:1001F8000A128A110130831203136B02F3300319B8
:100208006A02031811290130EA070318EB0A0030C3
:10021800EB0706170A128A15372CEA01EB010F08BB
:10022800ED01ED070E08EC01EC076D08F901F9077F
:100238006C08F801F8070A168A111B210A128A119C
:10024800780883120313AA007908AB007A08AC0077
:100258000030A700E030A8004030A9000A168A1133
:1002680023250A128A11831203132708BA002808C3
:10027800BB002908BC000030B700F030B80042309D
:10028800B9000A128A112B270A128A118312031342
:100298003708C7003808C8003908C9000A168A1183
:1002A80006240A128A1183120313480883160313BB
:1002B800EC01EC0783120313470883160313EB01C1
:1002C800EB076608E401E4076508E301E3076B0947
:1002D80083120313DB00831603136C0983120313C1
:1002E800DC00DB0A0319DC0A831603136D0883128A
:1002F80003135B07F000831603136E0803186E0AD6
:10030800831203135C07F1000A128A152E200A12C1
:100318008A117108803AFF0087307F02031D9629F1
:10032800D0307002031C9F29D03083160313E500D8
:100338000730E600CB29831603136B0983120313D6
:10034800DB00831603136C0983120313DC00DB0A3A
:100358000319DC0A831603136D08831203135B0762
:10036800F000831603136E0803186E0A8312031332
:100378005C07F1000A128A152E200A128A117108E8
:1003880083160313E601E6077008E501E50763092C
:1003980083120313DB008316031364098312031308
:1003A800DC00DB0A0319DC0A8316031365088312D1
:1003B80003135B07F0008316031366080318660A25
:1003C800831203135C07F1000A128A152E200A1201
:1003D8008A117108803AFF0083307F02031DF629D5
:1003E800E8307002031CFF29E83083160313AC00C1
:1003F8000330AD002B2A83160313630983120313FA
:10040800DB0083160313640983120313DC00DB0A81
:100418000319DC0A831603136508831203135B07A9
:10042800F0008316031366080318660A8312031381
:100438005C07F1000A128A152E200A128A11710827
:1004480083160313AD01AD077008AC01AC072D0886
:10045800803AFF0080307F02031D342A02302C02CC
:1004680003183D2A013083160313E1000030E2002F
:10047800A52A83160313630983120313DB0083166B
:100488000313640983120313DC00DB0A0319DC0A73
:10049800831603136508831203135B07F0008316A2
:1004A800031366080318660A831203135C07F10036
:1004B8000A128A152E200A128A117108803AFF0042
:1004C80083307F02031D6A2AE8307002031C732AF6
:1004D800E83083160313AE000330AF009F2A83165B
:1004E8000313630983120313DB00831603136409E0
:1004F80083120313DC00DB0A0319DC0A83160313D7
:100508006508831203135B07F0008316031366085C
:100518000318660A831203135C07F1000A128A158E
:100528002E200A128A11710883160313AF01AF0730
:100538007008AE01AE072F08E201E2072E08E101BC
:10054800E1076608803AFF0080307F02031DAE2A6B
:10055800653065020318DD2B831603136608F9015D
:10056800F9076508F801F8070A168A117E210A12A8
:100578008A11780883120313B7007908B8007A083B
:10058800B9000030BA008030BB00BF30BC0000307A
:10059800BD000030BE000030BF000030C000803019
:1005A800C1003F30C2000030C300C830C400423030
:1005B800C5000A128A153C200A128A1183120313F5
:1005C800370883160313CC008312031338088316E5
:1005D8000313CD0083120313390883160313CE00C7
:1005E8004C08D2004D08D3004E08D4000030DB0080
:1005F8000030DC000030DD000030DE000030DF00BD
:100608000030E000BF01C0014008803AFF008030A0
:100618007F02031D112B10303F020318DD2B8316B8
:1006280003135B0883120313B700831603135C08D4
:1006380083120313B800831603135D088312031390
:10064800B9000030BA008030BB00BF30BC000030B9
:10065800BD000030BE000030BF000030C0000030D8
:10066800C1000030C2000030C300A030C4004030D8
:10067800C5000A128A153C200A128A118312031334
:10068800370883160313DE00831203133808831612
:100698000313DF0083120313390883160313E000E2
:1006A8005E0883120313A000831603135F088312E6
:1006B8000313A10083160313600883120313A20017
:1006C80083160313520883120313A300831603131C
:1006D800530883120313A4008316031354088312C8
:1006E8000313A5000A168A11BF220A128A11031CD5
:1006F800982B033083120313DB005B08F00083168A
:1007080003133F080A168A11F8200A128A11903E2C
:10071800840083160313520883178000840A530841
:100728008000840A5408B22B033083120313DB00C1
:100738005B08F000831603133F080A168A11F82095
:100748000A128A11903E8400831603135E088317E9
:100758008000840A5F088000840A600880000030F6
:10076800F8008030F9003F30FA005B08FB005C08B5
:10077800FC005D08FD000A168A11DB250A128A11A1
:10078800780883160313DB007908DC007A08DD009B
:100798000130BF070318C00A0030C0074008803A7C
:1007A800FF0080307F02031DDB2B10303F02031C4B
:1007B800132B831603136608803AFF0080307F02EC
:1007C800031DE82B64306502031CAE2D831603134A
:1007D8006608803AFF0083307F02031DF52BEA305C
:1007E80065020318AE2D831603136208803AFF00D2
:1007F80080307F02031D022CC93061020318AE2D20
:10080800831603136608F901F9076508F801F80764
:100818000A168A117E210A128A1178088312031394
:10082800B7007908B8007A08B9000030BA00483033
:10083800BB004230BC000030BD004830BE00443030
:10084800BF00C030C000C130C1004430C2000A1629
:100858008A11E2260A128A118312031337088316B3
:100868000313CC0083120313380883160313CD0037
:1008780083120313390883160313CE006208F901A3
:10088800F9076108F801F8070A168A117E210A1289
:100898008A11780883120313B7007908B8007A0818
:1008A800B9000030BA008030BB00BF30BC00003057
:1008B800BD000030BE000030BF000030C0008030F6
:1008C800C1003F30C2000030C3004830C40043308C
:1008D800C5000A128A153C200A128A1183120313D2
:1008E800370883160313C9008312031338088316C5
:1008F8000313CA0083120313390883160313CB00AA
:100908004C0883120313B700831603134D08831290
:100918000313B800831603134E0883120313B90098
:100928000030F8008030F9003F30FA0083160313D6
:100938004908F0004A08F1004B08F2000A168A112B
:10094800D5200A128A117008FB007108FC00720891
:10095800FD000A168A11DB250A128A11780883120B
:100968000313BA007908BB007A08BC000A128A117E
:100978002B270A128A1183120313370883160313CD
:10098800D20083120313380883160313D30083128B
:100998000313390883160313D4000030DB0000303A
:1009A800DC000030DD000030DE000030DF00003009
:1009B800E000C101C2014208803AFF0080307F0296
:1009C800031DE82C103041020318AE2D83160313C3
:1009D8005B0883120313B700831603135C088312A2
:1009E8000313B800831603135D0883120313B900B9
:1009F8000030BA000030BB004030BC000030BD0001
:100A0800A030BE004030BF000030C0002030C10020
:100A18004130C2000A168A11E2260A128A1183128C
:100A28000313370883160313DE00831203133808F1
:100A380083160313DF008312031339088316031385
:100A4800E0005E0883120313A000831603135F08F7
:100A580083120313A1008316031360088312031380
:100A6800A20083160313520883120313A3008316EC
:100A78000313530883120313A400831603135408A3
:100A880083120313A5000A168A11BF220A128A11BB
:100A9800031C692D033083120313DB005B08F0008D
:100AA8008316031341080A168A11F8200A128A11BC
:100AB800903E840083160313520883178000840A2B
:100AC80053088000840A5408832D033083120313CB
:100AD800DB005B08F0008316031341080A168A112D
:100AE800F8200A128A11903E8400831603135E08C8
:100AF80083178000840A5F088000840A60088000E9
:100B08000030F8008030F9003F30FA005B08FB0045
:100B18005C08FC005D08FD000A168A11DB250A1234
:100B28008A11780883160313DB007908DC007A0839
:100B3800DD000130C1070318C20A0030C2074208AD
:100B4800803AFF0080307F02031DAC2D1030410237
:100B5800031CEA2C831603136608803AFF008030D2
:100B68007F02031DB92D64306502031C282F8316EC
:100B780003136608803AFF0083307F02031DC62DE9
:100B8800EA3065020318282F831603136208803A97
:100B9800FF0080307F02031DD32DC9306102031C82
:100BA800282F831603136608F901F9076508F80169
:100BB800F8070A168A117E210A128A117808831208
:100BC8000313B7007908B8007A08B9000030BA00F2
:100BD8004830BB004230BC000030BD004830BE0089
:100BE8004430BF00C030C000C130C1004430C20032
:100BF8000A168A11E2260A128A1183120313370889
:100C080083160313CC0083120313380883160313C7
:100C1800CD0083120313390883160313CE0062082C
:100C2800F901F9076108F801F8070A168A117E2107
:100C38000A128A11780883120313B7007908B800DA
:100C48007A08B9000030BA004830BB004330BC0015
:100C58000030BD00FA30BE004330BF000030C00095
:100C6800FA30C1004430C2002030C300FA30C4005A
:100C78004430C5000A128A153C200A128A118312D0
:100C88000313370883160313C900831203133808A4
:100C980083160313CA008312031339088316031338
:100CA800CB00490883120313B700831603134A08BD
:100CB80083120313B800831603134B08831203131C
:100CC800B900831603134C0883120313BA00831662
:100CD80003134D0883120313BB00831603134E0836
:100CE80083120313BC000A128A112B270A128A11D5
:100CF80083120313370883160313D20083120313D6
:100D0800380883160313D300831203133908831694
:100D18000313D4000030DB000030DC000030DD00BD
:100D28000030DE000030DF000030E000C301C40105
:100D38004408803AFF0080307F02031DA52E103042
:100D480043020318282F831603135B088312031327
:100D5800B700831603135C0883120313B8008316C5
:100D680003135D0883120313B9000030BA00003082
:100D7800BB004030BC000030BD00A030BE00403099
:100D8800BF000030C0002030C1004130C2000A1648
:100D98008A11E2260A128A1183120313370883166E
:100DA8000313DE0083120313380883160313DF00CE
:100DB80083120313390883160313E0005E088312B5
:100DC8000313A000831603135F0883120313A10003
:100DD80083160313600883120313A20083160313F8
:100DE800520883120313A3008316031353088312B4
:100DF8000313A40083160313540883120313A500D6
:100E08000A168A11BF220A128A110A128A15031CAD
:100E1800472C033083120313DB005B08F0008316B2
:100E2800031343080A168A11F820403E84008316EB
:100E38000313520883178000840A53088000840A29
:100E480054080A128A15612C0A128A158C2C8312EE
:100E580003133708BD003808BE003908BF00031067
:100E68003E0D3F0DC0004008C100C108031D432FBF
:100E78000030B7000030B8000030B90008003A0868
:100E8800BD003B08BE003C08BF0003103E0D3F0DEF
:100E9800C0004008C600C608031D592F0030B7001F
:100EA8000030B8000030B900080046087B3EBD009D
:100EB8003D08C1073708BD003808BE003908BF0023
:100EC80010300310BF0CBE0CBD0CFF3E031D652F78
:100ED8003D08C0004008C6003A08BD003B08BE00F7
:100EE8003C08BF0010300310BF0CBE0CBD0CFF3E09
:100EF800031D772F3D08C0004008C6068030BD009E
:100F08003D08C605B817BB17FF30BA05FF30BB054B
:100F18000030BC050030C2000030C3000030C400FF
:100F28000730BD003D08C500371CA82F3A08C20786
:100F38003B08031103183B0A031DC3073C080311B0
:100F480003183C0A031DC40701300310B90CB80C80
:100F5800B70CFF3E031DA92F01300310BA0DBB0DBE
:100F6800BC0DFF3E031DB12F0130C502031D982F94
:100F78000930BD003D08C500371CD02F3A08C2070C
:100F88003B08031103183B0A031DC3073C08031160
:100F980003183C0A031DC40701300310B90CB80C30
:100FA800B70CFF3E031DD12F01300310C40CC30C36
:100FB800C20CFF3E031DD92F0130C502031DC02FEF
:100FC8004208F0004308F1004408F2004108BD005F
:100FD8003D08F3004608BE003E08F4000A168A11D0
:100FE8001E23700883120313B7007108B800720833
:100FF800B90008008834133408308A000408840AC9
:10100800820700340A340D3420342D342D342D3425
:101018002D342D342D342D34203445345334543468
:101028004F34553452344F3420344434453420340A
:10103800503449344C344834413420342D342D3420
:101048002D342D342D342D342D3420340A340D34E0
:1010580020340034F11F08007009F2007109F30010
:10106800F20A0319F30A7208F0007308F100080085
:10107800003083120313C6000030C7000030C800D8
:101088003A08A0003B08A1003C08A2003708A300CA
:101098003808A4003908A5000A168A11BF220A12C6
:1010A8008A1503187B29831203133A08A0003B080A
:1010B800A1003C08A2003708A3003808A40039089A
:1010C800A5000A168A11BF220A128A150318B32826
:1010D800831203133D08A0003E08A1003F08A200A8
:1010E8003708A3003808A4003908A5000A168A1191
:1010F800BF220A128A15031CB328831203133D0862
:10110800F8003E08F9003F08FA003A08F0003B08EA
:10111800F1003C08F2000A168A11D5200A128A1535
:101128007008FB007108FC007208FD000A168A119D
:10113800DB250A128A15780883120313A700790899
:10114800A8007A08A9003708F8003808F900390813
:10115800FA003A08F0003B08F1003C0840298312E5
:1011680003133708A0003808A1003908A2003D0879
:10117800A3003E08A4003F08A5000A168A11BF2252
:101188000A128A15031CE528831203134008A000DD
:101198004108A1004208A2003708A3003808A400AB
:1011A8003908A5000A168A11BF220A128A15031CDB
:1011B800E528003083120313C6008030C7003F3093
:1011C8008229831203134008A0004108A1004208A5
:1011D800A2003708A3003808A4003908A5000A1699
:1011E8008A11BF220A128A1503186629831203136B
:1011F8004308A0004408A1004508A2003708A3003E
:101208003808A4003908A5000A168A11BF220A1254
:101218008A15031C6629831203134308F80044083F
:10122800F9004508FA004008F0004108F1004208BA
:10123800F2000A168A11D5200A128A157008FB00D6
:101248007108FC007208FD000A168A11DB250A12D3
:101258008A15780883120313A7007908A8007A086A
:10126800A9004308F8004408F9004508FA003708BF
:10127800F0003808F1003908F2000A168A11D52062
:101288000A128A157008FB007108FC007208FD003C
:101298000A168A11DB250A128A15780883120313A5
:1012A800AA007908AB007A08AC000A168A1123252F
:1012B8000A128A15831203132708C6002808C700D4
:1012C80029088229831203134308A0004408A100B7
:1012D8004508A2003708A3003808A4003908A5006B
:1012E8000A168A11BF220A128A15031883290030A8
:1012F80083120313C6000030C7000030C8008312F1
:1013080003134608B7004708B8004808B9000800A2
:101318000030CF000030D0000030D1006E086C02E1
:10132800031D98296D086B02031C9E29FF30B2002B
:10133800FF30A1290130B2000030B3004F088312FA
:101348000313A00083160313500883120313A1008C
:1013580083160313510883120313A2008316031381
:101368006608F901F9076508F801F8070A168A11ED
:101378007E210A128A15780883120313A3007908BC
:10138800A4007A08A5000A168A11BF220A128A1533
:10139800031CE329831603136608F901F907650896
:1013A800F801F8070A168A117E210A128A157808A8
:1013B80083160313A0007908A1007A08EA29831686
:1013C80003134F08A0005008A1005108A2002008EC
:1013D80083120313C7008316031321088312031310
:1013E800C80083160313220883120313C9000A16C0
:1013F8008A1106240A128A15831203134808D60193
:10140800D6074708D501D507831603133308831277
:101418000313D801D8078316031332088312031362
:10142800D701D7070A168A1105220A128A158316C8
:1014380003136708831203135507DB00831603138E
:1014480068080318680A831203135607DC00033080
:101458005C02FF3003195B02031C392AFF30831634
:101468000313B0000330B100D62A831603136E08A5
:101478006C02031D412A6D086B02031C472AFF30CA
:10148800B400FF304A2A0130B4000030B5004F08DC
:1014980083120313A0008316031350088312031347
:1014A800A10083160313510883120313A2008316A5
:1014B80003136608F901F9076508F801F8070A1621
:1014C8008A117E210A128A15780883120313A30051
:1014D8007908A4007A08A5000A168A11BF220A1200
:1014E8008A15031C8C2A831603136608F901F90769
:1014F8006508F801F8070A168A117E210A128A156A
:10150800780883160313A3007908A4007A08932A9D
:10151800831603134F08A3005008A4005108A50020
:10152800230883120313C7008316031324088312A6
:101538000313C80083160313250883120313C90075
:101548000A168A1106240A128A15831203134808F8
:10155800D601D6074708D501D507831603133508E2
:1015680083120313D801D807831603133408831290
:101578000313D701D7070A168A1105220A128A15FA
:10158800831603136708831203135507831603137F
:10159800B00068080318680A8312031356078316F5
:1015A8000313B10031083004031DDD2AE701E80107
:1015B800272C6E086C02031DE32A6D086B02031CBE
:1015C800E92AFF30B800FF30EC2A0130B8000030BB
:1015D800B9004F0883120313A000831603135008A1
:1015E80083120313A10083160313510883120313F4
:1015F800A200831603136608F901F9076508F801C4
:10160800F8070A168A117E210A128A1578088312A9
:101618000313A3007908A4007A08A5000A168A1102
:10162800BF220A128A15031C2E2B83160313660881
:10163800F901F9076508F801F8070A168A117E21E9
:101648000A128A15780883160313A6007908A700DA
:101658007A08352B831603134F08A6005008A700F5
:101668005108A800260883120313C7008316031322
:10167800270883120313C80083160313280883124C
:101688000313C9000A168A1106240A128A1583123E
:1016980003134808D601D6074708D501D50783168E
:1016A8000313390883120313D801D80783160313C9
:1016B800380883120313D701D7070A168A1105229F
:1016C8000A128A1583160313670883120313550732
:1016D800DB008316031368080318680A83120313D0
:1016E8005607DC0003305C02FF3003195B02031C61
:1016F800842BFF3083160313B6000330B700212C68
:10170800831603136E086C02031D8C2B6D086B0285
:10171800031C922BFF30BA00FF30952B0130BA0022
:101728000030BB004F0883120313A0008316031375
:10173800500883120313A100831603135108831260
:101748000313A200831603136608F901F907650855
:10175800F801F8070A168A117E210A128A157808F4
:1017680083120313A3007908A4007A08A5000A16B7
:101778008A11BF220A128A15031CD72B831603135A
:101788006608F901F9076508F801F8070A168A11C9
:101798007E210A128A15780883160313A90079088E
:1017A800AA007A08DE2B831603134F08A9005008F5
:1017B800AA005108AB00290883120313C700831637
:1017C80003132A0883120313C800831603132B0874
:1017D80083120313C9000A168A1106240A128A15ED
:1017E800831203134808D601D6074708D501D50741
:1017F800831603133B0883120313D801D8078316F3
:1018080003133A0883120313D701D7070A168A115C
:1018180005220A128A158316031367088312031315
:10182800550783160313B60068080318680A83125D
:101838000313560783160313B7003708E801E807B0
:101848003608E701E7076808F101F1076708F001C2
:10185800F0070A168A1147210A128A158312031300
:101868008E018F0106130B110C180C108C198C119A
:101878006008FF005F088A005E0884005D0E830030
:10188800FE0E7E0E0900033083120313DB005B0893
:10189800F0008316031343080A168A11F8200A1267
:1018A8008A15403E8400831603135E088317800060
:1018B800840A5F088000840A600880000030F8000D
:1018C8008030F9003F30FA005B08FB005C08FC0040
:1018D8005D08FD000A168A11DB250A128A157808A8
:1018E80083160313DB007908DC007A08DD00013079
:1018F800C3070318C40A0030C4074408803AFF002D
:1019080080307F02031D8A2C10304302031CFD2FF8
:10191800831603136608803AFF0083307F02031D95
:10192800972CE9306502031CC62D8316031366083D
:10193800F901F9076508F801F8070A168A117E21E6
:101948000A128A15780883120313B7007908B800B9
:101958007A08B9004030BA007A30BB004430BC0085
:101968008030BD00BB30BE004430BF000030C00036
:10197800FA30C1004430C2002030C300FA30C4003D
:101988004430C5000A128A153C200A128A158312AF
:101998000313370883160313CC0083120313380884
:1019A80083160313CD008312031339088316031318
:1019B800CE004C08D2004D08D3004E08D4000030A9
:1019C800DB000030DC000030DD000030DE000030DD
:1019D800DF000030E000C501C6014608803AFF007C
:1019E80080307F02031DFA2C103045020318C62DE3
:1019F800831603135B0883120313B70083160313BC
:101A08005C0883120313B800831603135D0883125E
:101A18000313B9000030BA00A030BB004030BC004E
:101A28000030BD002030BE004130BF000030C00093
:101A38007030C1004130C2000030C3008030C400A3
:101A48004130C5000A128A153C200A128A158312F1
:101A58000313370883160313DE00831203133808B1
:101A680083160313DF008312031339088316031345
:101A7800E0005E0883120313A000831603135F08B7
:101A880083120313A1008316031360088312031340
:101A9800A20083160313520883120313A3008316AC
:101AA8000313530883120313A40083160313540863
:101AB80083120313A5000A168A11BF220A128A1577
:101AC800031C812D033083120313DB005B08F00035
:101AD8008316031345080A168A11F8200A128A1574
:101AE800103E840083160313520883178000840A6B
:101AF80053088000840A54089B2D03308312031373
:101B0800DB005B08F0008316031345080A168A11E8
:101B1800F8200A128A15103E8400831603135E0803
:101B280083178000840A5F088000840A60088000A8
:101B38000030F8008030F9003F30FA005B08FB0005
:101B48005C08FC005D08FD000A168A11DB250A12F4
:101B58008A15780883160313DB007908DC007A08F5
:101B6800DD000130C5070318C60A0030C60746085D
:101B7800803AFF0080307F02031DC42D10304502DB
:101B8800031CFC2C003083160313DB000030DC0040
:101B98000030DD000030D8000030D9000030DA0015
:101BA8000030D5000030D6000030D700C701C8018A
:101BB8004808803AFF0080307F02031DE52D103071
:101BC80047020318BB2F83160313C81B6D2E480842
:101BD800803AFF0080307F02031DF42D0630470253
:101BE80003186D2E831603135808F8005908F900D6
:101BF8005A08FA00033083120313DB005B08F00075
:101C08008316031347080A168A11F8200A128A1540
:101C1800903E840083170008FB00840A0008FC003B
:101C2800840A0008FD000A168A11DB250A128A15A3
:101C3800780883160313D8007908D9007A08DA00DF
:101C48005508F8005608F9005708FA005B0883128F
:101C58000313B700831603135C0883120313B80039
:101C6800831603135D0883120313B9000330DB00E6
:101C78005B08F0008316031347080A168A11F82038
:101C88000A128A15903E84008317000883120313F2
:101C9800BA00840A0008BB00840A0008BC000A12C3
:101CA8008A112B270A128A15831203133708FB009F
:101CB8003808FC003908FD000A168A11DB250A12CB
:101CC8008A15780883160313D5007908D6007A0890
:101CD800D700831603134808803AFF0080307F023C
:101CE800031D782E05304702031CFE2E83160313AE
:101CF8004808803AFF0080307F02031D852E0B3094
:101D080047020318FE2E831603135808F8005908D3
:101D1800F9005A08FA00033083120313DB005B084A
:101D2800F0008316031347080A168A11F8200A12CE
:101D38008A15403E840083170008FB00840A0008C7
:101D4800FC00840A0008FD000A168A11DB250A1225
:101D58008A15780883160313D8007908D9007A08F9
:101D6800DA005508F8005608F9005708FA005B0829
:101D780083120313B700831603135C08831203133B
:101D8800B800831603135D0883120313B9000330E8
:101D9800DB005B08F0008316031347080A168A1154
:101DA800F8200A128A15403E84008317000883121F
:101DB8000313BA00840A0008BB00840A0008BC00A8
:101DC8000A128A112B270A128A158312031337085D
:101DD800FB003808FC003908FD000A168A11DB25CB
:101DE8000A128A15780883160313D5007908D600D5
:101DF8007A08D700831603134808803AFF0080301A
:101E08007F02031D092F0A304702031C8F2F8316F8
:101E180003134808803AFF0080307F02031D162F05
:101E28001030470203188F2F831603135808F80041
:101E38005908F9005A08FA00033083120313DB002B
:101E48005B08F0008316031347080A168A11F82066
:101E58000A128A15103E840083170008FB00840AC2
:101E68000008FC00840A0008FD000A168A11DB2518
:101E78000A128A15780883160313D8007908D9003E
:101E88007A08DA005508F8005608F9005708FA00E9
:101E98005B0883120313B700831603135C088312CD
:101EA8000313B800831603135D0883120313B900E4
:101EB8000330DB005B08F0008316031347080A169B
:101EC8008A11F8200A128A15103E84008317000828
:101ED80083120313BA00840A0008BB00840A0008AE
:101EE800BC000A128A112B270A128A1583120313BF
:101EF8003708FB003808FC003908FD000A168A116B
:101F0800DB250A128A15780883160313D500790889
:101F1800D6007A08D7000030F8008030F9003F304A
:101F2800FA00831603135B08FB005C08FC005D08DD
:101F3800FD000A168A11DB250A128A15780883160D
:101F48000313DB007908DC007A08DD000130C707DD
:101F58000318C80A0030C8074808803AFF008030D4
:101F68007F02031DB92F10304702031CE72D83168B
:101F780003135A08590458040A128A1503198C299C
:101F8800580883120313A7008316031359088312F2
:101F98000313A800831603135A0883120313A90016
:101FA80083160313550883120313AA008316031319
:101FB800560883120313AB008316031357088312C2
:101FC8000313AC000A168A1123258312031327086A
:101FD80083160313CF0083120313280883160313F1
:101FE800D000831203132908831603130A128A15D3
:081FF80091290A128A11A72E9B
:10218A0001340034F0007008831203138100080040
:10219A00F000831203130C1ECE2870089900080061
:1021AA00720871047004031908008030F2060800EE
:1021BA0083160317C7004708831203138100080018
:1021CA0064008001840A0406031900340406E62820
:1021DA00831603138112011281110115811401144E
:1021EA000B118B160800F300F201731C002970080A
:1021FA00F1007108F2070310F00D0310F30CF30855
:10220A00031DFA2872080800831603139F179F15E7
:10221A001F159F141F10831203139F171F13831672
:10222A0003130C13831203130C1308007808F0002D
:10223A007908F100F2018E30FB007B08F300F4010B
:10224A000A168A111E237008F8007108F90072082C
:10225A00FA00080083120313981838291A08F300A1
:10226A007308F400442901300A168A116221831284
:10227A00031318121A08F3007308F40018168C12C4
:10228A00740808007108F3007008F200730DF30C6B
:10229A00F20C730DF30CF20C7208831203139B00F9
:1022AA007008F20003300310F20DFF3E031D582997
:1022BA000310720D0C389D000800F20072088400A9
:1022CA000A128A1500200A168A1100380319080012
:1022DA00720884000A128A1500200A168A110A1640
:1022EA008A11CD200A168A110130F1007108F2070D
:1022FA006329FD01F91F8829F809F909F80A031960
:10230A00F90AFD01FD0A7808F0007908F100F201E6
:10231A008E30FB007B08F3007D08FC007C08F4008B
:10232A000A168A111E237008F8007108F90072084B
:10233A00FA000800831603174808CA004708C900AC
:10234A004A0DCA0CC90C4A0DCA0CC90C4908831299
:10235A0003139500831603174708C90003300310B7
:10236A00C90DFF3E031DB4290310490D0C38831211
:10237A00031397000800831603174808CA00470882
:10238A00C9004A0DCA0CC90C4A0DCA0CC90C490825
:10239A00831203139B00831603174708C9000330EF
:1023AA000310C90DFF3E031DD5290310490D0C3832
:1023BA00831203139D000800831203139214121050
:1023CA0012139212121292111215FF30831603136E
:1023DA00920083120313971517159714171483166F
:1023EA0003130C15831203130C119D151D159D144F
:1023FA001D14831603130D14831203130D10080002
:10240A0083120313D901DA01551C112A5708D90777
:10241A000318DA0A5808DA0701300310D70DD80D65
:10242A00FF3E031D122A01300310D60CD50CFF3EC5
:10243A00031D192A56085504031D092A5A08D601EC
:10244A00D6075908D501D50708002330F1007108CD
:10245A0083120313E1002430F1007108E2003A30DC
:10246A00F1007108E300831603136C08F100710888
:10247A0083120313E400831603136B08F100710837
:10248A0083120313E500E601F201F3010630730239
:10249A000318692A7308613E8400831300080A1628
:1024AA008A11CD200A168A117308613E84008313AB
:1024BA000008F1007108F2060130F1007108F30713
:1024CA0006307302031C4F2A7208F1007108831246
:1024DA000313E70067080A168A11CD20080083163D
:1024EA0003175608DA005708DB005808DC005908B9
:1024FA00DD0004300310DA0DDB0DDC0DDD0DFF3ECF
:10250A00031D7F2A5D08CA005C08C9005B08C80071
:10251A005A08C7000130CE001930CD004030CC0037
:10252A000030CB000A168A11942483160317470831
:10253A00FF3E83160313990098131813981618125E
:10254A001815981418108312031398171813981251
:10255A0018169811181198101810831603130C12D4
:10256A00831203130C12831603138C16831203139C
:10257A008C12080083120313A21FE82A0030A60057
:10258A000030A7008030A8002009A9002109AA006C
:10259A002209AB00A90A0319AA0A0319AB0A2908D6
:1025AA00A6072A0803182A0FDB2ADC2AA7072B0802
:1025BA0003182B0FE12AE22AA8072608A0002708F9
:1025CA00A1002808A200A51F0F2B0030A60000308A
:1025DA00A7008030A8002309A9002409AA00250918
:1025EA00AB00A90A0319AA0A0319AB0A2908A60704
:1025FA002A0803182A0F022B032BA7072B080318F4
:10260A002B0F082B092BA8072608A3002708A400CC
:10261A002808A5008030A2068030A50625082202D7
:10262A00031D080024082102031D080023082002B4
:10263A00080073080319262B720871047004031D1D
:10264A00392B0030F0000030F1000030F2000800B1
:10265A000130F5007508F30701300310F20CF10C94
:10266A00F00CFF3E031D322BFE3072050319542B6A
:10267A002D2B0130F5007508F3070130F007003003
:10268A0003180130F107003003180130F207013056
:10269A000310F20CF10CF00CFF3E031D4D2BFF3022
:1026AA0072050319632B3E2B0130F302013003102C
:1026BA00F00DF10DF20DFF3E031D5C2BF11F592B9E
:1026CA0073186D2BFF30F0057F30F105FF30F205EE
:1026DA000310F30C7308F500F601F701103003102C
:1026EA00F50DF60DF70DFF3E031D742B7508F0046A
:1026FA007608F1047708F204740803190800F2173F
:10270A000800013083160313850001308312031376
:10271A008500831603138601831203138601813011
:10272A00831603138700C0308312031387008316AE
:10273A000313880183120313880183160313890183
:10274A00831203138901033090008E018F01003038
:10275A0083160317D9000130D800C230D7000030E1
:10276A00D6000A168A1174220A168A110A168A11C2
:10277A00ED200A168A110A168A1109210A168A11E7
:10278A000A168A11E1210A168A110B178B170030D3
:10279A0083160317C7000030C8000A168A119F2142
:1027AA000A168A11003083160317C7000030C800C2
:1027BA000A168A11C0210A168A11EE300A168A11DF
:1027CA00DD200A168A11183083160317E0006130DB
:1027DA00DF006E30DE00DE0BF02BDF0BF02BE00BA0
:1027EA00F02B0000053083160317E000AD30DF0040
:1027FA00E030DE00DE0BFF2BDF0BFF2BE00BFF2BA5
:10280A00F72B831203134708CB004808CC0049086A
:10281A00CD0003104C0D4D0DCE004E08D400D40847
:10282A00031D202C0030CA000030C9000030C80047
:10283A000030C70008004708CB004808CC00490808
:10284A00CD0017300310CD0CCC0CCB0CFF3E031D72
:10285A00272C4B08CE004E08CF00C817FF30C705FB
:10286A00FF30C8050030C9054708D0004808D10024
:10287A004908D200D3018E30D402D41F622C5408E6
:10288A00803A8F3E0318522C0030CA000030C9002B
:10289A000030C8000030C700080001300310D30C14
:1028AA00D20CD10CD00CFF3E031D532C0130CB00AF
:1028BA004B08D40703197D2C522C18305402031CE0
:1028CA007A2C0030CA000030C9000030C80000303D
:1028DA00C70008000130CB000310D00DD10DD20D76
:1028EA00D30DCB0B712C0130D402D408031D6F2CED
:1028FA004F0803198B2CD009D109D209D309D00A60
:10290A000319D10A0319D20A0319D30A5308CA00B0
:10291A005208C9005108C8005008C70008008316A9
:10292A000317D101CA1FA62CC709C809C909CA09B0
:10293A00C70A0319C80A0319C90A0319CA0AD1011D
:10294A00D10ACE1FB72CCB09CC09CD09CE09CB0AA7
:10295A000319CC0A0319CD0A0319CE0A0130CF0094
:10296A004F08D1060030D5000030D4000030D30023
:10297A000030D2004A0849044804470403190C2DC0
:10298A00D001D00ACA1BD72C0130CF000310C70DC3
:10299A00C80DC90DCA0DCF0BCB2C0130CF004F0883
:1029AA00D007C72C0130CF000310D20DD30DD40DA0
:1029BA00D50DCF0BD92C4A084E02031DEE2C49081F
:1029CA004D02031DEE2C48084C02031DEE2C47084D
:1029DA004B02031CFF2C4708CB024808031C480F74
:1029EA00CC024908031C490FCD024A08031C4A0FAE
:1029FA00CE02521401300310CA0CC90CC80CC70C01
:102A0A00FF3E031D002D0130D002031DD72C5108B3
:102A1A0003191A2DD209D309D409D509D20A0319DF
:102A2A00D30A0319D40A0319D50A5508CA00540847
:102A3A00C9005308C8005208C700080083120313CC
:102A4A002A08AD002B08AE002C08AF0003102E0D8B
:102A5A002F0DB0003008B500B508031D3B2D00301E
:102A6A00A7000030A8000030A90008002708AD0020
:102A7A002808AE002908AF0003102E0D2F0DB00054
:102A8A003008B600B608031D512D0030A7000030EB
:102A9A00A8000030A90008000030B2000030B300DE
:102AAA000030B40089303607AD002D08B5022A0877
:102ABA00AD002B08AE002C08AF0010300310AF0C8D
:102ACA00AE0CAD0CFF3E031D632D2D08B00030087F
:102ADA00B6002708AD002808AE002908AF0010305C
:102AEA000310AF0CAE0CAD0CFF3E031D752D2D0867
:102AFA00B0003008B6068030AD002D08B605AB1719
:102B0A00FF30AA05FF30AB050030AC05A817FF302F
:102B1A00A705FF30A8050030A9051830AD002D081B
:102B2A00B10001300310B20DB30DB40DFF3E031D09
:102B3A00972D29082C02031DA82D28082B02031DF6
:102B4A00A82D27082A02031CB52D2708AA0228083F
:102B5A00031C280FAB022908031C290AAC023214F1
:102B6A0001300310AA0DAB0DAC0DFF3E031DB62DAF
:102B7A000130B102031D962D3208F0003308F1002E
:102B8A003408F2003508AD002D08F3003608AE000F
:102B9A002E08F4000A168A111E23700883120313E2
:102BAA00A7007108A8007208A90008007808831213
:102BBA000313A0007908A1007A08A2000310210DCE
:102BCA00220DA3002308A6007B08A0007C08A10010
:102BDA007D08A2000310210D220DA3002308A500E1
:102BEA0026080319042E2508260203180B2E26038D
:102BFA00FF3A2507A00019302002031C0B2E7B0880
:102C0A00F8007C08F9007D08FA0008002508031975
:102C1A0008002608250203181A2E2503FF3A26075C
:102C2A00A00019302002031808000630A00020086E
:102C3A00A400FA1BA417FD1B2417F917FF30F80587
:102C4A00FF30F9050030FA05FC17FF30FB05FF30AD
:102C5A00FC050030FD052508260203185A2E01300E
:102C6A000310FB0DFC0DFD0DFF3E031D352E01303B
:102C7A00A502250826060319552E0130A4022408A8
:102C8A0007390319552E342E01300310FA0CF90CAA
:102C9A00F80CFF3E031D4A2E0130A0002008A607AB
:102CAA00260825060319832E492E2608250203180D
:102CBA00832E01300310F80DF90DFA0DFF3E031DA6
:102CCA005F2E0130A6022508260603197F2E013041
:102CDA00A4022408073903197F2E5E2E013003103F
:102CEA00FD0CFC0CFB0CFF3E031D742E0130A000F2
:102CFA002008A50726082506031D732EA41F952E56
:102D0A00FF30F806FF30F906FF30FA060130F807FF
:102D1A00003003180130F907003003180130FA07B0
:102D2A00241FA72EFF30FB06FF30FC06FF30FD06EE
:102D3A000130FB07003003180130FC07003003188C
:102D4A000130FD07A4017808FB077908031103186D
:102D5A00790A031DFC077A08031103187A0A031D6E
:102D6A00FD07FD1FCA2EFF30FB06FF30FC06FF30B1
:102D7A00FD060130FB07003003180130FC07003064
:102D8A0003180130FD07A401A40A7B08F0007C089F
:102D9A00F1007D08F2002608A0002008F3002408AC
:102DAA00A1002108F4000A168A111E237008F800EF
:102DBA007108F9007208FA00080000308312031340
:102DCA00C3000030C4000030C5003A08A0003B0828
:102DDA00A1003C08A2003708A3003808A40039085B
:102DEA00A5000A168A11BF220A168A110318EF2FA4
:102DFA00831203133A08A0003B08A1003C08A20072
:102E0A003708A3003808A4003908A5000A168A1151
:102E1A00BF220A168A110318592F831203133D0879
:102E2A00A0003E08A1003F08A2003708A300380806
:102E3A00A4003908A5000A168A11BF220A168A11A7
:102E4A00031C592F831203133D08F8003E08F900AA
:102E5A003F08FA003A08F0003B08F1003C08F2008B
:102E6A000A168A11D5200A168A117008FB00710801
:102E7A00FC007208FD000A168A11DB250A168A115F
:102E8A00780883120313A7007908A8007A08A90012
:102E9A003708F8003808F9003908FA003A08F0004B
:102EAA003B08F1003C08B42F831203133D08A0002D
:102EBA003E08A1003F08A2003708A3003808A40072
:102ECA003908A5000A168A11BF220A168A110318A0
:102EDA00DA2F831203134008A0004108A100420818
:102EEA00A2003708A3003808A4003908A5000A166A
:102EFA008A11BF220A168A11031CDA2F83120313BE
:102F0A003D08F8003E08F9003F08FA004008F000C2
:102F1A004108F1004208F2000A168A11D5200A1661
:102F2A008A117008FB007108FC007208FD000A167D
:102F3A008A11DB250A168A11780883120313A7005F
:102F4A007908A8007A08A9003708F8003808F900B3
:102F5A003908FA004008F0004108F1004208F2007E
:102F6A000A168A11D5200A168A117008FB00710800
:102F7A00FC007208FD000A168A11DB250A168A115E
:102F8A00780883120313AA007908AB007A08AC0008
:102F9A000A168A1123250A168A118312031327088F
:102FAA00C3002808C4002908F62F83120313400817
:102FBA00A0004108A1004208A2003708A30038086F
:102FCA00A4003908A5000A168A11BF220A168A1116
:102FDA000318F72F003083120313C3000030C40014
:102FEA000030C500831203134308B7004408B80031
:062FFA004508B9000800C3
:02400E0032FF7F
:00000001FF
