:060000000A128A11122809
:10000800FE00030E83120313E0000408E1000A084F
:10001800E2007F08E3000A128A1137280A128A11BF
:1000280015288313A0308400C9300A128A1570205D
:100038000A128A11831790308400A8300A128A1590
:1000480070200A128A11831603130A128A11FC27D8
:100058000A128A11EB000A128A11FD27EC008301AB
:100068000A128A15202F8C1ED4280A128A15F1200C
:100078000A128A1183120313DE005E08EE006E086E
:10008800233A031D4C2883160313BC01BD015428D1
:10009800013083160313BC070318BD0A0030BD07DF
:1000A800831203136E08DE00831603133C08973E81
:1000B8008400831203135E088317800083160313DA
:1000C8003D08803AFF0080307F02031D6D2806300E
:1000D8003C02031CD12883160313BC01BD018316FF
:1000E80003171808413A031981281908413A0319D6
:1000F80081281A08413A031D87280A128A11B22753
:100108000A128A11D128831603171708233A031DE8
:10011800D1281808243A031DD12819083A3A031D92
:10012800D12883120313EA01EF0106306F02031886
:10013800AD286F08973E840083170008DE005E082C
:10014800EA060130DE005E08EF0706306F02031C86
:100158009D28831603171D08831203136A06031DBF
:10016800D128831603171A0883120313DE00DF0150
:100178005E08DF00DE01831603171B0883120313D2
:100188005E0783160313C000003003180130831282
:1001980003135F0783160313C100831203138C1222
:1001A8000C1B0C130B1DBF2BEE300A168A11FA27F5
:1001B8000A128A110130831603133102F33003192E
:1001C80030020318F1280130B0070318B10A0030D3
:1001D800B107831203130617BE2B83160313B0014E
:1001E800B101831203130F0883160313B901B9076A
:1001F800831203130E0883160313B801B8073908CE
:10020800F901F9073808F801F8070A128A15AF202A
:100218000A128A11780883120313B3007908B4000C
:100228007A08B5000030B000E030B1004030B200CC
:100238000A128A1595250A128A11831203133008A7
:10024800C3003108C4003208C5000030C000F030D7
:10025800C1004230C2000A128A154D260A128A11BC
:10026800831203134008D0004108D1004208D2008D
:100278000A128A1578240A128A1183120313510864
:1002880083160313BF01BF07831203135008831695
:100298000313BE01BE073708B501B5073608B40118
:1002A800B4073E0983120313DE00831603133F09C4
:1002B80083120313DF00DE0A0319DF0A8316031310
:1002C8004008831203135E0783160313B600410820
:1002D8000318410A831203135F0783160313B70039
:1002E800340983120313DE008316031335098312BE
:1002F8000313DF00DE0A0319DF0A83160313360827
:10030800831203135E0783160313B200370803181A
:10031800370A831203135F0783160313B300B03041
:1003280083120313C9001A30CA004630CB000030CC
:10033800C6000030C7000030C800B030C3001A3013
:10034800C400C630C500831603133708F901F9073E
:100358003608F801F8070A128A1560210A128A116C
:10036800780883120313C0007908C1007A08C20014
:100378000A128A1185250A128A118312031340086A
:10038800EB004108EC004208ED000030A30080308B
:10039800A4003F30A5006B08A0006C08A1006D0800
:1003A800A2000A128A1578200A128A1183120313EE
:1003B8002008A6002108A7002208A8000A128A110E
:1003C800A9260A128A11831203132308831603131A
:1003D800A30083120313240883160313A4008312B3
:1003E8000313250883160313A500B03083120313E3
:1003F800C9001A30CA004630CB000030C6000030B1
:10040800C7000030C800B030C3001A30C400C6307E
:10041800C500831603133308F901F9073208F801F8
:10042800F8070A128A1560210A128A1178088312BD
:100438000313C0007908C1007A08C2000A128A11A1
:1004480085250A128A11831203134008EB0041081C
:10045800EC004208ED000030A3008030A4003F30DB
:10046800A5006B08A0006C08A1006D08A2000A1284
:100478008A1578200A128A11831203132008A6000D
:100488002108A7002208A8000A128A11A9260A1220
:100498008A1183120313230883160313A0008312FF
:1004A8000313240883160313A100831203132508DA
:1004B80083160313A2002008F0002108F100220887
:1004C800F2002308F3002408F4002508F5000A12B6
:1004D8008A1548230A128A11031C7A2A83160313E1
:1004E8002008C6002108C7002208812A83160313A2
:1004F8002308C6002408C7002508C8003708803A22
:10050800FF0080307F02031D8B2A0130360203185A
:10051800932AFF3083120313E400FF30982A013036
:1005280083120313E4000030E50083160313460822
:1005380083120313C000831603134708831203139F
:10054800C10083160313480883120313C200650809
:10055800F101F1076408F001F0076430F20000309F
:10056800F3000A128A15C3210A128A117108F901C7
:10057800F9077008F801F8070A128A1560210A12AB
:100588008A11780883120313C3007908C4007A0813
:10059800C5000A128A154D260A128A1183120313FE
:1005A800400883160313A900831203134108831616
:1005B8000313AA0083120313420883160313AB0024
:1005C8006C086B040319AC2B290883120313D000A1
:1005D800831603132A0883120313D1008316031307
:1005E8002B0883120313D2000A128A1578240A12E0
:1005F8008A11831603133A08831203135007DE0087
:10060800831603133B0803183B0A8312031351078D
:10061800DF0003305F02FF3003195E02031C182B52
:10062800FF30E60003303E2B83160313290883129C
:100638000313D000831603132A0883120313D1006F
:10064800831603132B0883120313D2000A128A1588
:1006580078240A128A11831603133A0883120313A3
:100668005007E600831603133B0803183B0A83125E
:1006780003135107E70067086604031D462B83161A
:100688000313AC2B83160313290883120313D0001A
:10069800831603132A0883120313D1008316031346
:1006A8002B0883120313D2000A128A1578240A121F
:1006B8008A11831603133A08831203135007DE00C6
:1006C800831603133B0803183B0A831203135107CD
:1006D800DF0003305F02FF3003195E02031C782B32
:1006E800FF30E80003309E2B83160313290883127A
:1006F8000313D000831603132A0883120313D100AF
:10070800831603132B0883120313D2000A128A15C7
:1007180078240A128A11831603133A0883120313E2
:100728005007E800831603133B0803183B0A83129B
:1007380003135107E900690883160313BB01BB07BC
:1007480083120313680883160313BA01BA07AE2B82
:10075800BA01BB013B08F101F1073A08F001F007C3
:100768000A128A1509210A128A11831203138E01AB
:100778008F0106130B110C180C108C198C116308BF
:10078800FF0062088A0061088400600E8300FE0E84
:100798007E0E090083160313E600D830DA005A08E3
:1007A800DD00013083160313D707FF305707840095
:1007B8000A128A150A200A128A11DA005A08E70072
:1007C800E70803197E2D6708253A0319F72B6708F0
:1007D800DA00660884005A08831780000130DA00BE
:1007E8005A08E607D52BE401E501E301002C63155F
:1007F8000130DA005A08D707570884000A128A1508
:100808000A200A128A11303A0319FB2B0B2C5708BD
:1008180084000A128A150A200A128A110A128A15F5
:100828008D200A128A11031C5B2C83160313E40122
:10083800E5010A3083160313C9000030CA006508B1
:10084800CC01CC076408CB01CB070A128A150A220F
:100858000A128A11831603134A08E501E5074908B5
:10086800E401E407570884000A128A150A200A12CC
:100878008A11D03EDA00FF3003180030DB005A0836
:10088800E4070318E50A5B08E5070130DA005A08AF
:10089800D707570884000A128A150A200A128A11F3
:1008A8000A128A158D200A128A1103181D2C01308C
:1008B80083160313D707FF30570784000A128A15D7
:1008C8000A200A128A11E700003A03197E2D643AB9
:1008D8000319722C0D3A0319722CD52B83160313A6
:1008E8005D08840083130008DF00840A0008E00024
:1008F8000230DA005A08DD07E01F8B2C0330DA00DB
:100908005A08E304DF09E009DF0A0319E00AE701EE
:10091800E70A6708053A0319B22C6708DA005A078C
:10092800013E84000A128A150A200A128A11DB0085
:100938000A128A150A200A128A11DC005C08600271
:10094800031DA82C5B085F02031CB22C0130DA00DF
:100958005A08E7076708053A031D912C65086404DF
:100968000319C02C630803390319C02CFF30E407AE
:100978000318E50AFF30E5076708DA00DB01DA1B30
:10098800DB035B08803ADC006508803A5C02031DE3
:10099800CF2C64085A020318DF2C83160313670848
:1009A800DA00DB01DA1BDB035A08E4025B08031CEC
:1009B800E503E502E32C83160313E401E501631D57
:1009C8000A2D630803390319F42C2D30DA00660860
:1009D80084005A08831780000130DA005A08E607B5
:1009E800650864040319322D3030DA006608840083
:1009F8005A08831780000130DA005A08E607FF30EA
:100A0800E4070318E50AFF30E507F42C65086404D9
:100A18000319232D2030DA00660884005A0883174A
:100A280080000130DA005A08E607FF30E4070318AF
:100A3800E50AFF30E50765086404031D0E2D630809
:100A480003390319322D2D30DA00660884005A085C
:100A5800831780000130DA005A08E6076708DA00D1
:100A68005A08DE00FF30DA005A08DE075E08FF3A4F
:100A78000319D52B0A30D1000030D2005E08DA0005
:100A88005A07013E84000A128A150A200A128A119E
:100A9800C9000A128A150A200A128A11CA006008B7
:100AA800CC01CC075F08CB01CB070A128A15BF22FD
:100AB8000A128A11831603134A08D401D407490875
:100AC800D301D3070A128A1589220A128A118316BA
:100AD80003135108303EDB005B08E7006708DA00C3
:100AE800660884005A08831780000130DA005A0823
:100AF800E607362D831603136608840083178001E2
:100B08000800003083120313CC000030CD00003001
:100B1800CE004308F0004408F1004508F200400800
:100B2800F3004108F4004208F5000A128A15482328
:100B38000A128A110318982E831203134308F0002F
:100B48004408F1004508F2004008F3004108F400A9
:100B58004208F5000A128A1548230A128A11031856
:100B6800FE2D831203134608F0004708F1004808D9
:100B7800F2004008F3004108F4004208F5000A12A8
:100B88008A1548230A128A11031CFE2D83120313A7
:100B98004608A3004708A4004808A5004308A00089
:100BA8004408A1004508A2000A128A1578200A12F2
:100BB8008A11831203132008A6002108A70022081F
:100BC800A8000A128A11A9260A128A11831203138D
:100BD8002308B0002408B1002508B2004008A3008B
:100BE8004108A4004208A5004308A0004408A10049
:100BF80045085B2E831203134608F0004708F100EE
:100C08004808F2004008F3004108F4004208F500E3
:100C18000A128A1548230A128A110318832E83128E
:100C280003134908F0004A08F1004B08F200400895
:100C3800F3004108F4004208F5000A128A15482317
:100C48000A128A11031C832E831203134608A30079
:100C58004708A4004808A5004908A0004A08A100C0
:100C68004B08A2000A128A1578200A128A118312E8
:100C780003132008A6002108A7002208A8000A12CA
:100C88008A11A9260A128A11831203132308B000B5
:100C98002408B1002508B2004008A3004108A400B8
:100CA8004208A5004908A0004A08A1004B08A20074
:100CB8000A128A1578200A128A118312031320084F
:100CC800A6002108A7002208A8000A128A11A9264E
:100CD8000A128A11831203132308B3002408B400EC
:100CE8002508B5000A128A1595250A128A11831259
:100CF80003133008CC003108CD0032089F2E831230
:100D080003134908F0004A08F1004B08F2004008B4
:100D1800F3004108F4004208F5000A128A15482336
:100D28000A128A110318A02E003083120313CC0074
:100D38000030CD000030CE00831203134C08C000F1
:100D48004D08C1004E08C20008008312031323088F
:100D5800A9002408AA002508AB0003102A0D2B0DB2
:100D6800AC002C08AF002608A9002708AA0028080C
:100D7800AB0003102A0D2B0DAC002C08AE002F0879
:100D88000319D22E2E082F020318D92E2F03FF3A4B
:100D98002E07A90019302902031CD92E2608A30002
:100DA8002708A4002808A50008002E080319080031
:100DB8002F082E020318E82E2E03FF3A2F07A9004A
:100DC80019302902031808000630A9002908AD00C7
:100DD800A51BAD17A81B2D17A417FF30A305FF30BF
:100DE800A4050030A505A717FF30A605FF30A70505
:100DF8000030A8052E082F020318282F01300310F1
:100E0800A60DA70DA80DFF3E031D032F0130AE024E
:100E18002E082F060319232F0130AD022D0807399C
:100E28000319232F022F01300310A50CA40CA30CC7
:100E3800FF3E031D182F0130A9002908AF072F080E
:100E48002E060319512F172F2F082E020318512F82
:100E580001300310A30DA40DA50DFF3E031D2D2F7A
:100E68000130AF022E082F0603194D2F0130AD02B5
:100E78002D08073903194D2F2C2F01300310A80C0A
:100E8800A70CA60CFF3E031D422F0130A90029081C
:100E9800AE072F082E06031D412FAD1F632FFF300D
:100EA800A306FF30A406FF30A5060130A3070030D3
:100EB80003180130A407003003180130A5072D1FBF
:100EC800752FFF30A606FF30A706FF30A8060130B1
:100ED800A607003003180130A707003003180130B7
:100EE800A807AD012308A607240803110318240A3C
:100EF800031DA707250803110318250A031DA807C2
:100F0800A81F982FFF30A606FF30A706FF30A806B7
:100F18000130A607003003180130A7070030031876
:100F28000130A807AD01AD0A2608F0002708F10036
:100F38002808F2002F08A9002908F3002D08AA00A4
:100F48002A08F4000A128A15A523700883120313CD
:100F5800A3007108A4007208A50008002330F1005E
:100F680071088316031790002430F100710891006E
:100F78003A30F10071089200831603133F08F1001C
:100F88007108831603179300831603133E08F100B4
:100F980071088316031794009501F201F3010630D6
:100FA80073020318F12F7308903E8400831700081A
:100FB8000A128A1560200A128A117308903E84006A
:100FC80083170008F1007108F2060130F10071087A
:100FD800F30706307302031CD72F7208F10071085B
:100FE80083160317960016080A128A15602008004F
:040FF800013400348C
:10100000FF1B0A2883137F1883170008840A03191B
:10101000FF0A080008308A000408840A82070034A6
:10102000013400340A34003464340034E8340334C6
:10103000103427340A340D3420342D342D342D341B
:101040002D342D342D342D34203445345334543440
:101050004F34553452344F342034443445342034E2
:10106000503449344C344834413420342D342D34F8
:101070002D342D342D342D342D3420340A340D34B8
:101080002034003449346E34693463346934613453
:101090006C3469347A3461346E3464346F342E3491
:1010A0002E342E340034523450344D343A342034FB
:0C10B0000034253430343434643400340F
:1010C000F000831203130C1E6128700899000800B9
:1010D00083160313C9004908831203138100080013
:1010E00064008001840A0406031900340406712890
:1010F00083120313220821042004031908008030FE
:10110000A206080083160313811201128111011532
:10111000811401140B118B16080083160313CA00E7
:10112000C9013A304A0203189B2830304A02031C96
:101130009B28C901C90A490C0800831603139F178D
:101140009F151F159F141F10831203139F171F1342
:10115000831603130C13831203130C13080078086F
:10116000F0007908F100F2018E30FB007B08F300FB
:10117000F4010A128A15A5237008F8007108F90015
:101180007208FA00080083160313CA0083120313BF
:101190000910831603134A08831203138800891465
:1011A0003D3083160313C900C90BD42883120313DF
:1011B0008910080083160313CA008312031309144D
:1011C000831603134A0883120313880089143D30E1
:1011D00083160313C900C90BEB288312031389106C
:1011E0000800831203139818FA281A08F3007308EA
:1011F000F40006290B300A128A15242183120313E6
:1012000018121A08F3007308F40018168C127408E8
:1012100008007108F3007008F200730DF30CF20C73
:10122000730DF30CF20C7208831203139B00700809
:10123000F20003300310F20DFF3E031D1A290310C4
:10124000720D0C389D000800F200720884000A122A
:101250008A150A200A128A15003803190800720834
:1012600084000A128A150A200A128A150A128A159F
:1012700060200A128A150130F1007108F207252951
:1012800083160313CB008312031309108316031371
:10129000CB08031D4E294908803E522983160313AB
:1012A0004908C03E83120313880089143D30831619
:1012B0000313CA00CA0B5A298312031389100800AA
:1012C000FD01F91F6A29F809F909F80A0319F90A51
:1012D000FD01FD0A7808F0007908F100F2018E3076
:1012E000FB007B08F3007D08FC007C08F4000A1278
:1012F0008A15A5237008F8007108F9007208FA0031
:101300000800831603134A08CC004908CB004C0D93
:10131000CC0CCB0C4C0DCC0CCB0C4B088312031318
:101320009500831603134908CB0003300310CB0D3F
:10133000FF3E031D962903104B0D0C388312031337
:1013400097000800831603134A08CC004908CB0015
:101350004C0DCC0CCB0C4C0DCC0CCB0C4B08831295
:1013600003139B00831603134908CB0003300310BB
:10137000CB0DFF3E031DB72903104B0D0C38831214
:1013800003139D000800F401F501701CCD297208BB
:10139000F4070318F50A7308F50701300310F20D7E
:1013A000F30DFF3E031DCE2901300310F10CF00CAC
:1013B000FF3E031DD52971087004031DC52975085A
:1013C000F101F1077408F001F0070800831203131C
:1013D0009214121012139212121292111215FF305F
:1013E000831603139200831203139715171597148E
:1013F0001714831603130C15831203130C119D1578
:101400001D159D141D14831603130D14831203134D
:101410000D10080083160313CD01CE01491C162AB6
:101420004B08CD070318CE0A4C08CE070130031035
:10143000CB0DCC0DFF3E031D172A01300310CA0C43
:10144000C90CFF3E031D1E2A4A084904031D0E2A2B
:101450004E08CA01CA074D08C901C9070800013072
:101460000A128A15C3200A128A150C308316031338
:10147000CC00F730CB00CB0B3B2ACC0B3B2A0C30FB
:101480000A128A15C3200A128A153D3083160313E7
:10149000CB00CB0B492A06300A128A15C3200A1248
:1014A0008A153D3083160313CB00CB0B552A080059
:1014B000831603134C0883120313FF0083160313D0
:1014C0004B088400831203130A128A1500200A12A3
:1014D0008A15003803190800831603134C08831279
:1014E0000313FF00831603134B08840083120313B6
:1014F0000A128A1500200A128A150A128A15DA20A1
:101500000A128A15013083160313CB070318CC0A7D
:10151000582A83160313520851040319B82AD60116
:10152000D60AD21B9F2A01300310D10DD20DFF3EE7
:10153000031D942A0130D5005508D607912A520878
:101540005402031DA52A51085302031CAD2A510859
:10155000D3025208031CD403D40201300310D20C6E
:10156000D10CFF3E031DAE2A0130D602031D9F2A77
:101570005408D201D2075308D101D10708008316BD
:101580000313CE01CF014A0849040319F82AD001F8
:10159000D00ACA1BD72A01300310C90DCA0DFF3E5D
:1015A000031DCC2A0130CD004D08D007C92A0130D7
:1015B0000310CE0DCF0DFF3E031DD82A4A084C0262
:1015C000031DE42A49084B02031CED2A4908CB02FB
:1015D0004A08031CCC03CC024E1401300310CA0C81
:1015E000C90CFF3E031DEE2A0130D002031DD72A8D
:1015F0004F08CA01CA074E08C901C9070800831667
:1016000003135808DC005908DD005A08DE005B08A7
:10161000DF0004300310DC0DDD0DDE0DDF0DFF3EBD
:10162000031D0A2B5F08CC005E08CB005D08CA00D2
:101630005C08C9000130D0001930CF004030CE0026
:101640000030CD000A128A150625831603134908B7
:10165000FF3E99009813181398161812181598142D
:10166000181083120313981718139812181698114C
:10167000181198101810831603130C1283120313F9
:101680000C12831603138C16831203138C1208009A
:10169000F21F6F2B0030F6000030F7008030F800AA
:1016A0007009F9007109FA007209FB00F90A0319BF
:1016B000FA0A0319FB0A7908F6077A0803187A0F61
:1016C000622B632BF7077B0803187B0F682B692BB2
:1016D000F8077608F0007708F1007808F200F51FA7
:1016E000962B0030F6000030F7008030F8007309C8
:1016F000F9007409FA007509FB00F90A0319FA0ADE
:101700000319FB0A7908F6077A0803187A0F892B60
:101710008A2BF7077B0803187B0F8F2B902BF8077A
:101720007608F3007708F4007808F5008030F206B8
:101730008030F50675087202031D080074087102F6
:10174000031D080073087002080073080319AD2B0D
:10175000720871047004031DC02B0030F0000030CB
:10176000F1000030F20008000130F5007508F307C1
:1017700001300310F20CF10CF00CFF3E031DB92BED
:10178000FE3072050319DB2BB42B0130F500750810
:10179000F3070130F007003003180130F107003083
:1017A00003180130F20701300310F20CF10CF00CB9
:1017B000FF3E031DD42BFF3072050319EA2BC52B06
:1017C0000130F30201300310F00DF10DF20DFF3E78
:1017D000031DE32BF11FE02B7318F42BFF30F005F2
:1017E0007F30F105FF30F2050310F30C7308F500AC
:1017F000F601F70110300310F50DF60DF70DFF3E61
:10180000031DFB2B7508F0047608F1047708F20439
:10181000740803190800F2170800831603139F11B8
:101820001F159F101F105A30CC00C330CB00CB0BBC
:10183000172CCC0B172C30300A128A15C3200A1231
:101840008A15183083160313CC00EF30CB00CB0B76
:10185000272CCC0B272C30300A128A15C3200A12F1
:101860008A15993083160313CB00CB0B352C3030FF
:101870000A128A15C3200A128A153D3083160313F3
:10188000CB00CB0B412C38300A128A15C3200A1228
:101890008A153D3083160313CB00CB0B4D2C013042
:1018A0000A128A15C3200A128A150C3083160313F4
:1018B000CC00F730CB00CB0B5B2CCC0B5B2C0C3073
:1018C0000A128A15C3200A128A153D3083160313A3
:1018D000CB00CB0B692C06300A128A15C3200A12E2
:1018E0008A153D3083160313CB00CB0B752C0800F3
:1018F000831203135008D4005108D5005208D600B3
:101900000310550D560DD7005708DD00DD08031DE7
:10191000922C0030D3000030D2000030D1000030D3
:10192000D00008005008D4005108D5005208D60055
:1019300017300310D60CD50CD40CFF3E031D992C88
:101940005408D7005708D800D117FF30D005FF3012
:10195000D1050030D2055008D9005108DA005208EC
:10196000DB00DC018E30DD02DD1FD42C5D08803A07
:101970008F3E0318C42C0030D3000030D20000305A
:10198000D1000030D000080001300310DC0CDB0C6B
:10199000DA0CD90CFF3E031DC52C0130D4005408CD
:1019A000DD070319EF2CC42C18305D02031CEC2C4E
:1019B0000030D3000030D2000030D1000030D00021
:1019C00008000130D4000310D90DDA0DDB0DDC0D59
:1019D000D40BE32C0130DD02DD08031DE12C580897
:1019E0000319FD2CD909DA09DB09DC09D90A031925
:1019F000DA0A0319DB0A0319DC0A5C08D3005B0866
:101A0000D2005A08D1005908D000080083160313E9
:101A1000D301CC1F182DC909CA09CB09CC09C90AA1
:101A20000319CA0A0319CB0A0319CC0AD301D30A32
:101A3000D01F292DCD09CE09CF09D009CD0A031910
:101A4000CE0A0319CF0A0319D00A0130D100510878
:101A5000D3060030D7000030D6000030D50000306B
:101A6000D4004C084B044A04490403197E2DD201CA
:101A7000D20ACC1B492D0130D1000310C90DCA0D6B
:101A8000CB0DCC0DD10B3D2D0130D1005108D2072B
:101A9000392D0130D1000310D40DD50DD60DD70D41
:101AA000D10B4B2D4C085002031D602D4B084F02EB
:101AB000031D602D4A084E02031D602D49084D028A
:101AC000031C712D4908CD024A08031C4A0FCE029F
:101AD0004B08031C4B0FCF024C08031C4C0FD002C9
:101AE000541401300310CC0CCB0CCA0CC90CFF3EB3
:101AF000031D722D0130D202031D492D5308031915
:101B00008C2DD409D509D609D709D40A0319D50AC9
:101B10000319D60A0319D70A5708CC005608CB0078
:101B20005508CA005408C90008008312031333087B
:101B3000B6003408B7003508B8000310370D380D6B
:101B4000B9003908BE00BE08031DAD2D0030B0003D
:101B50000030B1000030B20008003008B600310893
:101B6000B7003208B8000310370D380DB900390836
:101B7000BF00BF08031DC32D0030B0000030B1000E
:101B80000030B20008000030BB000030BC00003064
:101B9000BD0089303F07B6003608BE023308B600E4
:101BA0003408B7003508B80010300310B80CB70C73
:101BB000B60CFF3E031DD52D3608B9003908BF000D
:101BC0003008B6003108B7003208B80010300310F2
:101BD000B80CB70CB60CFF3E031DE72D3608B90054
:101BE0003908BF068030B6003608BF05B417FF308D
:101BF000B305FF30B4050030B505B117FF30B005AF
:101C0000FF30B1050030B2051830B6003608BA0012
:101C100001300310BB0DBC0DBD0DFF3E031D092E91
:101C200032083502031D1A2E31083402031D1A2E04
:101C300030083302031C272E3008B3023108031C7E
:101C4000310FB4023208031C320AB5023B140130D2
:101C50000310B30DB40DB50DFF3E031D282E01304A
:101C6000BA02031D082E3B08F0003C08F1003D08B5
:101C7000F2003E08B6003608F3003F08B700370808
:101C8000F4000A128A15A523700883120313B0000A
:101C90007108B1007208B2000800831203134008F3
:101CA000C6004108C7004208C8000310470D480D90
:101CB000C9004908CA00CA08031D652E0030C000CB
:101CC0000030C1000030C20008004308C6004408CC
:101CD000C7004508C8000310470D480DC900490852
:101CE000CF00CF08031D7B2E0030C0000030C100A4
:101CF0000030C20008004F087B3EC6004608CA07F5
:101D00004008C6004108C7004208C8001030031050
:101D1000C80CC70CC60CFF3E031D872E4608C90021
:101D20004908CF004308C6004408C7004508C8005A
:101D300010300310C80CC70CC60CFF3E031D992EB3
:101D40004608C9004908CF068030C6004608CF05BE
:101D5000C117C417FF30C305FF30C4050030C505E7
:101D60000030CB000030CC000030CD000730C60082
:101D70004608CE00401CCA2E4308CB074408031176
:101D80000318440A031DCC07450803110318450A2C
:101D9000031DCD0701300310C20CC10CC00CFF3E67
:101DA000031DCB2E01300310C30DC40DC50DFF3E26
:101DB000031DD32E0130CE02031DBA2E0930C600FA
:101DC0004608CE00401CF22E4308CB0744080311FE
:101DD0000318440A031DCC07450803110318450ADC
:101DE000031DCD0701300310C20CC10CC00CFF3E17
:101DF000031DF32E01300310CD0CCC0CCB0CFF3E99
:101E0000031DFB2E0130CE02031DE22E4B08F00015
:101E10004C08F1004D08F2004A08C6004608F300DD
:101E20004F08C7004708F4000A128A15A523700856
:101E300083120313C0007108C1007208C2000800B9
:101E400001308316031385000130831203138500CC
:101E500083160313860183120313860181308316D0
:101E600003138700C0308312031387008316031304
:101E700088018312031388018316031389018312D7
:101E800003138901033090008E018F010030831607
:101E90000313DB000130DA00C230D9000030D80073
:101EA0000A128A15FF220A128A150A128A1582203E
:101EB0000A128A150A128A159D200A128A150A1218
:101EC0008A15E6210A128A150A128A150D240A12A9
:101ED0008A150B178B170A128A150D240A128A15F8
:101EE00083160313C90100300A128A1540210A1211
:101EF0008A15333083160313CB008030CC000A12CE
:101F00008A1558220A128A15003083160313C90055
:101F10000030CA000A128A1581210A128A1500307F
:101F200083160313C9000030CA000A128A15A221C1
:101F30000A128A15EE300A128A1568200A128A15CA
:101F4000183083160313EA006130E9006E30E800B0
:101F5000E80BA82FE90BA82FEA0BA82F00004A30A6
:101F600083160313E8006808D7003F08D901D90792
:101F70003E08D801D8079E300A128A11CE230A12D1
:101F80008A150A128A152F220A128A15831603133C
:101F9000C90100300A128A1540210A128A154430FC
:101FA00083160313CB008030CC000A128A15582206
:101FB0000A128A15063083160313E8006808C90060
:101FC00000300A128A1540210A128A159E308316A3
:101FD0000313CB000130CC000A128A1558220A12D2
:101FE0008A15053083160313EA00AD30E900E030AE
:101FF000E800E80BF92FE90BF92FEA0BF92FAF2FC7
:0C2FF400F0007008831203138100080035
:02400E0032FF7F
:00000001FF
