:060000000A128A11122809
:10000800FE00030E83120313D0000408D1000A086F
:10001800D2007F08D3000A128A11582C0A128A11BA
:100028001528FC01FD0183135430840069300A123D
:100038008A156A260A128A11C2308400DA300A1236
:100048008A156A260A128A110A128A11FE270A12CA
:100058008A11E9000A128A11FF27EA0083010A12AD
:100068008A11ED2983160313BD00AF30B1003108A2
:10007800B400013083160313AE07FF302E07840047
:100088000A128A110A270A128A11B1003108BE0021
:10009800BE080319E6293E08253A03195F283E08D9
:1000A800B1003D0884003108831380000130B1009D
:1000B8003108BD073D28BB01BC01BA0168283A15C3
:1000C8000130B1003108AE072E0884000A128A11E7
:1000D8000A270A128A11303A0319632873282E084E
:1000E80084000A128A110A270A128A110A128A152A
:1000F8007D260A128A11031CC32883160313BB0129
:10010800BC010A3083160313A0000030A1003C088C
:10011800A301A3073B08A201A2070A128A154B27CD
:100128000A128A11831603132108BC01BC07200890
:10013800BB01BB072E0884000A128A110A270A127B
:100148008A11D03EB100FF3003180030B2003108E8
:10015800BB070318BC0A3208BC070130B1003108DC
:10016800AE072E0884000A128A110A270A128A1179
:100178000A128A157D260A128A1103188528013069
:1001880083160313AE07FF302E0784000A128A1164
:100198000A270A128A11BE00003A0319E629643AAE
:1001A8000319DA280D3A0319DA283D2883160313B0
:1001B8003408840083130008B600840A0008B700D6
:1001C8000230B1003108B407B71FF3280330B1007B
:1001D8003108BA04B609B709B60A0319B70ABE0145
:1001E800BE0A3E08053A03191A293E08B10031072C
:1001F800013E84000A128A110A270A128A11B200E3
:100208000A128A110A270A128A11B3003308370220
:10021800031D102932083602031C1A290130B100C7
:100228003108BE073E08053A031DF9283C083B047F
:10023800031928293A08033903192829FF30BB076D
:100248000318BC0AFF30BC073E08B100B201B11B5D
:10025800B2033208803AB3003C08803A3302031DE7
:1002680037293B08310203184729831603133E0830
:10027800B100B201B11BB2033108BB023208031C42
:10028800BC03BC024B2983160313BB01BC013A1DF6
:1002980072293A08033903195C292D30B1003D0849
:1002A80084003108831380000130B1003108BD0794
:1002B8003C083B0403199A293030B1003D088400FA
:1002C8003108831380000130B1003108BD07FF30C9
:1002D800BB070318BC0AFF30BC075C293C083B0479
:1002E80003198B292030B1003D088400310883139D
:1002F80080000130B1003108BD07FF30BB0703188B
:10030800BC0AFF30BC073C083B04031D76293A08A9
:10031800033903199A292D30B1003D0884003108AA
:10032800831380000130B1003108BD073E08B100D9
:100338003108B500FF30B1003108B5073508FF3A7C
:1003480003193D280A30A8000030A9003508B1007B
:100358003107013E84000A128A110A270A128A11FB
:10036800A0000A128A110A270A128A11A100370866
:10037800A301A3073608A201A2070A128A11A72718
:100388000A128A11831603132108AB01AB07200850
:10039800AA01AA070A128A15CA270A128A118316FD
:1003A80003132808303EB2003208BE003E08B100F0
:1003B8003D0884003108831380000130B100310802
:1003C800BD079E29831603133D088400831380010B
:1003D80008000130831603138500013083120313CC
:1003E8008500831603138601831203138601813067
:1003F800831603138700C030831203138700831604
:1004080003138801831203138801831603138901D8
:10041800831203138901033090008E018F0100308D
:1004280083160313B2000130B100C230B0000030AF
:10043800AF000A128A115E270A128A110A128A1557
:1004480072260A128A110A128A158D260A128A1130
:100458000A128A1527270A128A110A128A110D26EA
:100468000A128A110B178B170A128A110D260A1203
:100478008A1183160313A00100300A128A11E0269C
:100488000A128A11333083160313A2008030A300A6
:100498000A128A1599270A128A1100308316031343
:1004A800A0000030A1000A128A15E5260A128A1156
:1004B800003083160313A0000030A1000A128A1529
:1004C80006270A128A11EE300A128A1562260A12C3
:1004D8008A11183083160313C1006130C0006E30D2
:1004E800BF00BF0B752AC00B752AC10B752A000007
:1004F8004A3083160313BF003F08AE007D08B001E1
:10050800B0077C08AF01AF07D0300A128A11362035
:100518000A128A110A128A1570270A128A1183167A
:100528000313A00100300A128A11E0260A128A1168
:10053800443083160313A2008030A3000A128A15E0
:1005480099270A128A11063083160313BF003F0841
:10055800A00000300A128A11E0260A128A11D0304F
:1005680083160313A2000030A3000A128A159927E4
:100578000A128A11053083160313C100AD30C0007A
:10058800E030BF00BF0BC62AC00BC62AC10BC62A63
:100598007C2A831203133008B6003108B7003208EA
:1005A800B8000310370D380DB9003908BA00BA0879
:1005B800031DE52A0030B0000030B1000030B20061
:1005C80008003308B6003408B7003508B80003102F
:1005D800370D380DB9003908BF00BF08031DFB2AC5
:1005E8000030B0000030B1000030B20008003F0811
:1005F8007B3EB6003608BA073008B6003108B700A7
:100608003208B80010300310B80CB70CB60CFF3E17
:10061800031D072B3608B9003908BF003308B60098
:100628003408B7003508B80010300310B80CB70C00
:10063800B60CFF3E031D192B3608B9003908BF0652
:100648008030B6003608BF05B117B417FF30B305C0
:10065800FF30B4050030B5050030BB000030BC00E9
:100668000030BD000730B6003608BE00301C4A2BEB
:100678003308BB07340803110318340A031DBC07E9
:10068800350803110318350A031DBD07013003108F
:10069800B20CB10CB00CFF3E031D4B2B0130031004
:1006A800B30DB40DB50DFF3E031D532B0130BE0233
:1006B800031D3A2B0930B6003608BE00301C722BD9
:1006C8003308BB07340803110318340A031DBC0799
:1006D800350803110318350A031DBD07013003103F
:1006E800B20CB10CB00CFF3E031D732B013003108C
:1006F800BD0CBC0CBB0CFF3E031D7B2B0130BE02A6
:10070800031D622B3B08F0003C08F1003D08F20095
:100718003A08B6003608F3003F08B7003708F40077
:100728000A128A117826700883120313B000710820
:10073800B1007208B2000800831203132308A60050
:100748002408A7002508A8000310270D280DA900D4
:100758002908AE00AE08031DB82B0030A0000030F9
:10076800A1000030A20008002008A6002108A70068
:100778002208A8000310270D280DA9002908AF009A
:10078800AF08031DCE2B0030A0000030A1000030C0
:10079800A20008000030AB000030AC000030AD0013
:1007A80089302F07A6002608AE022308A6002408D1
:1007B800A7002508A80010300310A80CA70CA60C49
:1007C800FF3E031DE02B2608A9002908AF002008DA
:1007D800A6002108A7002208A80010300310A80CC2
:1007E800A70CA60CFF3E031DF22B2608A90029081A
:1007F800AF068030A6002608AF05A417FF30A30572
:10080800FF30A4050030A505A117FF30A005FF3073
:10081800A1050030A2051830A6002608AA0001305C
:100828000310AB0DAC0DAD0DFF3E031D142C2208BB
:100838002502031D252C21082402031D252C200830
:100848002302031C322C2008A3022108031C210FB9
:10085800A4022208031C220AA5022B14013003104B
:10086800A30DA40DA50DFF3E031D332C0130AA02D4
:10087800031D132C2B08F0002C08F1002D08F200A2
:100888002E08A6002608F3002F08A7002708F40062
:100898000A128A117826700883120313A0007108BF
:1008A800A1007208A20008008C1A8C120C1B0C13F1
:1008B8000B1DE12CEE300A128A155C260A128A11E9
:1008C8000130831203135C02F33003195B0203182F
:1008D800752C0130DB070318DC0A0030DC0706172B
:1008E800E02CDB01DC010F08E001E0070E08DF0166
:1008F800DF076008F901F9075F08F801F8070A122D
:100908008A159F260A128A11780883120313A300F6
:100918007908A4007A08A5000030A000E030A10002
:100928004030A2000A128A11A0230A128A118312E7
:1009380003132008B3002108B4002208B5000030D2
:10094800B000F030B1004230B2000A128A11CD2254
:100958000A128A11831203133008C0003108C1003B
:100968003208C2000A128A117F250A128A118312DC
:1009780003134108FD01FD074008FC01FC077C0941
:10098800CE007D09CF00CE0A0319CF0A63084E07AF
:10099800DD0064080318640A4F07DE000030F00029
:1009A8000430F1000A128A15CA260A128A11831223
:1009B80003138E018F0106130B110C180C108C19E0
:1009C8008C115308FF0052088A0051088400500E09
:1009D8008300FE0E7E0E090083160313AA01A31FCF
:1009E800022DA009A109A209A309A00A0319A10AB5
:1009F8000319A20A0319A30AAA01AA0AA71F132DF9
:100A0800A409A509A609A709A40A0319A50A03198F
:100A1800A60A0319A70A0130A8002808AA06003068
:100A2800AE000030AD000030AC000030AB00230851
:100A38002204210420040319682DA901A90AA31B73
:100A4800332D0130A8000310A00DA10DA20DA30D98
:100A5800A80B272D0130A8002808A907232D01304D
:100A6800A8000310AB0DAC0DAD0DAE0DA80B352DC8
:100A780023082702031D4A2D22082602031D4A2D9A
:100A880021082502031D4A2D20082402031C5B2D82
:100A98002008A4022108031C210FA5022208031C18
:100AA800220FA6022308031C230FA7022B140130D0
:100AB8000310A30CA20CA10CA00CFF3E031D5C2D7F
:100AC8000130A902031D332D2A080319762DAB091D
:100AD800AC09AD09AE09AB0A0319AC0A0319AD0A92
:100AE8000319AE0A2E08A3002D08A2002C08A100A5
:100AF8002B08A0000800831203134008C400410813
:100B0800C5004208C6000310450D460DC70047083A
:100B1800CD00CD08031D992D0030C3000030C20060
:100B28000030C1000030C00008004008C40041087F
:100B3800C5004208C60017300310C60CC50CC40C0B
:100B4800FF3E031DA02D4408C7004708C800C11771
:100B5800FF30C005FF30C1050030C2054008C9009C
:100B68004108CA004208CB00CC018E30CD02CD1F0F
:100B7800DB2D4D08803A8F3E0318CB2D0030C30083
:100B88000030C2000030C1000030C0000800013051
:100B98000310CC0CCB0CCA0CC90CFF3E031DCC2D8A
:100BA8000130C4004408CD070319F62DCB2D1830A9
:100BB8004D02031CF32D0030C3000030C20000308A
:100BC800C1000030C00008000130C4000310C90D86
:100BD800CA0DCB0DCC0DC40BEA2D0130CD02CD08CA
:100BE800031DE82D48080319042EC909CA09CB09B1
:100BF800CC09C90A0319CA0A0319CB0A0319CC0A72
:100C08004C08C3004B08C2004A08C1004908C0008C
:100C18000800831603139F111F159F101F105A30C9
:100C2800A300C330A200A20B172EA30B172E30303F
:100C38000A128A15B3260A128A111830831603136A
:100C4800A300EF30A200A20B272EA30B272E3030D3
:100C58000A128A15B3260A128A11993083160313C9
:100C6800A200A20B352E30300A128A15B3260A12BA
:100C78008A113D3083160313A200A20B412E38308F
:100C88000A128A15B3260A128A113D3083160313F5
:100C9800A200A20B4D2E01300A128A15B3260A12A1
:100CA8008A110C3083160313A300F730A200A20B9D
:100CB8005B2EA30B5B2E0C300A128A15B3260A1280
:100CC8008A113D3083160313A200A20B692E063049
:100CD8000A128A15B3260A128A113D3083160313A5
:100CE800A200A20B752E080073080319802E720843
:100CF80071047004031D932E0030F0000030F100E1
:100D08000030F20008000130F5007508F3070130E3
:100D18000310F20CF10CF00CFF3E031D8C2EFE307C
:100D280072050319AE2E872E0130F5007508F307FA
:100D38000130F007003003180130F10700300318C4
:100D48000130F20701300310F20CF10CF00CFF3EF9
:100D5800031DA72EFF3072050319BD2E982E0130F2
:100D6800F30201300310F00DF10DF20DFF3E031DEB
:100D7800B62EF11FB32E7318C72EFF30F0057F3043
:100D8800F105FF30F2050310F30C7308F500F601C6
:100D9800F70110300310F50DF60DF70DFF3E031D9A
:100DA800CE2E7508F0047608F1047708F20474086A
:100DB80003190800F217080083160313A200831210
:100DC8000313091083160313A208031DEE2E20082F
:100DD800803EF22E831603132008C03E83120313AD
:100DE800880089143D3083160313A100A10BFA2E45
:100DF8008312031389100800FF1B0A2F83137F181F
:100E080083170008840A0319FF0A080007308A00BC
:100E18000408840A82070034013400340A34003498
:100E280064340034E8340334103427340A340D347D
:100E380020342D342D342D342D342D342D342D34AF
:100E480020344534533454344F34553452344F34A9
:100E58002034443445342034503449344C344834F4
:100E6800413420342D342D342D342D342D342D346B
:100E78002D3420340A340D342034003449346E348F
:100E880069346334693461346C3469347A34613474
:100E98006E3464346F342E342E342E34003452348D
:100EA80050344D343A34203400342534303434341A
:100EB80064340034831603132F08B3003008B400D9
:100EC8003108B5003208B60004300310B30DB40D74
:100ED800B50DB60DFF3E031D692F3608A300350872
:100EE800A2003408A1003308A0000130A70019307F
:100EF800A6004030A5000030A4000A128A11F02490
:100F0800831603132008FF3E9900981318139816A8
:100F18001812181598141810831203139817181319
:100F28009812181698111811981018108316031390
:100F38000C12831203130C12831603138C168312DC
:100F480003138C12080083160313A501A6012108B8
:100F580020040319E02FA701A70AA11BBF2F013006
:100F68000310A00DA10DFF3E031DB42F0130A400F6
:100F78002408A707B12F01300310A50DA60DFF3EC9
:100F8800031DC02F21082302031DCC2F2008220295
:100F9800031CD52F2008A2022108031CA303A302C7
:100FA800251401300310A10CA00CFF3E031DD62F01
:100FB8000130A702031DBF2F2608A101A10725089C
:100FC800A001A007080083160313A10083120313CE
:100FD8000914831603132108831203138800891444
:100FE8003D3083160313A000A00BF82F83120313C0
:080FF8008910080001340034E7
:101CB800F0007008831203138100080083160313D1
:101CC800A00020088312031381000800640080012B
:101CD800840A04060319003404066B2E83160313C2
:101CE8008112011281110115811401140B118B1637
:101CF800080083160313A100A0013A30210203183B
:101D08008B2E30302102031C8B2EA001A00A200C40
:101D18000800831603139F179F151F159F141F1084
:101D2800831203139F171F13831603130C138312B5
:101D380003130C1308007808F0007908F100F20189
:101D48008E30FB007B08F300F4010A128A11782612
:101D58007008F8007108F9007208FA000800831684
:101D68000313A10083120313091083160313210818
:101D780083120313880089143D3083160313A000CF
:101D8800A00BC42E83120313891008007108F300F6
:101D98007008F200730DF30CF20C730DF30CF20CD7
:101DA8007208831203139B007008F20003300310BB
:101DB800F20DFF3E031DDB2E0310720D0C389D0043
:101DC8000800831603132108A3002008A200230D8E
:101DD800A30CA20C230DA30CA20C2208831203133C
:101DE8009500831603132008A20003300310A20DE8
:101DF800FF3E031DFA2E0310220D0C388312031325
:101E080097000800831603132108A3002008A200E6
:101E1800230DA30CA20C230DA30CA20C22088312E1
:101E280003139B00831603132008A200033003103A
:101E3800A20DFF3E031D1B2F0310220D0C38831229
:101E480003139D0008008312031392141210121337
:101E58009212121292111215FF3083160313920078
:101E68008312031397151715971417148316031362
:101E78000C15831203130C119D151D159D141D14AB
:101E8800831603130D14831203130D100800831611
:101E98000313A401A501201C572F2208A407031827
:101EA800A50A2308A50701300310A20DA30DFF3EC4
:101EB800031D582F01300310A10CA00CFF3E031D79
:101EC8005F2F21082004031D4F2F2508A101A1071A
:101ED8002408A001A007080001300A128A15B326B9
:101EE8000A128A150C3083160313A300F730A200D8
:101EF800A20B7C2FA30B7C2F0C300A128A15B32659
:101F08000A128A153D3083160313A200A20B8A2FEA
:101F180006300A128A15B3260A128A153D3083162E
:101F28000313A200A20B962F08008316031323089D
:101F380083120313FF0083160313220884008312FD
:101F480003130A128A1100270A128A150038031986
:101F5800080083160313230883120313FF00831654
:101F6800031322088400831203130A128A1100271C
:101F78000A128A150A128A11E7270A128A150130ED
:101F880083160313A2070318A30A992F83160313B2
:101F9800290828040319F92FAD01AD0AA91BE02F60
:101FA80001300310A80DA90DFF3E031DD52F0130E8
:101FB800AC002C08AD07D22F29082B02031DE62FF1
:101FC80028082A02031CEE2F2808AA022908031C45
:101FD800AB03AB0201300310A90CA80CFF3E031D94
:101FE800EF2F0130AD02031DE02F2B08A901A9072F
:081FF8002A08A801A80708004F
:02400E0032FF7F
:00000001FF
