:060000000A128A11162805
:10000800FE00030E831203179200040893000A08E7
:100018009400831203137F088312031795000A16AE
:100028008A11842C0A128A111928EE01EF0183160D
:100038000313EE01EF0183173830840053300A129E
:100048008A11F8270A128A11831203170A168A15C9
:100058002B270A128A11D3000A168A152C270A128E
:100068008A11D4000A168A152D270A128A11D5007A
:100078000A168A152E27D60083010A168A11112E10
:10008800003083160313BB004030BC003F30BD0076
:100098003B08F0003C08F1003D08F200831203130E
:1000A8006208F3006308F4006408F5000A168A1170
:1000B8000C220A128A11031C9E280030F0004030DE
:1000C800F1003F30F200831603176408F300650857
:1000D800F4006608F5000A168A110C220A128A1121
:1000E800031C882883160317640883160313BE00AD
:1000F80083160317650883160313BF0083160317B7
:100108006608831603138F28003083160313BE0076
:100118004030BF003F30C0003E0883120313DF00A9
:10012800831603133F0883120313E0008316031397
:100138004008DE2ACD30F000CC30F1003D30F2002E
:10014800831603176D08F3006E08F4006F08F500B6
:100158000A168A110C220A128A11031CC528831652
:1001680003176D0883160313C700831603176E0859
:1001780083160313C800831603176F088316031327
:10018800CC28CD3083160313C700CC30C8003D30CF
:10019800C9000030F0008030F1003E30F2008316D4
:1001A80003176A08F3006B08F4006C08F5000A16D8
:1001B8008A110C220A128A11031CF42883160317C9
:1001C8006A0883160313CA00831603176B0883167D
:1001D8000313CB00831603176C0883160313FB283D
:1001E800003083160313CA008030CB003E30CC00A9
:1001F8004A08F0004B08F1004C08F2004708F300E9
:100208004808F4004908F5000A168A110C220A1257
:100218008A11031C44290030F0008030F1003E3080
:10022800F200831603176A08F3006B08F4006C08E1
:10023800F5000A168A110C220A128A11031C3629A3
:10024800831603176A0883160313CD008316031752
:100258006B0883160313CE00831603176C088316E6
:1002680003133D29003083160313CD008030CE00E0
:100278003E30CF004D08C4004E08C5004F0878290D
:10028800CD30F000CC30F1003D30F200831603177A
:100298006D08F3006E08F4006F08F5000A168A115D
:1002A8000C220A128A11031C6B29831603176D0886
:1002B80083160313D000831603176E0883160313DF
:1002C800D100831603176F08831603137229CD30E4
:1002D80083160313D000CC30D1003D30D200500833
:1002E800C4005108C5005208C6000030F0000030B4
:1002F800F1003F30F200831603176708F30068081F
:10030800F4006908F5000A168A110C220A128A11EB
:10031800031CA02983160317670883160313D30049
:1003280083160317680883160313D400831603176C
:10033800690883160313A729003083160313D30013
:100348000030D4003F30D5005308F0005408F100C5
:100358005508F2004408F3004508F4004608F50083
:100368000A168A110C220A128A11031CF02900307D
:10037800F0000030F1003F30F200831603176708E1
:10038800F3006808F4006908F5000A168A110C22BF
:100398000A128A11031CE2298316031767088316B9
:1003A8000313D60083160317680883160313D700B0
:1003B80083160317690883160313E9290030831687
:1003C8000313D6000030D7003F30D8005608C100CC
:1003D8005708C2005808D02ACD30F000CC30F100C0
:1003E8003D30F200831603176D08F3006E08F40021
:1003F8006F08F5000A168A110C220A128A11031CCA
:10040800172A831603176D0883160313DC00831657
:1004180003176E0883160313DD00831603176F088E
:10042800831603131E2ACD3083160313DC00CC3049
:10043800DD003D30DE000030F0008030F1003E305D
:10044800F200831603176A08F3006B08F4006C08BF
:10045800F5000A168A110C220A128A11031C462A70
:10046800831603176A0883160313DF00831603171E
:100478006B0883160313E000831603176C088316B2
:1004880003134D2A003083160313DF008030E00089
:100498003E30E1005F08F0006008F1006108F200FA
:1004A8005C08F3005D08F4005E08F5000A168A117E
:1004B8000C220A128A11031C962A0030F0008030A0
:1004C800F1003E30F200831603176A08F3006B0848
:1004D800F4006C08F5000A168A110C220A128A1117
:1004E800031C882A831603176A0883160313E2007D
:1004F800831603176B0883160313E3008316031789
:100508006C08831603138F2A003083160313E20046
:100518008030E3003E30E4006208D9006308DA0066
:100528006408CA2ACD30F000CC30F1003D30F2002A
:10053800831603176D08F3006E08F4006F08F500C2
:100548000A168A110C220A128A11031CBD2A831664
:1005580003176D0883160313E500831603176E0847
:1005680083160313E600831603176F088316031315
:10057800C42ACD3083160313E500CC30E6003D30A5
:10058800E7006508D9006608DA006708DB00590843
:10059800C1005A08C2005B08C30041088312031354
:1005A800DF0083160313420883120313E000831647
:1005B8000313430883120313E1008316031761082A
:1005C800F0006208F1006308F200831203135F0869
:1005D800F3006008F4006108F5000A168A110C227D
:1005E8000A128A11031C082B831603176108831249
:1005F8000313DC0083160317620883120313DD005C
:10060800831603176308362FCD30F000CC30F10085
:100618003D30F200831603176D08F3006E08F400EE
:100628006F08F5000A168A110C220A128A11031C97
:10063800252B831603176D0893006E0894006F0826
:100648002C2BCD30831603179300CC3094003D300B
:1006580095000030F0008030F1003E30F2006A086A
:10066800F3006B08F4006C08F5000A168A110C22D6
:100678000A128A11031C482B831603176A0896006E
:100688006B0897006C084F2B0030831603179600F1
:10069800803097003E3098001608F0001708F100E7
:1006A8001808F2001308F3001408F4001508F50000
:1006B8000A168A110C220A128A11031C8E2B00308A
:1006C800F0008030F1003E30F200831603176A080C
:1006D800F3006B08F4006C08F5000A168A110C2266
:1006E8000A128A11031C802B831603176A089900C3
:1006F8006B089A006C08872B003083160317990043
:1007080080309A003E309B00190890001A0891002A
:100718001B08B82BCD30F000CC30F1003D30F20092
:10072800831603176D08F3006E08F4006F08F500D0
:100738000A168A110C220A128A11031CAB2B831683
:1007480003176D089C006E089D006F08B22BCD3012
:10075800831603179C00CC309D003D309E001C087A
:1007680090001D0891001E0892000030F000003033
:10077800F1003F30F2006708F3006808F4006908E8
:10078800F5000A168A110C220A128A11031CD42BAE
:100798008316031767089F006808A0006908DB2B09
:1007A8000030831603179F000030A0003F30A100DF
:1007B8001F08F0002008F1002108F2001008F300DB
:1007C8001108F4001208F5000A168A110C220A1200
:1007D8008A11031C222C0030F0000030F1003F3059
:1007E800F200831603176708F3006808F400690825
:1007F800F5000A168A110C220A128A11031C0C2C05
:10080800831603176708A2006808A3006908132C59
:10081800003083160317A2000030A3003F30A40065
:10082800220883160313EB00831603172308831685
:100838000313EC00831603172408E02CCD30F000D6
:10084800CC30F1003D30F200831603176D08F30039
:100858006E08F4006F08F5000A168A110C220A12B5
:100868008A11031C3F2C831603176D08A8006E0815
:10087800A9006F08462CCD3083160317A800CC308A
:10088800A9003D30AA000030F0008030F1003E3071
:10089800F2006A08F3006B08F4006C08F5000A1609
:1008A8008A110C220A128A11031C622C8316031760
:1008B8006A08AB006B08AC006C08692C0030831622
:1008C8000317AB008030AC003E30AD002B08F000C1
:1008D8002C08F1002D08F2002808F3002908F4007C
:1008E8002A08F5000A168A110C220A128A11031C1A
:1008F800A82C0030F0008030F1003E30F200831662
:1009080003176A08F3006B08F4006C08F5000A1670
:100918008A110C220A128A11031C9A2C83160317B7
:100928006A08AE006B08AF006C08A12C0030831673
:100938000317AE008030AF003E30B0002E08A5008F
:100948002F08A6003008D22CCD30F000CC30F100B2
:100958003D30F200831603176D08F3006E08F400AB
:100968006F08F5000A168A110C220A128A11031C54
:10097800C52C831603176D08B1006E08B2006F0806
:10098800CC2CCD3083160317B100CC30B2003D30EB
:10099800B3003108A5003208A6003308A7002508CF
:1009A80083160313EB008316031726088316031315
:1009B800EC0083160317270883160313ED00003095
:1009C800F0004030F1003F30F2008316031764084E
:1009D800F3006508F4006608F5000A168A110C226F
:1009E8000A128A11031C002D831603176408B40029
:1009F8006508B5006608072D003083160317B40094
:100A08004030B5003F30B6003408F0003508F1003A
:100A18003608F200831603136B08F3006C08F40021
:100A28006D08F5000A168A110C220A128A11031C95
:100A3800502D0030F0004030F1003F30F2008316B6
:100A480003176408F3006508F4006608F5000A1641
:100A58008A110C220A128A11031C3A2D83160317D5
:100A68006408B7006508B8006608412D0030831691
:100A78000317B7004030B8003F30B9003708831675
:100A88000313E80083160317380883160313E900D5
:100A9800831603173908262FCD30F000CC30F1002B
:100AA8003D30F200831603176D08F3006E08F4005A
:100AB8006F08F5000A168A110C220A128A11031C03
:100AC8006D2D831603176D08C0006E08C1006F08EE
:100AD800742DCD3083160317C000CC30C1003D30D3
:100AE800C2000030F0008030F1003E30F2006A08A9
:100AF800F3006B08F4006C08F5000A168A110C2242
:100B08000A128A11031C902D831603176A08C30062
:100B18006B08C4006C08972D003083160317C300B8
:100B28008030C4003E30C5004308F0004408F1009E
:100B38004508F2004008F3004108F4004208F500B7
:100B48000A168A110C220A128A11031CD62D0030AB
:100B5800F0008030F1003E30F200831603176A0877
:100B6800F3006B08F4006C08F5000A168A110C22D1
:100B78000A128A11031CC82D831603176A08C600B7
:100B88006B08C7006C08CF2D003083160317C6000A
:100B98008030C7003E30C8004608BD004708BE0088
:100BA8004808002ECD30F000CC30F1003D30F20086
:100BB800831603176D08F3006E08F4006F08F5003C
:100BC8000A168A110C220A128A11031CF32D8316A5
:100BD80003176D08C9006E08CA006F08FA2DCD30DA
:100BE80083160317C900CC30CA003D30CB00490832
:100BF800BD004A08BE004B08BF000030F0000030BE
:100C0800F1003F30F2006708F3006808F400690853
:100C1800F5000A168A110C220A128A11031C1C2ECE
:100C2800831603176708CC006808CD006908232ECF
:100C3800003083160317CC000030CD003F30CE00C3
:100C48004C08F0004D08F1004E08F2003D08F30092
:100C58003E08F4003F08F5000A168A110C220A1211
:100C68008A11031C622E0030F0000030F1003F3082
:100C7800F200831603176708F3006808F400690890
:100C8800F5000A168A110C220A128A11031C542E26
:100C9800831603176708CF006808D00069085B2E21
:100CA800003083160317CF000030D0003F30D1004A
:100CB8004F08BA005008BB005108182FCD30F0007B
:100CC800CC30F1003D30F200831603176D08F300B5
:100CD8006E08F4006F08F5000A168A110C220A1231
:100CE8008A11031C7F2E831603176D08D5006E0822
:100CF800D6006F08862ECD3083160317D500CC306A
:100D0800D6003D30D7000030F0008030F1003E3092
:100D1800F2006A08F3006B08F4006C08F5000A1684
:100D28008A110C220A128A11031CA22E8316031799
:100D38006A08D8006B08D9006C08A92E0030831601
:100D48000317D8008030D9003E30DA005808F00088
:100D58005908F1005A08F2005508F3005608F40043
:100D68005708F5000A168A110C220A128A11031C68
:100D7800E82E0030F0008030F1003E30F20083169B
:100D880003176A08F3006B08F4006C08F5000A16EC
:100D98008A110C220A128A11031CDA2E83160317F1
:100DA8006A08DB006B08DC006C08E12E0030831653
:100DB8000317DB008030DC003E30DD005B08D2002A
:100DC8005C08D3005D08122FCD30F000CC30F10064
:100DD8003D30F200831603176D08F3006E08F40027
:100DE8006F08F5000A168A110C220A128A11031CD0
:100DF800052F831603176D08DE006E08DF006F08E5
:100E08000C2FCD3083160317DE00CC30DF003D30C9
:100E1800E0005E08D2005F08D3006008D4005208E2
:100E2800BA005308BB005408BC003A0883160313E1
:100E3800E800831603173B0883160313E90083169B
:100E480003173C0883160313EA0068088312031388
:100E5800DC0083160313690883120313DD0083166D
:100E680003136A0883120313DE005C08D9005D08C7
:100E7800DA005E08DB005908BA005A08BB005B08B4
:100E8800BC00C030B7007F30B8004430B9000A1643
:100E98008A113E250A128A11831203133708C700E4
:100EA8003808C8003908C9000A168A113E230A12F0
:100EB8008A11831203134808D601D6074708D501BB
:100EC800D5070A168A15A427080083120317A0015C
:100ED800991F7B2F9609970998099909960A03196A
:100EE800970A0319980A0319990AA001A00A9D1FD5
:100EF8008C2F9A099B099C099D099A0A03199B0A38
:100F080003199C0A03199D0A01309E001E08A006B9
:100F18000030A4000030A3000030A2000030A1007F
:100F280019081804170416040319E12F9F019F0AD2
:100F3800991BAC2F01309E000310960D970D980D4C
:100F4800990D9E0BA02F01309E001E089F079C2F15
:100F580001309E000310A10DA20DA30DA40D9E0B40
:100F6800AE2F19081D02031DC32F18081C02031DEC
:100F7800C32F17081B02031DC32F16081A02031CD0
:100F8800D42F16089A021708031C170F9B0218087B
:100F9800031C180F9C021908031C190F9D02211429
:100FA80001300310990C980C970C960CFF3E031D0A
:100FB800D52F01309F02031DAC2F20080319EF2FF6
:100FC800A109A209A309A409A10A0319A20A0319DC
:100FD800A30A0319A40A24089900230898002208E0
:100FE800970021089600080064008001840A04061E
:080FF800031900340406F92F6F
:101002008312031796001608831203138100080047
:10101200CD30F000CC30F1003D30F20083160317E2
:101022006D08F3006E08F4006F08F5000A168A11C5
:101032000C220A128A15031C3028831603176D0826
:1010420083160313AF00831603176E088316031368
:10105200B000831603176F08831603133728CD30A9
:1010620083160313AF00CC30B0003D30B100003026
:10107200F0008030F1003E30F200831603176A0858
:10108200F3006B08F4006C08F5000A168A110C22B2
:101092000A128A15031C5F28831603176A0883162F
:1010A2000313B200831603176B0883160313B300EE
:1010B200831603176C088316031366280030831601
:1010C2000313B2008030B3003E30B4003208F000A7
:1010D2003308F1003408F2002F08F3003008F4005E
:1010E2003108F5000A168A110C220A128A15031C0D
:1010F200AF280030F0008030F1003E30F20083165D
:1011020003176A08F3006B08F4006C08F5000A166E
:101112008A110C220A128A15031CA12883160317AE
:101122006A0883160313B500831603176B08831628
:101132000313B600831603176C0883160313A8283B
:10114200003083160313B5008030B6003E30B7007E
:101152003508AC003608AD003708E328CD30F00082
:10116200CC30F1003D30F200831603176D08F30016
:101172006E08F4006F08F5000A168A110C220A1292
:101182008A15031CD628831603176D0883160313CA
:10119200B800831603176E0883160313B90083166B
:1011A20003176F0883160313DD28CD30831603134C
:1011B200B800CC30B9003D30BA003808AC0039086C
:1011C200AD003A08AE002C0883120313E200831626
:1011D20003132D0883120313E300831603132E084F
:1011E20083120313E4000030F0004030F1003F307E
:1011F200F200831603176408F3006508F40066081A
:10120200F5000A168A110C220A128A11031C4428BC
:1012120083160317640883160313BB008316031790
:10122200650883160313BC0083160317660883162A
:1012320003130A128A114B28003083120313C300CE
:101242000030C4000030C5003A08F0003B08F1004D
:101252003C08F2003708F3003808F4003908F500BA
:101262000A168A110C220A128A1503182A2A8312D4
:1012720003133A08F0003B08F1003C08F20037087B
:10128200F3003808F4003908F5000A168A110C2216
:101292000A128A1503189429831203133D08F000D9
:1012A2003E08F1003F08F2003708F3003808F40066
:1012B2003908F5000A168A110C220A128A15031C33
:1012C2009429831203133D08F8003E08F9003F08F1
:1012D200FA003A08F0003B08F1003C08F2000A1656
:1012E2008A115E200A128A157008FB007108FC0040
:1012F2007208FD000A168A11F9260A128A15780860
:1013020083120313A7007908A8007A08A9003708F6
:10131200F8003808F9003908FA003A08F0003B08EA
:10132200F1003C08EF29831203133D08F0003E0848
:10133200F1003F08F2003708F3003808F4003908DA
:10134200F5000A168A110C220A128A150318152AA8
:10135200831203134008F0004108F1004208F20032
:101362003708F3003808F4003908F5000A168A1124
:101372000C220A128A15031C152A831203133D0834
:10138200F8003E08F9003F08FA004008F000410862
:10139200F1004208F2000A168A115E200A128A152A
:1013A2007008FB007108FC007208FD000A168A1121
:1013B200F9260A128A15780883120313A7007908FE
:1013C200A8007A08A9003708F8003808F900390897
:1013D200FA004008F0004108F1004208F2000A1643
:1013E2008A115E200A128A157008FB007108FC003F
:1013F2007208FD000A168A11F9260A128A1578085F
:1014020083120313AA007908AB007A08AC000A160B
:101412008A11CC230A128A15831203132708C300E8
:101422002808C4002908312A831203134008F00057
:101432004108F1004208F2003708F3003808F400CE
:101442003908F5000A168A110C220A128A150318A5
:10145200322A003083120313C3000030C40000306C
:10146200C500831203134308B7004408B8004508B7
:10147200B9000800003083120313C6000030C70011
:101482000030C8003A08F0003B08F1003C08F200C6
:101492003708F3003808F4003908F5000A168A11F3
:1014A2000C220A128A1503187A2B831203133A08A4
:1014B200F0003B08F1003C08F2003708F30038085E
:1014C200F4003908F5000A168A110C220A128A154C
:1014D2000318B22A831203133D08F0003E08F100FC
:1014E2003F08F2003708F3003808F4003908F50025
:1014F2000A168A110C220A128A15031CB22A8312B6
:1015020003133D08F8003E08F9003F08FA003A08C4
:10151200F0003B08F1003C08F2000A168A115E2036
:101522000A128A157008FB007108FC007208FD009F
:101532000A168A11F9260A128A15780883120313E9
:10154200A7007908A8007A08A9003708F800380827
:10155200F9003908FA003A08F0003B08F1003C08AB
:101562003F2B831203133708F0003808F1003908C3
:10157200F2003D08F3003E08F4003F08F5000A16A9
:101582008A110C220A128A15031CE42A83120313FD
:101592004008F0004108F1004208F2003708F30069
:1015A2003808F4003908F5000A168A110C220A12CA
:1015B2008A15031CE42A003083120313C60080300C
:1015C200C7003F30812B831203134008F00041080B
:1015D200F1004208F2003708F3003808F400390835
:1015E200F5000A168A110C220A128A150318652BB5
:1015F200831203134308F0004408F1004508F20087
:101602003708F3003808F4003908F5000A168A1181
:101612000C220A128A15031C652B8312031343083A
:10162200F8004408F9004508FA004008F0004108B3
:10163200F1004208F2000A168A115E200A128A1587
:101642007008FB007108FC007208FD000A168A117E
:10165200F9260A128A15780883120313A70079085B
:10166200A8007A08A9004308F8004408F9004508D0
:10167200FA003708F0003808F1003908F2000A16BB
:101682008A115E200A128A157008FB007108FC009C
:101692007208FD000A168A11F9260A128A157808BC
:1016A20083120313AA007908AB007A08AC000A1669
:1016B2008A11CC230A128A15831203132708C60043
:1016C2002808C7002908812B831203134308F0005E
:1016D2004408F1004508F2003708F3003808F40026
:1016E2003908F5000A168A110C220A128A15031803
:1016F200822B003083120313C6000030C700003073
:10170200C800831203134608B7004708B800480808
:10171200B900080083120317B3002530A700270879
:10172200AA00013083120317A407FF3024078400A4
:101732000A168A110A200A128A15A7002708B4007D
:10174200B40803193B2D3408253A0319B42B340885
:10175200A700330884002708831780000130A70000
:101762002708B307922BB101B201B001BD2B30158E
:101772000130A7002708A407240884000A168A114A
:101782000A200A128A15303A0319B82BC82B2408EA
:1017920084000A168A110A200A128A150A168A1564
:1017A20040270A128A15031C182C83120317B10151
:1017B200B2010A30831203179600003097003208F4
:1017C200990199073108980198070A168A11CC20C5
:1017D2000A128A15831203171708B201B2071608F4
:1017E200B101B107240884000A168A110A200A12DC
:1017F2008A15D03EA700FF3003180030A800270842
:10180200B1070318B20A2808B2070130A700270857
:10181200A407240884000A168A110A200A128A15CB
:101822000A168A1540270A128A150318DA2B013084
:1018320083120317A407FF30240784000A168A11B3
:101842000A200A128A15B400003A03193B2D643AA1
:1018520003192F2C0D3A03192F2C922B83120317E5
:101862002A08840083170008AC00840A0008AD002F
:101872000230A7002708AA07AD1F482C0330A70093
:101882002708B004AC09AD09AC0A0319AD0AB401CA
:10189200B40A3408053A03196F2C3408A700270745
:1018A200013E84000A168A110A200A128A15A8002B
:1018B2000A168A110A200A128A15A90029082D027D
:1018C200031D652C28082C02031C6F2C0130A70075
:1018D2002708B4073408053A031D4E2C3208310498
:1018E20003197D2C3008033903197D2CFF30B10711
:1018F2000318B20AFF30B2073408A700A801A71BD9
:10190200A8032808803AA9003208803A2902031D58
:101912008C2C3108270203189C2C831203173408DD
:10192200A700A801A71BA8032708B1022808031CC7
:10193200B203B202A02C83120317B101B201301D0F
:10194200C72C300803390319B12C2D30A7003308F6
:1019520084002708831780000130A7002708B307F7
:10196200320831040319EF2C3030A7003308840009
:101972002708831780000130A7002708B307FF302C
:10198200B1070318B20AFF30B207B12C3208310492
:101992000319E02C2030A70033088400270883179E
:1019A20080000130A7002708B307FF30B1070318F2
:1019B200B20AFF30B20732083104031DCB2C3008C3
:1019C20003390319EF2C2D30A700330884002708B0
:1019D200831780000130A7002708B3073408A70047
:1019E2002708AB00FF30A7002708AB072B08FF3AF8
:1019F2000319922B0A309E0000309F002B08A7008B
:101A02002707013E84000A168A110A200A128A1543
:101A120096000A168A110A200A128A1597002D08C2
:101A2200990199072C08980198070A168A118121B1
:101A32000A128A15831203171708A101A1071608B3
:101A4200A001A0070A168A114B210A128A158312D5
:101A520003171E08303EA8002808B4003408A70067
:101A6200330884002708831780000130A700270865
:101A7200B307F32C83120317330884008317800102
:101A82000800831203136F08F901F9076E08F801C1
:101A9200F8070A168A15DF270A128A1578088312B0
:101AA2000313B7007908B8007A08B9000030BA0009
:101AB2007A30BB00C530BC006030BD008630BE004D
:101AC200C530BF008030C000BB30C100C530C2008D
:101AD2008030C300BB30C400C530C5000A128A156D
:101AE2003B220A128A15831203133708831603173F
:101AF200E10083120313380883160317E2008312EE
:101B02000313390883160317E300831203136F08C4
:101B1200F901F9076E08F801F8070A168A15DF2796
:101B22000A128A15780883120313B7007908B800DD
:101B32007A08B9000030BA00A030BB00C230BC0045
:101B42000030BD004830BE00C330BF00C030C0000E
:101B52007330C100C530C2004030C3008330C400BE
:101B6200C530C5000A128A153B220A128A15831251
:101B72000313370883160317E4008312031338088C
:101B820083160317E500831203133908831603171C
:101B9200E600831203136F08F901F9076E08F801D2
:101BA200F8070A168A15DF270A128A15780883129F
:101BB2000313B7007908B8007A08B9000030BA00F8
:101BC200C830BB00C230BC000030BD000030BE00D7
:101BD2000030BF000030C000C830C1004230C20037
:101BE2000A128A151D210A128A1583120313370855
:101BF20083160317E70083120313380883160317AB
:101C0200E80083120313390883160317E9008312CD
:101C120003136F08F901F9076E08F801F8070A16AD
:101C22008A15DF270A128A15780883120313B70070
:101C32007908B8007A08B9000030BA00A030BB00B9
:101C42004230BC000030BD004830BE004330BF000F
:101C5200C030C0007330C1004530C2004030C30004
:101C62008330C4004530C5000A128A153B220A128D
:101C72008A1583120313370883160317EA008312A7
:101C82000313380883160317EB0083120313390872
:101C920083160317EC00831203136F08F901F90787
:101CA2006E08F801F8070A168A15DF270A128A1544
:101CB200780883120313B7007908B8007A08B900CC
:101CC2000030BA007A30BB004530BC006030BD0045
:101CD2008630BE004530BF008030C000BB30C1003E
:101CE2004530C2008030C300BB30C4004530C5005F
:101CF2000A128A153B220A128A1583120313370825
:101D020083160317ED008312031338088316031793
:101D1200EE0083120313390883160317EF00CD3048
:101D2200F000CC30F1003D30F2006D08F3006E0897
:101D3200F4006F08F5000A168A110C220A128A159D
:101D4200031CB52E831603176D0883120313E800D4
:101D5200831603176E0883120313E9008316031711
:101D62006F0883120313BC2ECD3083120313E800D5
:101D7200CC30E9003D30EA000030F0008030F10064
:101D82003E30F200831603176A08F3006B08F40072
:101D92006C08F5000A168A110C220A128A15031C15
:101DA200E42E831603176A0883120313EB008316CB
:101DB20003176B0883120313EC00831603176C08D6
:101DC20083120313EB2E003083120313EB008030D7
:101DD200EC003E30ED006B08F0006C08F1006D087D
:101DE200F2006808F3006908F4006A08F5000A16B0
:101DF2008A110C220A128A15031C3C2F0030F000B3
:101E02008030F1003E30F200831603176A08F300B7
:101E12006B08F4006C08F5000A168A110C220A12EB
:101E22008A15031C262F831603176A0883160313C9
:101E3200A000831603176B0883160313A1008316F1
:101E420003176C08831603132D2F00308316031318
:101E5200A0008030A1003E30A200200883120313AC
:101E6200E50083160313210883120313E600831689
:101E720003132208782FCD30F000CC30F1003D3032
:101E8200F200831603176D08F3006E08F4006F0862
:101E9200F5000A168A110C220A128A15031C632FF6
:101EA200831603176D0883160313A3008316031703
:101EB2006E0883160313A400831603176F08831694
:101EC20003136A2FCD3083160313A300CC30A40072
:101ED2003D30A500230883120313E5008316031384
:101EE200240883120313E6008316031325088312C2
:101EF2000313E7000030F0000030F1003F30F20041
:101F0200831603176708F3006808F4006908F500F0
:101F12000A168A110C220A128A15031CA22F831692
:101F22000317670883160313A600831603176808AE
:101F320083160313A7008316031769088316031376
:101F4200A92F003083160313A6000030A7003F30EC
:101F5200A8002608F0002708F1002808F2008312E2
:101F620003136508F3006608F4006708F5000A1613
:101F72008A110C220A128A150A128A15031C0928D0
:101F82000030F0000030F1003F30F20083160317FA
:101F92006708F3006808F4006908F5000A168A1158
:101FA2000C220A128A15031CE82F831603176708EE
:101FB20083160313A90083160317680883160313F5
:101FC200AA0083160317690883160313EF2F003044
:101FD20083160313A9000030AA003F30AB00290882
:101FE20083120313E200831603132A0883120313D6
:101FF200E300831603132B080A128A15F128FF1B2C
:102002000A2883137F1883170008840A0319FF0A1A
:10201200080010308A000408840A82070034013460
:1020220000340A34003464340034E83403341034A5
:1020320027340A340D3420342D342D342D342D34EC
:102042002D342D342D3420344534533454344F340C
:10205200553452344F3420344434453420345034CF
:1020620049344C344834413420342D342D342D3409
:102072002D342D342D342D3420340A340D342034B3
:10208200003449346E3469346334693461346C34F5
:1020920069347A3461346E3464346F342E342E34BD
:1020A2002E340034523450344D343A342034003417
:1020B20025343034343464340034720871047004CA
:1020C200031908008030F20608008312031717086C
:1020D200990016089800190D990C980C190D990C75
:1020E200980C18088312031395008312031716081D
:1020F200980003300310980DFF3E031D7B28031048
:10210200180D0C388312031397000800831203176B
:102112001708990016089800190D990C980C190DBA
:10212200990C980C1808831203139B00831203174F
:102132001608980003300310980DFF3E031D9C28DB
:102142000310180D0C38831203139D00080083122C
:1021520003139214121012139212121292111215E8
:10216200FF3083160313920083120313971517157A
:1021720097141714831603130C15831203130C11EF
:102182009D151D159D141D14831603130D14831222
:1021920003130D100800831203179A019B01161CEA
:1021A200D82818089A0703189B0A19089B070130B8
:1021B2000310980D990DFF3E031DD928013003101D
:1021C200970C960CFF3E031DE02817081604031D0A
:1021D200D0281B08970197071A089601960708004E
:1021E20001300A168A1576270A168A110C308312D4
:1021F20003179900F7309800980BFD28990BFD28DA
:102202000C300A168A1576270A168A113D30831277
:1022120003179800980B0B2906300A168A157627A1
:102222000A168A113D30831203179800980B17295A
:10223200080083120317190883120313FF00831285
:10224200031718088400831203130A168A11002048
:102252000A168A1100380319080083120317190895
:1022620083120313FF0083120317180884008312DA
:1022720003130A168A1100200A168A110A168A15F1
:102282008D270A168A110130831203179807031843
:10229200990A1A29831203171F081E0403197A299F
:1022A200A301A30A9F1B6129013003109E0D9F0DFC
:1022B200FF3E031D56290130A2002208A30753291D
:1022C2001F082102031D67291E082002031C6F2913
:1022D2001E08A0021F08031CA103A1020130031063
:1022E2009F0C9E0CFF3E031D70290130A302031DAB
:1022F200612921089F019F0720089E019E0708006F
:10230200831203179B019C01170816040319BA29AB
:102312009D019D0A971B992901300310960D970D77
:10232200FF3E031D8E2901309A001A089D078B2952
:10233200013003109B0D9C0DFF3E031D9A291708C7
:102342001902031DA62916081802031CAF29160834
:1023520098021708031C990399021B1401300310F9
:10236200970C960CFF3E031DB02901309D02031D00
:1023720099291C08970197071B08960196070800E0
:10238200831203172508A9002608AA002708AB0014
:102392002808AC0004300310A90DAA0DAB0DAC0D3A
:1023A200FF3E031DCC292C0899002B0898002A080F
:1023B20097002908960001309D0019309C0040309A
:1023C2009B0000309A000A128A11692783120317B0
:1023D2001608FF3E831603139900981318139816D4
:1023E200181218159814181083120313981718133B
:1023F20098121816981118119810181083160313B2
:102402000C12831203130C12831603138C168312FD
:1024120003138C120800F21F332A0030F60000303A
:10242200F7008030F8007009F9007109FA007209AA
:10243200FB00F90A0319FA0A0319FB0A7908F607DD
:102442007A0803187A0F262A272AF7077B08031827
:102452007B0F2C2A2D2AF8077608F0007708F10066
:102462007808F200F51F5A2A0030F6000030F70013
:102472008030F8007309F9007409FA007509FB004D
:10248200F90A0319FA0A0319FB0A7908F6077A0806
:1024920003187A0F4D2A4E2AF7077B0803187B0F81
:1024A200532A542AF8077608F3007708F4007808CC
:1024B200F5008030F2068030F50675087202031DC1
:1024C200080074087102031D0800730870020800F6
:1024D20073080319712A720871047004031D842A97
:1024E2000030F0000030F1000030F200080001304E
:1024F200F5007508F30701300310F20CF10CF00C33
:10250200FF3E031D7D2AFE30720503199F2A782A99
:102512000130F5007508F3070130F00700300318A9
:102522000130F107003003180130F20701300310C7
:10253200F20CF10CF00CFF3E031D982AFF307205DD
:102542000319AE2A892A0130F30201300310F00D7B
:10255200F10DF20DFF3E031DA72AF11FA42A7318E5
:10256200B82AFF30F0057F30F105FF30F205031085
:10257200F30C7308F500F601F70110300310F50DA6
:10258200F60DF70DFF3E031DBF2A7508F00476080D
:10259200F1047708F204740803190800F21708001E
:1025A200831603139F111F159F101F105A30831299
:1025B20003179900C3309800980BDD2A990BDD2A86
:1025C20030300A168A1576270A168A1118308312B5
:1025D20003179900EF309800980BED2A990BED2A1A
:1025E20030300A168A1576270A168A119930831214
:1025F20003179800980BFB2A30300A168A157627A3
:102602000A168A113D30831203179800980B072B84
:1026120038300A168A1576270A168A113D30831237
:1026220003179800980B132B01300A168A15762788
:102632000A168A110C30831203179900F73098009A
:10264200980B212B990B212B0C300A168A15762711
:102652000A168A113D30831203179800980B2F2B0C
:1026620006300A168A1576270A168A113D30831219
:1026720003179800980B3B2B08008312031347089B
:10268200CB004808CC004908CD0003104C0D4D0D7D
:10269200CE004E08D400D408031D582B0030CA00C7
:1026A2000030C9000030C8000030C70008004708E9
:1026B200CB004808CC004908CD0017300310CD0CE0
:1026C200CC0CCB0CFF3E031D5F2B4B08CE004E08FB
:1026D200CF00C817FF30C705FF30C8050030C90555
:1026E2004708D0004808D1004908D200D3018E30F3
:1026F200D402D41F9A2B5408803A8F3E03188A2B97
:102702000030CA000030C9000030C8000030C700E5
:10271200080001300310D30CD20CD10CD00CFF3EB8
:10272200031D8B2B0130CB004B08D4070319B52BAB
:102732008A2B18305402031CB22B0030CA0000301E
:10274200C9000030C8000030C70008000130CB00CB
:102752000310D00DD10DD20DD30DCB0BA92B01300F
:10276200D402D408031DA72B4F080319C32BD00989
:10277200D109D209D309D00A0319D10A0319D20AFD
:102782000319D30A5308CA005208C9005108C800E5
:102792005008C7000800831203132A08AD002B0853
:1027A200AE002C08AF0003102E0D2F0DB000300824
:1027B200B500B508031DE42B0030A7000030A800C7
:1027C2000030A90008002708AD002808AE0029083B
:1027D200AF0003102E0D2F0DB0003008B600B60862
:1027E200031DFA2B0030A7000030A8000030A9001A
:1027F20008000030B2000030B3000030B40089306D
:102802003607AD002D08B5022A08AD002B08AE0030
:102812002C08AF0010300310AF0CAE0CAD0CFF3E15
:10282200031D0C2C2D08B0003008B6002708AD009F
:102832002808AE002908AF0010300310AF0CAE0C10
:10284200AD0CFF3E031D1E2C2D08B0003008B6064D
:102852008030AD002D08B605AB17FF30AA05FF305A
:10286200AB050030AC05A817FF30A705FF30A8055F
:102872000030A9051830AD002D08B1000130031059
:10288200B20DB30DB40DFF3E031D402C29082C02DE
:10289200031D512C28082B02031D512C27082A0244
:1028A200031C5E2C2708AA022808031C280FAB026F
:1028B2002908031C290AAC02321401300310AA0DA4
:1028C200AB0DAC0DFF3E031D5F2C0130B102031DA9
:1028D2003F2C3208F0003308F1003408F2003508CA
:1028E200AD002D08F3003608AE002E08F4000A16DB
:1028F2008A116922700883120313A7007108A800C5
:102902007208A9000800831203138C1A8C120C1B84
:102912000C130B1D292DEE300A168A152F270A16C5
:102922008A110130831203174002F33003193F0268
:102932000318A52C0130BF070318C00A0030C007D6
:10294200831203130617282D83120317BF01C00138
:10295200831203130F0883120317C201C2078312E3
:1029620003130E0883120317C101C1074208F901BC
:10297200F9074108F801F8070A168A1562270A16AC
:102982008A11780883120313AA007908AB007A0827
:10299200AC000030A700E030A8004030A9000A16C1
:1029A2008A11CC230A168A11831203132708BA004C
:1029B2002808BB002908BC000030B700F030B8007E
:1029C2004230B9000A168A113E250A168A1183126C
:1029D20003133708C7003808C8003908C9000A16A7
:1029E2008A113E230A168A1183120313480883169A
:1029F2000313EF01EF078312031347088316031330
:102A0200EE01EE076E09831203179000831603137B
:102A12006F09831203179100900A0319910A55084E
:102A2200100783120313EE008312031756080318CC
:102A3200560A110783120313EF000A128A15422560
:102A42000A168A11831203138E018F0106130B11CA
:102A52000C180C108C198C11831203171508831291
:102A62000313FF008312031714088A00130884005B
:102A7200120E8300FE0E7E0E090083120313370826
:102A8200BD003808BE003908BF0003103E0D3F0DDF
:102A9200C0004008C100C108031D562D0030B70018
:102AA2000030B8000030B90008003A08BD003B0809
:102AB200BE003C08BF0003103E0D3F0DC0004008A1
:102AC200C600C608031D6C2D0030B7000030B800E8
:102AD2000030B900080046087B3EBD003D08C10732
:102AE2003708BD003808BE003908BF001030031097
:102AF200BF0CBE0CBD0CFF3E031D782D3D08C0006F
:102B02004008C6003A08BD003B08BE003C08BF00B2
:102B120010300310BF0CBE0CBD0CFF3E031D8A2DEE
:102B22003D08C0004008C6068030BD003D08C6050D
:102B3200B817BB17FF30BA05FF30BB050030BC0524
:102B42000030C2000030C3000030C4000730BD00B6
:102B52003D08C500371CBB2D3A08C2073B080311CC
:102B620003183B0A031DC3073C08031103183C0A60
:102B7200031DC40701300310B90CB80CB70CFF3E9B
:102B8200031DBC2D01300310BA0DBB0DBC0DFF3E61
:102B9200031DC42D0130C502031DAB2D0930BD003C
:102BA2003D08C500371CE32D3A08C2073B08031154
:102BB20003183B0A031DC3073C08031103183C0A10
:102BC200031DC40701300310B90CB80CB70CFF3E4B
:102BD200031DE42D01300310C40CC30CC20CFF3ED4
:102BE200031DEC2D0130C502031DD32D4208F00058
:102BF2004308F1004408F2004108BD003D08F3001B
:102C02004608BE003E08F4000A168A1169227008BE
:102C120083120313B7007108B8007208B9000800E4
:102C220001308316031385000130831203138500DC
:102C320083160313860183120313860181308316E0
:102C420003138700C0308312031387008316031314
:102C520088018312031388018316031389018312E7
:102C620003138901033090008E018F01003083121B
:102C72000317A8000130A700C230A6000030A5004B
:102C82000A168A11C1210A168A110A168A153527CF
:102C92000A168A110A168A1550270A168A110A1666
:102CA2008A11A8200A168A110A168A11D1220A1636
:102CB2008A110B178B170A168A11D1220A168A114A
:102CC20083120317960100300A168A15BF270A16C7
:102CD2008A113330831203179800803099000A1644
:102CE2008A111A210A168A110030831203179600DC
:102CF200003097000A168A1166200A168A110030DF
:102D0200831203179600003097000A168A11872053
:102D12000A168A11EE300A128A1501200A168A1141
:102D2200183083120317B7006130B6006E30B50059
:102D3200B50B992EB60B992EB70B992E00004A307F
:102D420083120317B5003508A400831603136F0816
:102D520083120317A601A607831603136E088312B4
:102D62000317A501A50749300A128A158B230A16F3
:102D72008A110A168A11F1200A168A118312031780
:102D8200960100300A168A15BF270A168A114430A6
:102D9200831203179800803099000A168A111A21AB
:102DA2000A168A11063083120317B50035089600F9
:102DB20000300A168A15BF270A168A114930831273
:102DC20003179800013099000A168A111A210A166F
:102DD2008A11053083120317B700AD30B600E03018
:102DE200B500B50BF22EB60BF22EB70BF22EA02EBB
:102DF200780883120313A0007908A1007A08A200C0
:102E02000310210D220DA3002308A6007B08A000B9
:102E12007C08A1007D08A2000310210D220DA30051
:102E22002308A50026080319222F250826020318C5
:102E3200292F2603FF3A2507A00019302002031C80
:102E4200292F7B08F8007C08F9007D08FA000800A9
:102E5200250803190800260825020318382F250320
:102E6200FF3A2607A0001930200203180800063096
:102E7200A0002008A400FA1BA417FD1B2417F917B1
:102E8200FF30F805FF30F9050030FA05FC17FF3076
:102E9200FB05FF30FC050030FD052508260203185E
:102EA200782F01300310FB0DFC0DFD0DFF3E031DBD
:102EB200532F0130A502250826060319732F01306E
:102EC200A402240807390319732F522F013003106B
:102ED200FA0CF90CF80CFF3E031D682F0130A0001C
:102EE2002008A607260825060319A12F672F260802
:102EF20025020318A12F01300310F80DF90DFA0D68
:102F0200FF3E031D7D2F0130A60225082606031968
:102F12009D2F0130A4022408073903199D2F7C2F0D
:102F220001300310FD0CFC0CFB0CFF3E031D922F25
:102F32000130A0002008A50726082506031D912FB1
:102F4200A41FB32FFF30F806FF30F906FF30FA0650
:102F52000130F807003003180130F9070030031878
:102F62000130FA07241FC52FFF30FB06FF30FC0695
:102F7200FF30FD060130FB07003003180130FC076B
:102F8200003003180130FD07A4017808FB07790817
:102F920003110318790A031DFC077A0803110318A9
:102FA2007A0A031DFD07FD1FE82FFF30FB06FF30E5
:102FB200FC06FF30FD060130FB070030031801302C
:102FC200FC07003003180130FD07A401A40A7B08A6
:102FD200F0007C08F1007D08F2002608A00020081D
:102FE200F3002408A1002108F4000A168A116922BC
:0E2FF2007008F8007108F9007208FA00080073
:103E560001340034EC340C34F00070088312031380
:103E660081000800831603138112011281110115C6
:103E7600811401140B118B16080083120317970087
:103E860096013A30170203184E2F30301702031CE2
:103E96004E2F9601960A160C0800831603139F17D9
:103EA6009F151F159F141F10831203139F171F13AF
:103EB600831603130C13831203130C1308007808DC
:103EC600F0007908F100F2018E30FB007B08F30068
:103ED600F4010A168A1169227008F8007108F900BF
:103EE6007208FA000800831203179700831203135F
:103EF6000910831203171708831203138800891405
:103F06003D30831203179600960B872F83120313F7
:103F160089100800831203179700831203130914EC
:103F260083120317170883120313880089143D3080
:103F3600831203179600960B9E2F83120313891084
:103F46000800831203135608D8005508D700580DE9
:103F5600D80CD70C580DD80CD70C57089B00550811
:103F6600D70003300310D70DFF3E031DB52F0310F6
:103F7600570D0C389D000800831203179800831212
:103F860003130910831203179808031DCD2F160873
:103F9600803ED12F831203171608C03E83120313E7
:103FA600880089143D30831203179700970BD92F89
:103FB6008312031389100800FD01F91FE92FF80980
:103FC600F909F80A0319F90AFD01FD0A7808F00053
:103FD6007908F100F2018E30FB007B08F3007D08C2
:103FE600FC007C08F4000A168A1169227008F800A1
:0A3FF6007108F9007208FA000800D3
:02400E0032FF7F
:00000001FF
